{
	"data": {
		"bytecode": {
			"linkReferences": {},
			"object": "608060405234801561000f575f80fd5b506040518060400160405280600881526020017f426f6f6b6e6966790000000000000000000000000000000000000000000000008152506040518060400160405280600381526020017f424e460000000000000000000000000000000000000000000000000000000000815250815f908161008a91906103ca565b50806001908161009a91906103ca565b5050506100b96100ae6100c660201b60201c565b6100cd60201b60201c565b6001600b81905550610499565b5f33905090565b5f600a5f9054906101000a900473ffffffffffffffffffffffffffffffffffffffff16905081600a5f6101000a81548173ffffffffffffffffffffffffffffffffffffffff021916908373ffffffffffffffffffffffffffffffffffffffff1602179055508173ffffffffffffffffffffffffffffffffffffffff168173ffffffffffffffffffffffffffffffffffffffff167f8be0079c531659141344cd1fd0a4f28419497f9722a3daafe3b4186f6b6457e060405160405180910390a35050565b5f81519050919050565b7f4e487b71000000000000000000000000000000000000000000000000000000005f52604160045260245ffd5b7f4e487b71000000000000000000000000000000000000000000000000000000005f52602260045260245ffd5b5f600282049050600182168061020b57607f821691505b60208210810361021e5761021d6101c7565b5b50919050565b5f819050815f5260205f209050919050565b5f6020601f8301049050919050565b5f82821b905092915050565b5f600883026102807fffffffffffffffffffffffffffffffffffffffffffffffffffffffffffffffff82610245565b61028a8683610245565b95508019841693508086168417925050509392505050565b5f819050919050565b5f819050919050565b5f6102ce6102c96102c4846102a2565b6102ab565b6102a2565b9050919050565b5f819050919050565b6102e7836102b4565b6102fb6102f3826102d5565b848454610251565b825550505050565b5f90565b61030f610303565b61031a8184846102de565b505050565b5b8181101561033d576103325f82610307565b600181019050610320565b5050565b601f8211156103825761035381610224565b61035c84610236565b8101602085101561036b578190505b61037f61037785610236565b83018261031f565b50505b505050565b5f82821c905092915050565b5f6103a25f1984600802610387565b1980831691505092915050565b5f6103ba8383610393565b9150826002028217905092915050565b6103d382610190565b67ffffffffffffffff8111156103ec576103eb61019a565b5b6103f682546101f4565b610401828285610341565b5f60209050601f831160018114610432575f8415610420578287015190505b61042a85826103af565b865550610491565b601f19841661044086610224565b5f5b8281101561046757848901518255600182019150602085019450602081019050610442565b868310156104845784890151610480601f891682610393565b8355505b6001600288020188555050505b505050505050565b6133db806104a65f395ff3fe608060405234801561000f575f80fd5b5060043610610140575f3560e01c80636a627842116100b65780639ffb8b491161007a5780639ffb8b4914610372578063a22cb46514610390578063b88d4fde146103ac578063c87b56dd146103c8578063e985e9c5146103f8578063f2fde38b1461042857610140565b80636a627842146102e057806370a08231146102fc578063715018a61461032c5780638da5cb5b1461033657806395d89b411461035457610140565b806323b872dd1161010857806323b872dd146101fc5780632f745c591461021857806342842e0e146102485780634f6ccce71461026457806355f804b3146102945780636352211e146102b057610140565b806301ffc9a71461014457806306fdde0314610174578063081812fc14610192578063095ea7b3146101c257806318160ddd146101de575b5f80fd5b61015e60048036038101906101599190611fbd565b610444565b60405161016b9190612002565b60405180910390f35b61017c6104bd565b604051610189919061208b565b60405180910390f35b6101ac60048036038101906101a791906120de565b61054c565b6040516101b99190612148565b60405180910390f35b6101dc60048036038101906101d7919061218b565b61058e565b005b6101e66106a4565b6040516101f391906121d8565b60405180910390f35b610216600480360381019061021191906121f1565b6106b0565b005b610232600480360381019061022d919061218b565b610710565b60405161023f91906121d8565b60405180910390f35b610262600480360381019061025d91906121f1565b6107b0565b005b61027e600480360381019061027991906120de565b6107cf565b60405161028b91906121d8565b60405180910390f35b6102ae60048036038101906102a9919061236d565b61083d565b005b6102ca60048036038101906102c591906120de565b610858565b6040516102d79190612148565b60405180910390f35b6102fa60048036038101906102f591906123b4565b6108dc565b005b610316600480360381019061031191906123b4565b61090a565b60405161032391906121d8565b60405180910390f35b6103346109be565b005b61033e6109d1565b60405161034b9190612148565b60405180910390f35b61035c6109f9565b604051610369919061208b565b60405180910390f35b61037a610a89565b60405161038791906121d8565b60405180910390f35b6103aa60048036038101906103a59190612409565b610a8f565b005b6103c660048036038101906103c191906124e5565b610aa5565b005b6103e260048036038101906103dd91906120de565b610b07565b6040516103ef919061208b565b60405180910390f35b610412600480360381019061040d9190612565565b610b79565b60405161041f9190612002565b60405180910390f35b610442600480360381019061043d91906123b4565b610c07565b005b5f7f780e9d63000000000000000000000000000000000000000000000000000000007bffffffffffffffffffffffffffffffffffffffffffffffffffffffff1916827bffffffffffffffffffffffffffffffffffffffffffffffffffffffff191614806104b657506104b582610c89565b5b9050919050565b60605f80546104cb906125d0565b80601f01602080910402602001604051908101604052809291908181526020018280546104f7906125d0565b80156105425780601f1061051957610100808354040283529160200191610542565b820191905f5260205f20905b81548152906001019060200180831161052557829003601f168201915b5050505050905090565b5f61055682610d6a565b60045f8381526020019081526020015f205f9054906101000a900473ffffffffffffffffffffffffffffffffffffffff169050919050565b5f61059882610858565b90508073ffffffffffffffffffffffffffffffffffffffff168373ffffffffffffffffffffffffffffffffffffffff1603610608576040517f08c379a00000000000000000000000000000000000000000000000000000000081526004016105ff90612670565b60405180910390fd5b8073ffffffffffffffffffffffffffffffffffffffff16610627610db5565b73ffffffffffffffffffffffffffffffffffffffff161480610656575061065581610650610db5565b610b79565b5b610695576040517f08c379a000000000000000000000000000000000000000000000000000000000815260040161068c906126fe565b60405180910390fd5b61069f8383610dbc565b505050565b5f600880549050905090565b6106c16106bb610db5565b82610e72565b610700576040517f08c379a00000000000000000000000000000000000000000000000000000000081526004016106f79061278c565b60405180910390fd5b61070b838383610f06565b505050565b5f61071a8361090a565b821061075b576040517f08c379a00000000000000000000000000000000000000000000000000000000081526004016107529061281a565b60405180910390fd5b60065f8473ffffffffffffffffffffffffffffffffffffffff1673ffffffffffffffffffffffffffffffffffffffff1681526020019081526020015f205f8381526020019081526020015f2054905092915050565b6107ca83838360405180602001604052805f815250610aa5565b505050565b5f6107d86106a4565b8210610819576040517f08c379a0000000000000000000000000000000000000000000000000000000008152600401610810906128a8565b60405180910390fd5b6008828154811061082d5761082c6128c6565b5b905f5260205f2001549050919050565b6108456111f2565b80600c90816108549190612a90565b5050565b5f8061086383611270565b90505f73ffffffffffffffffffffffffffffffffffffffff168173ffffffffffffffffffffffffffffffffffffffff16036108d3576040517f08c379a00000000000000000000000000000000000000000000000000000000081526004016108ca90612ba9565b60405180910390fd5b80915050919050565b6108e46111f2565b6108f081600b546112a9565b600b5f81548092919061090290612bf4565b919050555050565b5f8073ffffffffffffffffffffffffffffffffffffffff168273ffffffffffffffffffffffffffffffffffffffff1603610979576040517f08c379a000000000000000000000000000000000000000000000000000000000815260040161097090612cab565b60405180910390fd5b60035f8373ffffffffffffffffffffffffffffffffffffffff1673ffffffffffffffffffffffffffffffffffffffff1681526020019081526020015f20549050919050565b6109c66111f2565b6109cf5f6112c6565b565b5f600a5f9054906101000a900473ffffffffffffffffffffffffffffffffffffffff16905090565b606060018054610a08906125d0565b80601f0160208091040260200160405190810160405280929190818152602001828054610a34906125d0565b8015610a7f5780601f10610a5657610100808354040283529160200191610a7f565b820191905f5260205f20905b815481529060010190602001808311610a6257829003601f168201915b5050505050905090565b600b5481565b610aa1610a9a610db5565b8383611389565b5050565b610ab6610ab0610db5565b83610e72565b610af5576040517f08c379a0000000000000000000000000000000000000000000000000000000008152600401610aec9061278c565b60405180910390fd5b610b01848484846114f0565b50505050565b6060610b128261154c565b610b51576040517f08c379a0000000000000000000000000000000000000000000000000000000008152600401610b4890612d13565b60405180910390fd5b600c604051602001610b639190612dbb565b6040516020818303038152906040529050919050565b5f60055f8473ffffffffffffffffffffffffffffffffffffffff1673ffffffffffffffffffffffffffffffffffffffff1681526020019081526020015f205f8373ffffffffffffffffffffffffffffffffffffffff1673ffffffffffffffffffffffffffffffffffffffff1681526020019081526020015f205f9054906101000a900460ff16905092915050565b610c0f6111f2565b5f73ffffffffffffffffffffffffffffffffffffffff168173ffffffffffffffffffffffffffffffffffffffff1603610c7d576040517f08c379a0000000000000000000000000000000000000000000000000000000008152600401610c7490612e41565b60405180910390fd5b610c86816112c6565b50565b5f7f80ac58cd000000000000000000000000000000000000000000000000000000007bffffffffffffffffffffffffffffffffffffffffffffffffffffffff1916827bffffffffffffffffffffffffffffffffffffffffffffffffffffffff19161480610d5357507f5b5e139f000000000000000000000000000000000000000000000000000000007bffffffffffffffffffffffffffffffffffffffffffffffffffffffff1916827bffffffffffffffffffffffffffffffffffffffffffffffffffffffff1916145b80610d635750610d628261158c565b5b9050919050565b610d738161154c565b610db2576040517f08c379a0000000000000000000000000000000000000000000000000000000008152600401610da990612ba9565b60405180910390fd5b50565b5f33905090565b8160045f8381526020019081526020015f205f6101000a81548173ffffffffffffffffffffffffffffffffffffffff021916908373ffffffffffffffffffffffffffffffffffffffff160217905550808273ffffffffffffffffffffffffffffffffffffffff16610e2c83610858565b73ffffffffffffffffffffffffffffffffffffffff167f8c5be1e5ebec7d5bd14f71427d1e84f3dd0314c0f7b2291e5b200ac8c7c3b92560405160405180910390a45050565b5f80610e7d83610858565b90508073ffffffffffffffffffffffffffffffffffffffff168473ffffffffffffffffffffffffffffffffffffffff161480610ebf5750610ebe8185610b79565b5b80610efd57508373ffffffffffffffffffffffffffffffffffffffff16610ee58461054c565b73ffffffffffffffffffffffffffffffffffffffff16145b91505092915050565b8273ffffffffffffffffffffffffffffffffffffffff16610f2682610858565b73ffffffffffffffffffffffffffffffffffffffff1614610f7c576040517f08c379a0000000000000000000000000000000000000000000000000000000008152600401610f7390612ecf565b60405180910390fd5b5f73ffffffffffffffffffffffffffffffffffffffff168273ffffffffffffffffffffffffffffffffffffffff1603610fea576040517f08c379a0000000000000000000000000000000000000000000000000000000008152600401610fe190612f5d565b60405180910390fd5b610ff783838360016115f5565b8273ffffffffffffffffffffffffffffffffffffffff1661101782610858565b73ffffffffffffffffffffffffffffffffffffffff161461106d576040517f08c379a000000000000000000000000000000000000000000000000000000000815260040161106490612ecf565b60405180910390fd5b60045f8281526020019081526020015f205f6101000a81549073ffffffffffffffffffffffffffffffffffffffff0219169055600160035f8573ffffffffffffffffffffffffffffffffffffffff1673ffffffffffffffffffffffffffffffffffffffff1681526020019081526020015f205f8282540392505081905550600160035f8473ffffffffffffffffffffffffffffffffffffffff1673ffffffffffffffffffffffffffffffffffffffff1681526020019081526020015f205f82825401925050819055508160025f8381526020019081526020015f205f6101000a81548173ffffffffffffffffffffffffffffffffffffffff021916908373ffffffffffffffffffffffffffffffffffffffff160217905550808273ffffffffffffffffffffffffffffffffffffffff168473ffffffffffffffffffffffffffffffffffffffff167fddf252ad1be2c89b69c2b068fc378daa952ba7f163c4a11628f55a4df523b3ef60405160405180910390a46111ed8383836001611750565b505050565b6111fa610db5565b73ffffffffffffffffffffffffffffffffffffffff166112186109d1565b73ffffffffffffffffffffffffffffffffffffffff161461126e576040517f08c379a000000000000000000000000000000000000000000000000000000000815260040161126590612fc5565b60405180910390fd5b565b5f60025f8381526020019081526020015f205f9054906101000a900473ffffffffffffffffffffffffffffffffffffffff169050919050565b6112c2828260405180602001604052805f815250611756565b5050565b5f600a5f9054906101000a900473ffffffffffffffffffffffffffffffffffffffff16905081600a5f6101000a81548173ffffffffffffffffffffffffffffffffffffffff021916908373ffffffffffffffffffffffffffffffffffffffff1602179055508173ffffffffffffffffffffffffffffffffffffffff168173ffffffffffffffffffffffffffffffffffffffff167f8be0079c531659141344cd1fd0a4f28419497f9722a3daafe3b4186f6b6457e060405160405180910390a35050565b8173ffffffffffffffffffffffffffffffffffffffff168373ffffffffffffffffffffffffffffffffffffffff16036113f7576040517f08c379a00000000000000000000000000000000000000000000000000000000081526004016113ee9061302d565b60405180910390fd5b8060055f8573ffffffffffffffffffffffffffffffffffffffff1673ffffffffffffffffffffffffffffffffffffffff1681526020019081526020015f205f8473ffffffffffffffffffffffffffffffffffffffff1673ffffffffffffffffffffffffffffffffffffffff1681526020019081526020015f205f6101000a81548160ff0219169083151502179055508173ffffffffffffffffffffffffffffffffffffffff168373ffffffffffffffffffffffffffffffffffffffff167f17307eab39ab6107e8899845ad3d59bd9653f200f220920489ca2b5937696c31836040516114e39190612002565b60405180910390a3505050565b6114fb848484610f06565b611507848484846117b0565b611546576040517f08c379a000000000000000000000000000000000000000000000000000000000815260040161153d906130bb565b60405180910390fd5b50505050565b5f8073ffffffffffffffffffffffffffffffffffffffff1661156d83611270565b73ffffffffffffffffffffffffffffffffffffffff1614159050919050565b5f7f01ffc9a7000000000000000000000000000000000000000000000000000000007bffffffffffffffffffffffffffffffffffffffffffffffffffffffff1916827bffffffffffffffffffffffffffffffffffffffffffffffffffffffff1916149050919050565b61160184848484611932565b6001811115611645576040517f08c379a000000000000000000000000000000000000000000000000000000000815260040161163c90613149565b60405180910390fd5b5f8290505f73ffffffffffffffffffffffffffffffffffffffff168573ffffffffffffffffffffffffffffffffffffffff160361168a5761168581611a50565b6116c9565b8373ffffffffffffffffffffffffffffffffffffffff168573ffffffffffffffffffffffffffffffffffffffff16146116c8576116c78582611a94565b5b5b5f73ffffffffffffffffffffffffffffffffffffffff168473ffffffffffffffffffffffffffffffffffffffff160361170a5761170581611bea565b611749565b8473ffffffffffffffffffffffffffffffffffffffff168473ffffffffffffffffffffffffffffffffffffffff1614611748576117478482611caa565b5b5b5050505050565b50505050565b6117608383611d22565b61176c5f8484846117b0565b6117ab576040517f08c379a00000000000000000000000000000000000000000000000000000000081526004016117a2906130bb565b60405180910390fd5b505050565b5f6117d08473ffffffffffffffffffffffffffffffffffffffff16611f35565b15611925578373ffffffffffffffffffffffffffffffffffffffff1663150b7a026117f9610db5565b8786866040518563ffffffff1660e01b815260040161181b94939291906131b9565b6020604051808303815f875af192505050801561185657506040513d601f19601f820116820180604052508101906118539190613217565b60015b6118d5573d805f8114611884576040519150601f19603f3d011682016040523d82523d5f602084013e611889565b606091505b505f8151036118cd576040517f08c379a00000000000000000000000000000000000000000000000000000000081526004016118c4906130bb565b60405180910390fd5b805181602001fd5b63150b7a0260e01b7bffffffffffffffffffffffffffffffffffffffffffffffffffffffff1916817bffffffffffffffffffffffffffffffffffffffffffffffffffffffff19161491505061192a565b600190505b949350505050565b6001811115611a4a575f73ffffffffffffffffffffffffffffffffffffffff168473ffffffffffffffffffffffffffffffffffffffff16146119c2578060035f8673ffffffffffffffffffffffffffffffffffffffff1673ffffffffffffffffffffffffffffffffffffffff1681526020019081526020015f205f8282546119ba9190613242565b925050819055505b5f73ffffffffffffffffffffffffffffffffffffffff168373ffffffffffffffffffffffffffffffffffffffff1614611a49578060035f8573ffffffffffffffffffffffffffffffffffffffff1673ffffffffffffffffffffffffffffffffffffffff1681526020019081526020015f205f828254611a419190613275565b925050819055505b5b50505050565b60088054905060095f8381526020019081526020015f2081905550600881908060018154018082558091505060019003905f5260205f20015f909190919091505550565b5f6001611aa08461090a565b611aaa9190613242565b90505f60075f8481526020019081526020015f20549050818114611b81575f60065f8673ffffffffffffffffffffffffffffffffffffffff1673ffffffffffffffffffffffffffffffffffffffff1681526020019081526020015f205f8481526020019081526020015f205490508060065f8773ffffffffffffffffffffffffffffffffffffffff1673ffffffffffffffffffffffffffffffffffffffff1681526020019081526020015f205f8481526020019081526020015f20819055508160075f8381526020019081526020015f2081905550505b60075f8481526020019081526020015f205f905560065f8573ffffffffffffffffffffffffffffffffffffffff1673ffffffffffffffffffffffffffffffffffffffff1681526020019081526020015f205f8381526020019081526020015f205f905550505050565b5f6001600880549050611bfd9190613242565b90505f60095f8481526020019081526020015f205490505f60088381548110611c2957611c286128c6565b5b905f5260205f20015490508060088381548110611c4957611c486128c6565b5b905f5260205f2001819055508160095f8381526020019081526020015f208190555060095f8581526020019081526020015f205f90556008805480611c9157611c906132a8565b5b600190038181905f5260205f20015f9055905550505050565b5f611cb48361090a565b90508160065f8573ffffffffffffffffffffffffffffffffffffffff1673ffffffffffffffffffffffffffffffffffffffff1681526020019081526020015f205f8381526020019081526020015f20819055508060075f8481526020019081526020015f2081905550505050565b5f73ffffffffffffffffffffffffffffffffffffffff168273ffffffffffffffffffffffffffffffffffffffff1603611d90576040517f08c379a0000000000000000000000000000000000000000000000000000000008152600401611d879061331f565b60405180910390fd5b611d998161154c565b15611dd9576040517f08c379a0000000000000000000000000000000000000000000000000000000008152600401611dd090613387565b60405180910390fd5b611de65f838360016115f5565b611def8161154c565b15611e2f576040517f08c379a0000000000000000000000000000000000000000000000000000000008152600401611e2690613387565b60405180910390fd5b600160035f8473ffffffffffffffffffffffffffffffffffffffff1673ffffffffffffffffffffffffffffffffffffffff1681526020019081526020015f205f82825401925050819055508160025f8381526020019081526020015f205f6101000a81548173ffffffffffffffffffffffffffffffffffffffff021916908373ffffffffffffffffffffffffffffffffffffffff160217905550808273ffffffffffffffffffffffffffffffffffffffff165f73ffffffffffffffffffffffffffffffffffffffff167fddf252ad1be2c89b69c2b068fc378daa952ba7f163c4a11628f55a4df523b3ef60405160405180910390a4611f315f83836001611750565b5050565b5f808273ffffffffffffffffffffffffffffffffffffffff163b119050919050565b5f604051905090565b5f80fd5b5f80fd5b5f7fffffffff0000000000000000000000000000000000000000000000000000000082169050919050565b611f9c81611f68565b8114611fa6575f80fd5b50565b5f81359050611fb781611f93565b92915050565b5f60208284031215611fd257611fd1611f60565b5b5f611fdf84828501611fa9565b91505092915050565b5f8115159050919050565b611ffc81611fe8565b82525050565b5f6020820190506120155f830184611ff3565b92915050565b5f81519050919050565b5f82825260208201905092915050565b8281835e5f83830152505050565b5f601f19601f8301169050919050565b5f61205d8261201b565b6120678185612025565b9350612077818560208601612035565b61208081612043565b840191505092915050565b5f6020820190508181035f8301526120a38184612053565b905092915050565b5f819050919050565b6120bd816120ab565b81146120c7575f80fd5b50565b5f813590506120d8816120b4565b92915050565b5f602082840312156120f3576120f2611f60565b5b5f612100848285016120ca565b91505092915050565b5f73ffffffffffffffffffffffffffffffffffffffff82169050919050565b5f61213282612109565b9050919050565b61214281612128565b82525050565b5f60208201905061215b5f830184612139565b92915050565b61216a81612128565b8114612174575f80fd5b50565b5f8135905061218581612161565b92915050565b5f80604083850312156121a1576121a0611f60565b5b5f6121ae85828601612177565b92505060206121bf858286016120ca565b9150509250929050565b6121d2816120ab565b82525050565b5f6020820190506121eb5f8301846121c9565b92915050565b5f805f6060848603121561220857612207611f60565b5b5f61221586828701612177565b935050602061222686828701612177565b9250506040612237868287016120ca565b9150509250925092565b5f80fd5b5f80fd5b7f4e487b71000000000000000000000000000000000000000000000000000000005f52604160045260245ffd5b61227f82612043565b810181811067ffffffffffffffff8211171561229e5761229d612249565b5b80604052505050565b5f6122b0611f57565b90506122bc8282612276565b919050565b5f67ffffffffffffffff8211156122db576122da612249565b5b6122e482612043565b9050602081019050919050565b828183375f83830152505050565b5f61231161230c846122c1565b6122a7565b90508281526020810184848401111561232d5761232c612245565b5b6123388482856122f1565b509392505050565b5f82601f83011261235457612353612241565b5b81356123648482602086016122ff565b91505092915050565b5f6020828403121561238257612381611f60565b5b5f82013567ffffffffffffffff81111561239f5761239e611f64565b5b6123ab84828501612340565b91505092915050565b5f602082840312156123c9576123c8611f60565b5b5f6123d684828501612177565b91505092915050565b6123e881611fe8565b81146123f2575f80fd5b50565b5f81359050612403816123df565b92915050565b5f806040838503121561241f5761241e611f60565b5b5f61242c85828601612177565b925050602061243d858286016123f5565b9150509250929050565b5f67ffffffffffffffff82111561246157612460612249565b5b61246a82612043565b9050602081019050919050565b5f61248961248484612447565b6122a7565b9050828152602081018484840111156124a5576124a4612245565b5b6124b08482856122f1565b509392505050565b5f82601f8301126124cc576124cb612241565b5b81356124dc848260208601612477565b91505092915050565b5f805f80608085870312156124fd576124fc611f60565b5b5f61250a87828801612177565b945050602061251b87828801612177565b935050604061252c878288016120ca565b925050606085013567ffffffffffffffff81111561254d5761254c611f64565b5b612559878288016124b8565b91505092959194509250565b5f806040838503121561257b5761257a611f60565b5b5f61258885828601612177565b925050602061259985828601612177565b9150509250929050565b7f4e487b71000000000000000000000000000000000000000000000000000000005f52602260045260245ffd5b5f60028204905060018216806125e757607f821691505b6020821081036125fa576125f96125a3565b5b50919050565b7f4552433732313a20617070726f76616c20746f2063757272656e74206f776e655f8201527f7200000000000000000000000000000000000000000000000000000000000000602082015250565b5f61265a602183612025565b915061266582612600565b604082019050919050565b5f6020820190508181035f8301526126878161264e565b9050919050565b7f4552433732313a20617070726f76652063616c6c6572206973206e6f7420746f5f8201527f6b656e206f776e6572206f7220617070726f76656420666f7220616c6c000000602082015250565b5f6126e8603d83612025565b91506126f38261268e565b604082019050919050565b5f6020820190508181035f830152612715816126dc565b9050919050565b7f4552433732313a2063616c6c6572206973206e6f7420746f6b656e206f776e655f8201527f72206f7220617070726f76656400000000000000000000000000000000000000602082015250565b5f612776602d83612025565b91506127818261271c565b604082019050919050565b5f6020820190508181035f8301526127a38161276a565b9050919050565b7f455243373231456e756d657261626c653a206f776e657220696e646578206f755f8201527f74206f6620626f756e6473000000000000000000000000000000000000000000602082015250565b5f612804602b83612025565b915061280f826127aa565b604082019050919050565b5f6020820190508181035f830152612831816127f8565b9050919050565b7f455243373231456e756d657261626c653a20676c6f62616c20696e646578206f5f8201527f7574206f6620626f756e64730000000000000000000000000000000000000000602082015250565b5f612892602c83612025565b915061289d82612838565b604082019050919050565b5f6020820190508181035f8301526128bf81612886565b9050919050565b7f4e487b71000000000000000000000000000000000000000000000000000000005f52603260045260245ffd5b5f819050815f5260205f209050919050565b5f6020601f8301049050919050565b5f82821b905092915050565b5f6008830261294f7fffffffffffffffffffffffffffffffffffffffffffffffffffffffffffffffff82612914565b6129598683612914565b95508019841693508086168417925050509392505050565b5f819050919050565b5f61299461298f61298a846120ab565b612971565b6120ab565b9050919050565b5f819050919050565b6129ad8361297a565b6129c16129b98261299b565b848454612920565b825550505050565b5f90565b6129d56129c9565b6129e08184846129a4565b505050565b5b81811015612a03576129f85f826129cd565b6001810190506129e6565b5050565b601f821115612a4857612a19816128f3565b612a2284612905565b81016020851015612a31578190505b612a45612a3d85612905565b8301826129e5565b50505b505050565b5f82821c905092915050565b5f612a685f1984600802612a4d565b1980831691505092915050565b5f612a808383612a59565b9150826002028217905092915050565b612a998261201b565b67ffffffffffffffff811115612ab257612ab1612249565b5b612abc82546125d0565b612ac7828285612a07565b5f60209050601f831160018114612af8575f8415612ae6578287015190505b612af08582612a75565b865550612b57565b601f198416612b06866128f3565b5f5b82811015612b2d57848901518255600182019150602085019450602081019050612b08565b86831015612b4a5784890151612b46601f891682612a59565b8355505b6001600288020188555050505b505050505050565b7f4552433732313a20696e76616c696420746f6b656e20494400000000000000005f82015250565b5f612b93601883612025565b9150612b9e82612b5f565b602082019050919050565b5f6020820190508181035f830152612bc081612b87565b9050919050565b7f4e487b71000000000000000000000000000000000000000000000000000000005f52601160045260245ffd5b5f612bfe826120ab565b91507fffffffffffffffffffffffffffffffffffffffffffffffffffffffffffffffff8203612c3057612c2f612bc7565b5b600182019050919050565b7f4552433732313a2061646472657373207a65726f206973206e6f7420612076615f8201527f6c6964206f776e65720000000000000000000000000000000000000000000000602082015250565b5f612c95602983612025565b9150612ca082612c3b565b604082019050919050565b5f6020820190508181035f830152612cc281612c89565b9050919050565b7f546f6b656e20646f6573206e6f742065786973740000000000000000000000005f82015250565b5f612cfd601483612025565b9150612d0882612cc9565b602082019050919050565b5f6020820190508181035f830152612d2a81612cf1565b9050919050565b5f81905092915050565b5f8154612d47816125d0565b612d518186612d31565b9450600182165f8114612d6b5760018114612d8057612db2565b60ff1983168652811515820286019350612db2565b612d89856128f3565b5f5b83811015612daa57815481890152600182019150602081019050612d8b565b838801955050505b50505092915050565b5f612dc68284612d3b565b915081905092915050565b7f4f776e61626c653a206e6577206f776e657220697320746865207a65726f20615f8201527f6464726573730000000000000000000000000000000000000000000000000000602082015250565b5f612e2b602683612025565b9150612e3682612dd1565b604082019050919050565b5f6020820190508181035f830152612e5881612e1f565b9050919050565b7f4552433732313a207472616e736665722066726f6d20696e636f7272656374205f8201527f6f776e6572000000000000000000000000000000000000000000000000000000602082015250565b5f612eb9602583612025565b9150612ec482612e5f565b604082019050919050565b5f6020820190508181035f830152612ee681612ead565b9050919050565b7f4552433732313a207472616e7366657220746f20746865207a65726f206164645f8201527f7265737300000000000000000000000000000000000000000000000000000000602082015250565b5f612f47602483612025565b9150612f5282612eed565b604082019050919050565b5f6020820190508181035f830152612f7481612f3b565b9050919050565b7f4f776e61626c653a2063616c6c6572206973206e6f7420746865206f776e65725f82015250565b5f612faf602083612025565b9150612fba82612f7b565b602082019050919050565b5f6020820190508181035f830152612fdc81612fa3565b9050919050565b7f4552433732313a20617070726f766520746f2063616c6c6572000000000000005f82015250565b5f613017601983612025565b915061302282612fe3565b602082019050919050565b5f6020820190508181035f8301526130448161300b565b9050919050565b7f4552433732313a207472616e7366657220746f206e6f6e2045524337323152655f8201527f63656976657220696d706c656d656e7465720000000000000000000000000000602082015250565b5f6130a5603283612025565b91506130b08261304b565b604082019050919050565b5f6020820190508181035f8301526130d281613099565b9050919050565b7f455243373231456e756d657261626c653a20636f6e73656375746976652074725f8201527f616e7366657273206e6f7420737570706f727465640000000000000000000000602082015250565b5f613133603583612025565b915061313e826130d9565b604082019050919050565b5f6020820190508181035f83015261316081613127565b9050919050565b5f81519050919050565b5f82825260208201905092915050565b5f61318b82613167565b6131958185613171565b93506131a5818560208601612035565b6131ae81612043565b840191505092915050565b5f6080820190506131cc5f830187612139565b6131d96020830186612139565b6131e660408301856121c9565b81810360608301526131f88184613181565b905095945050505050565b5f8151905061321181611f93565b92915050565b5f6020828403121561322c5761322b611f60565b5b5f61323984828501613203565b91505092915050565b5f61324c826120ab565b9150613257836120ab565b925082820390508181111561326f5761326e612bc7565b5b92915050565b5f61327f826120ab565b915061328a836120ab565b92508282019050808211156132a2576132a1612bc7565b5b92915050565b7f4e487b71000000000000000000000000000000000000000000000000000000005f52603160045260245ffd5b7f4552433732313a206d696e7420746f20746865207a65726f20616464726573735f82015250565b5f613309602083612025565b9150613314826132d5565b602082019050919050565b5f6020820190508181035f830152613336816132fd565b9050919050565b7f4552433732313a20746f6b656e20616c7265616479206d696e746564000000005f82015250565b5f613371601c83612025565b915061337c8261333d565b602082019050919050565b5f6020820190508181035f83015261339e81613365565b905091905056fea2646970667358221220daec02d5054956d9ddedbcaf132692f280045cfc28711cfae6aadb1781e1c63664736f6c634300081a0033",
			"opcodes": "PUSH1 0x80 PUSH1 0x40 MSTORE CALLVALUE DUP1 ISZERO PUSH2 0xF JUMPI PUSH0 DUP1 REVERT JUMPDEST POP PUSH1 0x40 MLOAD DUP1 PUSH1 0x40 ADD PUSH1 0x40 MSTORE DUP1 PUSH1 0x8 DUP2 MSTORE PUSH1 0x20 ADD PUSH32 0x426F6F6B6E696679000000000000000000000000000000000000000000000000 DUP2 MSTORE POP PUSH1 0x40 MLOAD DUP1 PUSH1 0x40 ADD PUSH1 0x40 MSTORE DUP1 PUSH1 0x3 DUP2 MSTORE PUSH1 0x20 ADD PUSH32 0x424E460000000000000000000000000000000000000000000000000000000000 DUP2 MSTORE POP DUP2 PUSH0 SWAP1 DUP2 PUSH2 0x8A SWAP2 SWAP1 PUSH2 0x3CA JUMP JUMPDEST POP DUP1 PUSH1 0x1 SWAP1 DUP2 PUSH2 0x9A SWAP2 SWAP1 PUSH2 0x3CA JUMP JUMPDEST POP POP POP PUSH2 0xB9 PUSH2 0xAE PUSH2 0xC6 PUSH1 0x20 SHL PUSH1 0x20 SHR JUMP JUMPDEST PUSH2 0xCD PUSH1 0x20 SHL PUSH1 0x20 SHR JUMP JUMPDEST PUSH1 0x1 PUSH1 0xB DUP2 SWAP1 SSTORE POP PUSH2 0x499 JUMP JUMPDEST PUSH0 CALLER SWAP1 POP SWAP1 JUMP JUMPDEST PUSH0 PUSH1 0xA PUSH0 SWAP1 SLOAD SWAP1 PUSH2 0x100 EXP SWAP1 DIV PUSH20 0xFFFFFFFFFFFFFFFFFFFFFFFFFFFFFFFFFFFFFFFF AND SWAP1 POP DUP2 PUSH1 0xA PUSH0 PUSH2 0x100 EXP DUP2 SLOAD DUP2 PUSH20 0xFFFFFFFFFFFFFFFFFFFFFFFFFFFFFFFFFFFFFFFF MUL NOT AND SWAP1 DUP4 PUSH20 0xFFFFFFFFFFFFFFFFFFFFFFFFFFFFFFFFFFFFFFFF AND MUL OR SWAP1 SSTORE POP DUP2 PUSH20 0xFFFFFFFFFFFFFFFFFFFFFFFFFFFFFFFFFFFFFFFF AND DUP2 PUSH20 0xFFFFFFFFFFFFFFFFFFFFFFFFFFFFFFFFFFFFFFFF AND PUSH32 0x8BE0079C531659141344CD1FD0A4F28419497F9722A3DAAFE3B4186F6B6457E0 PUSH1 0x40 MLOAD PUSH1 0x40 MLOAD DUP1 SWAP2 SUB SWAP1 LOG3 POP POP JUMP JUMPDEST PUSH0 DUP2 MLOAD SWAP1 POP SWAP2 SWAP1 POP JUMP JUMPDEST PUSH32 0x4E487B7100000000000000000000000000000000000000000000000000000000 PUSH0 MSTORE PUSH1 0x41 PUSH1 0x4 MSTORE PUSH1 0x24 PUSH0 REVERT JUMPDEST PUSH32 0x4E487B7100000000000000000000000000000000000000000000000000000000 PUSH0 MSTORE PUSH1 0x22 PUSH1 0x4 MSTORE PUSH1 0x24 PUSH0 REVERT JUMPDEST PUSH0 PUSH1 0x2 DUP3 DIV SWAP1 POP PUSH1 0x1 DUP3 AND DUP1 PUSH2 0x20B JUMPI PUSH1 0x7F DUP3 AND SWAP2 POP JUMPDEST PUSH1 0x20 DUP3 LT DUP2 SUB PUSH2 0x21E JUMPI PUSH2 0x21D PUSH2 0x1C7 JUMP JUMPDEST JUMPDEST POP SWAP2 SWAP1 POP JUMP JUMPDEST PUSH0 DUP2 SWAP1 POP DUP2 PUSH0 MSTORE PUSH1 0x20 PUSH0 KECCAK256 SWAP1 POP SWAP2 SWAP1 POP JUMP JUMPDEST PUSH0 PUSH1 0x20 PUSH1 0x1F DUP4 ADD DIV SWAP1 POP SWAP2 SWAP1 POP JUMP JUMPDEST PUSH0 DUP3 DUP3 SHL SWAP1 POP SWAP3 SWAP2 POP POP JUMP JUMPDEST PUSH0 PUSH1 0x8 DUP4 MUL PUSH2 0x280 PUSH32 0xFFFFFFFFFFFFFFFFFFFFFFFFFFFFFFFFFFFFFFFFFFFFFFFFFFFFFFFFFFFFFFFF DUP3 PUSH2 0x245 JUMP JUMPDEST PUSH2 0x28A DUP7 DUP4 PUSH2 0x245 JUMP JUMPDEST SWAP6 POP DUP1 NOT DUP5 AND SWAP4 POP DUP1 DUP7 AND DUP5 OR SWAP3 POP POP POP SWAP4 SWAP3 POP POP POP JUMP JUMPDEST PUSH0 DUP2 SWAP1 POP SWAP2 SWAP1 POP JUMP JUMPDEST PUSH0 DUP2 SWAP1 POP SWAP2 SWAP1 POP JUMP JUMPDEST PUSH0 PUSH2 0x2CE PUSH2 0x2C9 PUSH2 0x2C4 DUP5 PUSH2 0x2A2 JUMP JUMPDEST PUSH2 0x2AB JUMP JUMPDEST PUSH2 0x2A2 JUMP JUMPDEST SWAP1 POP SWAP2 SWAP1 POP JUMP JUMPDEST PUSH0 DUP2 SWAP1 POP SWAP2 SWAP1 POP JUMP JUMPDEST PUSH2 0x2E7 DUP4 PUSH2 0x2B4 JUMP JUMPDEST PUSH2 0x2FB PUSH2 0x2F3 DUP3 PUSH2 0x2D5 JUMP JUMPDEST DUP5 DUP5 SLOAD PUSH2 0x251 JUMP JUMPDEST DUP3 SSTORE POP POP POP POP JUMP JUMPDEST PUSH0 SWAP1 JUMP JUMPDEST PUSH2 0x30F PUSH2 0x303 JUMP JUMPDEST PUSH2 0x31A DUP2 DUP5 DUP5 PUSH2 0x2DE JUMP JUMPDEST POP POP POP JUMP JUMPDEST JUMPDEST DUP2 DUP2 LT ISZERO PUSH2 0x33D JUMPI PUSH2 0x332 PUSH0 DUP3 PUSH2 0x307 JUMP JUMPDEST PUSH1 0x1 DUP2 ADD SWAP1 POP PUSH2 0x320 JUMP JUMPDEST POP POP JUMP JUMPDEST PUSH1 0x1F DUP3 GT ISZERO PUSH2 0x382 JUMPI PUSH2 0x353 DUP2 PUSH2 0x224 JUMP JUMPDEST PUSH2 0x35C DUP5 PUSH2 0x236 JUMP JUMPDEST DUP2 ADD PUSH1 0x20 DUP6 LT ISZERO PUSH2 0x36B JUMPI DUP2 SWAP1 POP JUMPDEST PUSH2 0x37F PUSH2 0x377 DUP6 PUSH2 0x236 JUMP JUMPDEST DUP4 ADD DUP3 PUSH2 0x31F JUMP JUMPDEST POP POP JUMPDEST POP POP POP JUMP JUMPDEST PUSH0 DUP3 DUP3 SHR SWAP1 POP SWAP3 SWAP2 POP POP JUMP JUMPDEST PUSH0 PUSH2 0x3A2 PUSH0 NOT DUP5 PUSH1 0x8 MUL PUSH2 0x387 JUMP JUMPDEST NOT DUP1 DUP4 AND SWAP2 POP POP SWAP3 SWAP2 POP POP JUMP JUMPDEST PUSH0 PUSH2 0x3BA DUP4 DUP4 PUSH2 0x393 JUMP JUMPDEST SWAP2 POP DUP3 PUSH1 0x2 MUL DUP3 OR SWAP1 POP SWAP3 SWAP2 POP POP JUMP JUMPDEST PUSH2 0x3D3 DUP3 PUSH2 0x190 JUMP JUMPDEST PUSH8 0xFFFFFFFFFFFFFFFF DUP2 GT ISZERO PUSH2 0x3EC JUMPI PUSH2 0x3EB PUSH2 0x19A JUMP JUMPDEST JUMPDEST PUSH2 0x3F6 DUP3 SLOAD PUSH2 0x1F4 JUMP JUMPDEST PUSH2 0x401 DUP3 DUP3 DUP6 PUSH2 0x341 JUMP JUMPDEST PUSH0 PUSH1 0x20 SWAP1 POP PUSH1 0x1F DUP4 GT PUSH1 0x1 DUP2 EQ PUSH2 0x432 JUMPI PUSH0 DUP5 ISZERO PUSH2 0x420 JUMPI DUP3 DUP8 ADD MLOAD SWAP1 POP JUMPDEST PUSH2 0x42A DUP6 DUP3 PUSH2 0x3AF JUMP JUMPDEST DUP7 SSTORE POP PUSH2 0x491 JUMP JUMPDEST PUSH1 0x1F NOT DUP5 AND PUSH2 0x440 DUP7 PUSH2 0x224 JUMP JUMPDEST PUSH0 JUMPDEST DUP3 DUP2 LT ISZERO PUSH2 0x467 JUMPI DUP5 DUP10 ADD MLOAD DUP3 SSTORE PUSH1 0x1 DUP3 ADD SWAP2 POP PUSH1 0x20 DUP6 ADD SWAP5 POP PUSH1 0x20 DUP2 ADD SWAP1 POP PUSH2 0x442 JUMP JUMPDEST DUP7 DUP4 LT ISZERO PUSH2 0x484 JUMPI DUP5 DUP10 ADD MLOAD PUSH2 0x480 PUSH1 0x1F DUP10 AND DUP3 PUSH2 0x393 JUMP JUMPDEST DUP4 SSTORE POP JUMPDEST PUSH1 0x1 PUSH1 0x2 DUP9 MUL ADD DUP9 SSTORE POP POP POP JUMPDEST POP POP POP POP POP POP JUMP JUMPDEST PUSH2 0x33DB DUP1 PUSH2 0x4A6 PUSH0 CODECOPY PUSH0 RETURN INVALID PUSH1 0x80 PUSH1 0x40 MSTORE CALLVALUE DUP1 ISZERO PUSH2 0xF JUMPI PUSH0 DUP1 REVERT JUMPDEST POP PUSH1 0x4 CALLDATASIZE LT PUSH2 0x140 JUMPI PUSH0 CALLDATALOAD PUSH1 0xE0 SHR DUP1 PUSH4 0x6A627842 GT PUSH2 0xB6 JUMPI DUP1 PUSH4 0x9FFB8B49 GT PUSH2 0x7A JUMPI DUP1 PUSH4 0x9FFB8B49 EQ PUSH2 0x372 JUMPI DUP1 PUSH4 0xA22CB465 EQ PUSH2 0x390 JUMPI DUP1 PUSH4 0xB88D4FDE EQ PUSH2 0x3AC JUMPI DUP1 PUSH4 0xC87B56DD EQ PUSH2 0x3C8 JUMPI DUP1 PUSH4 0xE985E9C5 EQ PUSH2 0x3F8 JUMPI DUP1 PUSH4 0xF2FDE38B EQ PUSH2 0x428 JUMPI PUSH2 0x140 JUMP JUMPDEST DUP1 PUSH4 0x6A627842 EQ PUSH2 0x2E0 JUMPI DUP1 PUSH4 0x70A08231 EQ PUSH2 0x2FC JUMPI DUP1 PUSH4 0x715018A6 EQ PUSH2 0x32C JUMPI DUP1 PUSH4 0x8DA5CB5B EQ PUSH2 0x336 JUMPI DUP1 PUSH4 0x95D89B41 EQ PUSH2 0x354 JUMPI PUSH2 0x140 JUMP JUMPDEST DUP1 PUSH4 0x23B872DD GT PUSH2 0x108 JUMPI DUP1 PUSH4 0x23B872DD EQ PUSH2 0x1FC JUMPI DUP1 PUSH4 0x2F745C59 EQ PUSH2 0x218 JUMPI DUP1 PUSH4 0x42842E0E EQ PUSH2 0x248 JUMPI DUP1 PUSH4 0x4F6CCCE7 EQ PUSH2 0x264 JUMPI DUP1 PUSH4 0x55F804B3 EQ PUSH2 0x294 JUMPI DUP1 PUSH4 0x6352211E EQ PUSH2 0x2B0 JUMPI PUSH2 0x140 JUMP JUMPDEST DUP1 PUSH4 0x1FFC9A7 EQ PUSH2 0x144 JUMPI DUP1 PUSH4 0x6FDDE03 EQ PUSH2 0x174 JUMPI DUP1 PUSH4 0x81812FC EQ PUSH2 0x192 JUMPI DUP1 PUSH4 0x95EA7B3 EQ PUSH2 0x1C2 JUMPI DUP1 PUSH4 0x18160DDD EQ PUSH2 0x1DE JUMPI JUMPDEST PUSH0 DUP1 REVERT JUMPDEST PUSH2 0x15E PUSH1 0x4 DUP1 CALLDATASIZE SUB DUP2 ADD SWAP1 PUSH2 0x159 SWAP2 SWAP1 PUSH2 0x1FBD JUMP JUMPDEST PUSH2 0x444 JUMP JUMPDEST PUSH1 0x40 MLOAD PUSH2 0x16B SWAP2 SWAP1 PUSH2 0x2002 JUMP JUMPDEST PUSH1 0x40 MLOAD DUP1 SWAP2 SUB SWAP1 RETURN JUMPDEST PUSH2 0x17C PUSH2 0x4BD JUMP JUMPDEST PUSH1 0x40 MLOAD PUSH2 0x189 SWAP2 SWAP1 PUSH2 0x208B JUMP JUMPDEST PUSH1 0x40 MLOAD DUP1 SWAP2 SUB SWAP1 RETURN JUMPDEST PUSH2 0x1AC PUSH1 0x4 DUP1 CALLDATASIZE SUB DUP2 ADD SWAP1 PUSH2 0x1A7 SWAP2 SWAP1 PUSH2 0x20DE JUMP JUMPDEST PUSH2 0x54C JUMP JUMPDEST PUSH1 0x40 MLOAD PUSH2 0x1B9 SWAP2 SWAP1 PUSH2 0x2148 JUMP JUMPDEST PUSH1 0x40 MLOAD DUP1 SWAP2 SUB SWAP1 RETURN JUMPDEST PUSH2 0x1DC PUSH1 0x4 DUP1 CALLDATASIZE SUB DUP2 ADD SWAP1 PUSH2 0x1D7 SWAP2 SWAP1 PUSH2 0x218B JUMP JUMPDEST PUSH2 0x58E JUMP JUMPDEST STOP JUMPDEST PUSH2 0x1E6 PUSH2 0x6A4 JUMP JUMPDEST PUSH1 0x40 MLOAD PUSH2 0x1F3 SWAP2 SWAP1 PUSH2 0x21D8 JUMP JUMPDEST PUSH1 0x40 MLOAD DUP1 SWAP2 SUB SWAP1 RETURN JUMPDEST PUSH2 0x216 PUSH1 0x4 DUP1 CALLDATASIZE SUB DUP2 ADD SWAP1 PUSH2 0x211 SWAP2 SWAP1 PUSH2 0x21F1 JUMP JUMPDEST PUSH2 0x6B0 JUMP JUMPDEST STOP JUMPDEST PUSH2 0x232 PUSH1 0x4 DUP1 CALLDATASIZE SUB DUP2 ADD SWAP1 PUSH2 0x22D SWAP2 SWAP1 PUSH2 0x218B JUMP JUMPDEST PUSH2 0x710 JUMP JUMPDEST PUSH1 0x40 MLOAD PUSH2 0x23F SWAP2 SWAP1 PUSH2 0x21D8 JUMP JUMPDEST PUSH1 0x40 MLOAD DUP1 SWAP2 SUB SWAP1 RETURN JUMPDEST PUSH2 0x262 PUSH1 0x4 DUP1 CALLDATASIZE SUB DUP2 ADD SWAP1 PUSH2 0x25D SWAP2 SWAP1 PUSH2 0x21F1 JUMP JUMPDEST PUSH2 0x7B0 JUMP JUMPDEST STOP JUMPDEST PUSH2 0x27E PUSH1 0x4 DUP1 CALLDATASIZE SUB DUP2 ADD SWAP1 PUSH2 0x279 SWAP2 SWAP1 PUSH2 0x20DE JUMP JUMPDEST PUSH2 0x7CF JUMP JUMPDEST PUSH1 0x40 MLOAD PUSH2 0x28B SWAP2 SWAP1 PUSH2 0x21D8 JUMP JUMPDEST PUSH1 0x40 MLOAD DUP1 SWAP2 SUB SWAP1 RETURN JUMPDEST PUSH2 0x2AE PUSH1 0x4 DUP1 CALLDATASIZE SUB DUP2 ADD SWAP1 PUSH2 0x2A9 SWAP2 SWAP1 PUSH2 0x236D JUMP JUMPDEST PUSH2 0x83D JUMP JUMPDEST STOP JUMPDEST PUSH2 0x2CA PUSH1 0x4 DUP1 CALLDATASIZE SUB DUP2 ADD SWAP1 PUSH2 0x2C5 SWAP2 SWAP1 PUSH2 0x20DE JUMP JUMPDEST PUSH2 0x858 JUMP JUMPDEST PUSH1 0x40 MLOAD PUSH2 0x2D7 SWAP2 SWAP1 PUSH2 0x2148 JUMP JUMPDEST PUSH1 0x40 MLOAD DUP1 SWAP2 SUB SWAP1 RETURN JUMPDEST PUSH2 0x2FA PUSH1 0x4 DUP1 CALLDATASIZE SUB DUP2 ADD SWAP1 PUSH2 0x2F5 SWAP2 SWAP1 PUSH2 0x23B4 JUMP JUMPDEST PUSH2 0x8DC JUMP JUMPDEST STOP JUMPDEST PUSH2 0x316 PUSH1 0x4 DUP1 CALLDATASIZE SUB DUP2 ADD SWAP1 PUSH2 0x311 SWAP2 SWAP1 PUSH2 0x23B4 JUMP JUMPDEST PUSH2 0x90A JUMP JUMPDEST PUSH1 0x40 MLOAD PUSH2 0x323 SWAP2 SWAP1 PUSH2 0x21D8 JUMP JUMPDEST PUSH1 0x40 MLOAD DUP1 SWAP2 SUB SWAP1 RETURN JUMPDEST PUSH2 0x334 PUSH2 0x9BE JUMP JUMPDEST STOP JUMPDEST PUSH2 0x33E PUSH2 0x9D1 JUMP JUMPDEST PUSH1 0x40 MLOAD PUSH2 0x34B SWAP2 SWAP1 PUSH2 0x2148 JUMP JUMPDEST PUSH1 0x40 MLOAD DUP1 SWAP2 SUB SWAP1 RETURN JUMPDEST PUSH2 0x35C PUSH2 0x9F9 JUMP JUMPDEST PUSH1 0x40 MLOAD PUSH2 0x369 SWAP2 SWAP1 PUSH2 0x208B JUMP JUMPDEST PUSH1 0x40 MLOAD DUP1 SWAP2 SUB SWAP1 RETURN JUMPDEST PUSH2 0x37A PUSH2 0xA89 JUMP JUMPDEST PUSH1 0x40 MLOAD PUSH2 0x387 SWAP2 SWAP1 PUSH2 0x21D8 JUMP JUMPDEST PUSH1 0x40 MLOAD DUP1 SWAP2 SUB SWAP1 RETURN JUMPDEST PUSH2 0x3AA PUSH1 0x4 DUP1 CALLDATASIZE SUB DUP2 ADD SWAP1 PUSH2 0x3A5 SWAP2 SWAP1 PUSH2 0x2409 JUMP JUMPDEST PUSH2 0xA8F JUMP JUMPDEST STOP JUMPDEST PUSH2 0x3C6 PUSH1 0x4 DUP1 CALLDATASIZE SUB DUP2 ADD SWAP1 PUSH2 0x3C1 SWAP2 SWAP1 PUSH2 0x24E5 JUMP JUMPDEST PUSH2 0xAA5 JUMP JUMPDEST STOP JUMPDEST PUSH2 0x3E2 PUSH1 0x4 DUP1 CALLDATASIZE SUB DUP2 ADD SWAP1 PUSH2 0x3DD SWAP2 SWAP1 PUSH2 0x20DE JUMP JUMPDEST PUSH2 0xB07 JUMP JUMPDEST PUSH1 0x40 MLOAD PUSH2 0x3EF SWAP2 SWAP1 PUSH2 0x208B JUMP JUMPDEST PUSH1 0x40 MLOAD DUP1 SWAP2 SUB SWAP1 RETURN JUMPDEST PUSH2 0x412 PUSH1 0x4 DUP1 CALLDATASIZE SUB DUP2 ADD SWAP1 PUSH2 0x40D SWAP2 SWAP1 PUSH2 0x2565 JUMP JUMPDEST PUSH2 0xB79 JUMP JUMPDEST PUSH1 0x40 MLOAD PUSH2 0x41F SWAP2 SWAP1 PUSH2 0x2002 JUMP JUMPDEST PUSH1 0x40 MLOAD DUP1 SWAP2 SUB SWAP1 RETURN JUMPDEST PUSH2 0x442 PUSH1 0x4 DUP1 CALLDATASIZE SUB DUP2 ADD SWAP1 PUSH2 0x43D SWAP2 SWAP1 PUSH2 0x23B4 JUMP JUMPDEST PUSH2 0xC07 JUMP JUMPDEST STOP JUMPDEST PUSH0 PUSH32 0x780E9D6300000000000000000000000000000000000000000000000000000000 PUSH28 0xFFFFFFFFFFFFFFFFFFFFFFFFFFFFFFFFFFFFFFFFFFFFFFFFFFFFFFFF NOT AND DUP3 PUSH28 0xFFFFFFFFFFFFFFFFFFFFFFFFFFFFFFFFFFFFFFFFFFFFFFFFFFFFFFFF NOT AND EQ DUP1 PUSH2 0x4B6 JUMPI POP PUSH2 0x4B5 DUP3 PUSH2 0xC89 JUMP JUMPDEST JUMPDEST SWAP1 POP SWAP2 SWAP1 POP JUMP JUMPDEST PUSH1 0x60 PUSH0 DUP1 SLOAD PUSH2 0x4CB SWAP1 PUSH2 0x25D0 JUMP JUMPDEST DUP1 PUSH1 0x1F ADD PUSH1 0x20 DUP1 SWAP2 DIV MUL PUSH1 0x20 ADD PUSH1 0x40 MLOAD SWAP1 DUP2 ADD PUSH1 0x40 MSTORE DUP1 SWAP3 SWAP2 SWAP1 DUP2 DUP2 MSTORE PUSH1 0x20 ADD DUP3 DUP1 SLOAD PUSH2 0x4F7 SWAP1 PUSH2 0x25D0 JUMP JUMPDEST DUP1 ISZERO PUSH2 0x542 JUMPI DUP1 PUSH1 0x1F LT PUSH2 0x519 JUMPI PUSH2 0x100 DUP1 DUP4 SLOAD DIV MUL DUP4 MSTORE SWAP2 PUSH1 0x20 ADD SWAP2 PUSH2 0x542 JUMP JUMPDEST DUP3 ADD SWAP2 SWAP1 PUSH0 MSTORE PUSH1 0x20 PUSH0 KECCAK256 SWAP1 JUMPDEST DUP2 SLOAD DUP2 MSTORE SWAP1 PUSH1 0x1 ADD SWAP1 PUSH1 0x20 ADD DUP1 DUP4 GT PUSH2 0x525 JUMPI DUP3 SWAP1 SUB PUSH1 0x1F AND DUP3 ADD SWAP2 JUMPDEST POP POP POP POP POP SWAP1 POP SWAP1 JUMP JUMPDEST PUSH0 PUSH2 0x556 DUP3 PUSH2 0xD6A JUMP JUMPDEST PUSH1 0x4 PUSH0 DUP4 DUP2 MSTORE PUSH1 0x20 ADD SWAP1 DUP2 MSTORE PUSH1 0x20 ADD PUSH0 KECCAK256 PUSH0 SWAP1 SLOAD SWAP1 PUSH2 0x100 EXP SWAP1 DIV PUSH20 0xFFFFFFFFFFFFFFFFFFFFFFFFFFFFFFFFFFFFFFFF AND SWAP1 POP SWAP2 SWAP1 POP JUMP JUMPDEST PUSH0 PUSH2 0x598 DUP3 PUSH2 0x858 JUMP JUMPDEST SWAP1 POP DUP1 PUSH20 0xFFFFFFFFFFFFFFFFFFFFFFFFFFFFFFFFFFFFFFFF AND DUP4 PUSH20 0xFFFFFFFFFFFFFFFFFFFFFFFFFFFFFFFFFFFFFFFF AND SUB PUSH2 0x608 JUMPI PUSH1 0x40 MLOAD PUSH32 0x8C379A000000000000000000000000000000000000000000000000000000000 DUP2 MSTORE PUSH1 0x4 ADD PUSH2 0x5FF SWAP1 PUSH2 0x2670 JUMP JUMPDEST PUSH1 0x40 MLOAD DUP1 SWAP2 SUB SWAP1 REVERT JUMPDEST DUP1 PUSH20 0xFFFFFFFFFFFFFFFFFFFFFFFFFFFFFFFFFFFFFFFF AND PUSH2 0x627 PUSH2 0xDB5 JUMP JUMPDEST PUSH20 0xFFFFFFFFFFFFFFFFFFFFFFFFFFFFFFFFFFFFFFFF AND EQ DUP1 PUSH2 0x656 JUMPI POP PUSH2 0x655 DUP2 PUSH2 0x650 PUSH2 0xDB5 JUMP JUMPDEST PUSH2 0xB79 JUMP JUMPDEST JUMPDEST PUSH2 0x695 JUMPI PUSH1 0x40 MLOAD PUSH32 0x8C379A000000000000000000000000000000000000000000000000000000000 DUP2 MSTORE PUSH1 0x4 ADD PUSH2 0x68C SWAP1 PUSH2 0x26FE JUMP JUMPDEST PUSH1 0x40 MLOAD DUP1 SWAP2 SUB SWAP1 REVERT JUMPDEST PUSH2 0x69F DUP4 DUP4 PUSH2 0xDBC JUMP JUMPDEST POP POP POP JUMP JUMPDEST PUSH0 PUSH1 0x8 DUP1 SLOAD SWAP1 POP SWAP1 POP SWAP1 JUMP JUMPDEST PUSH2 0x6C1 PUSH2 0x6BB PUSH2 0xDB5 JUMP JUMPDEST DUP3 PUSH2 0xE72 JUMP JUMPDEST PUSH2 0x700 JUMPI PUSH1 0x40 MLOAD PUSH32 0x8C379A000000000000000000000000000000000000000000000000000000000 DUP2 MSTORE PUSH1 0x4 ADD PUSH2 0x6F7 SWAP1 PUSH2 0x278C JUMP JUMPDEST PUSH1 0x40 MLOAD DUP1 SWAP2 SUB SWAP1 REVERT JUMPDEST PUSH2 0x70B DUP4 DUP4 DUP4 PUSH2 0xF06 JUMP JUMPDEST POP POP POP JUMP JUMPDEST PUSH0 PUSH2 0x71A DUP4 PUSH2 0x90A JUMP JUMPDEST DUP3 LT PUSH2 0x75B JUMPI PUSH1 0x40 MLOAD PUSH32 0x8C379A000000000000000000000000000000000000000000000000000000000 DUP2 MSTORE PUSH1 0x4 ADD PUSH2 0x752 SWAP1 PUSH2 0x281A JUMP JUMPDEST PUSH1 0x40 MLOAD DUP1 SWAP2 SUB SWAP1 REVERT JUMPDEST PUSH1 0x6 PUSH0 DUP5 PUSH20 0xFFFFFFFFFFFFFFFFFFFFFFFFFFFFFFFFFFFFFFFF AND PUSH20 0xFFFFFFFFFFFFFFFFFFFFFFFFFFFFFFFFFFFFFFFF AND DUP2 MSTORE PUSH1 0x20 ADD SWAP1 DUP2 MSTORE PUSH1 0x20 ADD PUSH0 KECCAK256 PUSH0 DUP4 DUP2 MSTORE PUSH1 0x20 ADD SWAP1 DUP2 MSTORE PUSH1 0x20 ADD PUSH0 KECCAK256 SLOAD SWAP1 POP SWAP3 SWAP2 POP POP JUMP JUMPDEST PUSH2 0x7CA DUP4 DUP4 DUP4 PUSH1 0x40 MLOAD DUP1 PUSH1 0x20 ADD PUSH1 0x40 MSTORE DUP1 PUSH0 DUP2 MSTORE POP PUSH2 0xAA5 JUMP JUMPDEST POP POP POP JUMP JUMPDEST PUSH0 PUSH2 0x7D8 PUSH2 0x6A4 JUMP JUMPDEST DUP3 LT PUSH2 0x819 JUMPI PUSH1 0x40 MLOAD PUSH32 0x8C379A000000000000000000000000000000000000000000000000000000000 DUP2 MSTORE PUSH1 0x4 ADD PUSH2 0x810 SWAP1 PUSH2 0x28A8 JUMP JUMPDEST PUSH1 0x40 MLOAD DUP1 SWAP2 SUB SWAP1 REVERT JUMPDEST PUSH1 0x8 DUP3 DUP2 SLOAD DUP2 LT PUSH2 0x82D JUMPI PUSH2 0x82C PUSH2 0x28C6 JUMP JUMPDEST JUMPDEST SWAP1 PUSH0 MSTORE PUSH1 0x20 PUSH0 KECCAK256 ADD SLOAD SWAP1 POP SWAP2 SWAP1 POP JUMP JUMPDEST PUSH2 0x845 PUSH2 0x11F2 JUMP JUMPDEST DUP1 PUSH1 0xC SWAP1 DUP2 PUSH2 0x854 SWAP2 SWAP1 PUSH2 0x2A90 JUMP JUMPDEST POP POP JUMP JUMPDEST PUSH0 DUP1 PUSH2 0x863 DUP4 PUSH2 0x1270 JUMP JUMPDEST SWAP1 POP PUSH0 PUSH20 0xFFFFFFFFFFFFFFFFFFFFFFFFFFFFFFFFFFFFFFFF AND DUP2 PUSH20 0xFFFFFFFFFFFFFFFFFFFFFFFFFFFFFFFFFFFFFFFF AND SUB PUSH2 0x8D3 JUMPI PUSH1 0x40 MLOAD PUSH32 0x8C379A000000000000000000000000000000000000000000000000000000000 DUP2 MSTORE PUSH1 0x4 ADD PUSH2 0x8CA SWAP1 PUSH2 0x2BA9 JUMP JUMPDEST PUSH1 0x40 MLOAD DUP1 SWAP2 SUB SWAP1 REVERT JUMPDEST DUP1 SWAP2 POP POP SWAP2 SWAP1 POP JUMP JUMPDEST PUSH2 0x8E4 PUSH2 0x11F2 JUMP JUMPDEST PUSH2 0x8F0 DUP2 PUSH1 0xB SLOAD PUSH2 0x12A9 JUMP JUMPDEST PUSH1 0xB PUSH0 DUP2 SLOAD DUP1 SWAP3 SWAP2 SWAP1 PUSH2 0x902 SWAP1 PUSH2 0x2BF4 JUMP JUMPDEST SWAP2 SWAP1 POP SSTORE POP POP JUMP JUMPDEST PUSH0 DUP1 PUSH20 0xFFFFFFFFFFFFFFFFFFFFFFFFFFFFFFFFFFFFFFFF AND DUP3 PUSH20 0xFFFFFFFFFFFFFFFFFFFFFFFFFFFFFFFFFFFFFFFF AND SUB PUSH2 0x979 JUMPI PUSH1 0x40 MLOAD PUSH32 0x8C379A000000000000000000000000000000000000000000000000000000000 DUP2 MSTORE PUSH1 0x4 ADD PUSH2 0x970 SWAP1 PUSH2 0x2CAB JUMP JUMPDEST PUSH1 0x40 MLOAD DUP1 SWAP2 SUB SWAP1 REVERT JUMPDEST PUSH1 0x3 PUSH0 DUP4 PUSH20 0xFFFFFFFFFFFFFFFFFFFFFFFFFFFFFFFFFFFFFFFF AND PUSH20 0xFFFFFFFFFFFFFFFFFFFFFFFFFFFFFFFFFFFFFFFF AND DUP2 MSTORE PUSH1 0x20 ADD SWAP1 DUP2 MSTORE PUSH1 0x20 ADD PUSH0 KECCAK256 SLOAD SWAP1 POP SWAP2 SWAP1 POP JUMP JUMPDEST PUSH2 0x9C6 PUSH2 0x11F2 JUMP JUMPDEST PUSH2 0x9CF PUSH0 PUSH2 0x12C6 JUMP JUMPDEST JUMP JUMPDEST PUSH0 PUSH1 0xA PUSH0 SWAP1 SLOAD SWAP1 PUSH2 0x100 EXP SWAP1 DIV PUSH20 0xFFFFFFFFFFFFFFFFFFFFFFFFFFFFFFFFFFFFFFFF AND SWAP1 POP SWAP1 JUMP JUMPDEST PUSH1 0x60 PUSH1 0x1 DUP1 SLOAD PUSH2 0xA08 SWAP1 PUSH2 0x25D0 JUMP JUMPDEST DUP1 PUSH1 0x1F ADD PUSH1 0x20 DUP1 SWAP2 DIV MUL PUSH1 0x20 ADD PUSH1 0x40 MLOAD SWAP1 DUP2 ADD PUSH1 0x40 MSTORE DUP1 SWAP3 SWAP2 SWAP1 DUP2 DUP2 MSTORE PUSH1 0x20 ADD DUP3 DUP1 SLOAD PUSH2 0xA34 SWAP1 PUSH2 0x25D0 JUMP JUMPDEST DUP1 ISZERO PUSH2 0xA7F JUMPI DUP1 PUSH1 0x1F LT PUSH2 0xA56 JUMPI PUSH2 0x100 DUP1 DUP4 SLOAD DIV MUL DUP4 MSTORE SWAP2 PUSH1 0x20 ADD SWAP2 PUSH2 0xA7F JUMP JUMPDEST DUP3 ADD SWAP2 SWAP1 PUSH0 MSTORE PUSH1 0x20 PUSH0 KECCAK256 SWAP1 JUMPDEST DUP2 SLOAD DUP2 MSTORE SWAP1 PUSH1 0x1 ADD SWAP1 PUSH1 0x20 ADD DUP1 DUP4 GT PUSH2 0xA62 JUMPI DUP3 SWAP1 SUB PUSH1 0x1F AND DUP3 ADD SWAP2 JUMPDEST POP POP POP POP POP SWAP1 POP SWAP1 JUMP JUMPDEST PUSH1 0xB SLOAD DUP2 JUMP JUMPDEST PUSH2 0xAA1 PUSH2 0xA9A PUSH2 0xDB5 JUMP JUMPDEST DUP4 DUP4 PUSH2 0x1389 JUMP JUMPDEST POP POP JUMP JUMPDEST PUSH2 0xAB6 PUSH2 0xAB0 PUSH2 0xDB5 JUMP JUMPDEST DUP4 PUSH2 0xE72 JUMP JUMPDEST PUSH2 0xAF5 JUMPI PUSH1 0x40 MLOAD PUSH32 0x8C379A000000000000000000000000000000000000000000000000000000000 DUP2 MSTORE PUSH1 0x4 ADD PUSH2 0xAEC SWAP1 PUSH2 0x278C JUMP JUMPDEST PUSH1 0x40 MLOAD DUP1 SWAP2 SUB SWAP1 REVERT JUMPDEST PUSH2 0xB01 DUP5 DUP5 DUP5 DUP5 PUSH2 0x14F0 JUMP JUMPDEST POP POP POP POP JUMP JUMPDEST PUSH1 0x60 PUSH2 0xB12 DUP3 PUSH2 0x154C JUMP JUMPDEST PUSH2 0xB51 JUMPI PUSH1 0x40 MLOAD PUSH32 0x8C379A000000000000000000000000000000000000000000000000000000000 DUP2 MSTORE PUSH1 0x4 ADD PUSH2 0xB48 SWAP1 PUSH2 0x2D13 JUMP JUMPDEST PUSH1 0x40 MLOAD DUP1 SWAP2 SUB SWAP1 REVERT JUMPDEST PUSH1 0xC PUSH1 0x40 MLOAD PUSH1 0x20 ADD PUSH2 0xB63 SWAP2 SWAP1 PUSH2 0x2DBB JUMP JUMPDEST PUSH1 0x40 MLOAD PUSH1 0x20 DUP2 DUP4 SUB SUB DUP2 MSTORE SWAP1 PUSH1 0x40 MSTORE SWAP1 POP SWAP2 SWAP1 POP JUMP JUMPDEST PUSH0 PUSH1 0x5 PUSH0 DUP5 PUSH20 0xFFFFFFFFFFFFFFFFFFFFFFFFFFFFFFFFFFFFFFFF AND PUSH20 0xFFFFFFFFFFFFFFFFFFFFFFFFFFFFFFFFFFFFFFFF AND DUP2 MSTORE PUSH1 0x20 ADD SWAP1 DUP2 MSTORE PUSH1 0x20 ADD PUSH0 KECCAK256 PUSH0 DUP4 PUSH20 0xFFFFFFFFFFFFFFFFFFFFFFFFFFFFFFFFFFFFFFFF AND PUSH20 0xFFFFFFFFFFFFFFFFFFFFFFFFFFFFFFFFFFFFFFFF AND DUP2 MSTORE PUSH1 0x20 ADD SWAP1 DUP2 MSTORE PUSH1 0x20 ADD PUSH0 KECCAK256 PUSH0 SWAP1 SLOAD SWAP1 PUSH2 0x100 EXP SWAP1 DIV PUSH1 0xFF AND SWAP1 POP SWAP3 SWAP2 POP POP JUMP JUMPDEST PUSH2 0xC0F PUSH2 0x11F2 JUMP JUMPDEST PUSH0 PUSH20 0xFFFFFFFFFFFFFFFFFFFFFFFFFFFFFFFFFFFFFFFF AND DUP2 PUSH20 0xFFFFFFFFFFFFFFFFFFFFFFFFFFFFFFFFFFFFFFFF AND SUB PUSH2 0xC7D JUMPI PUSH1 0x40 MLOAD PUSH32 0x8C379A000000000000000000000000000000000000000000000000000000000 DUP2 MSTORE PUSH1 0x4 ADD PUSH2 0xC74 SWAP1 PUSH2 0x2E41 JUMP JUMPDEST PUSH1 0x40 MLOAD DUP1 SWAP2 SUB SWAP1 REVERT JUMPDEST PUSH2 0xC86 DUP2 PUSH2 0x12C6 JUMP JUMPDEST POP JUMP JUMPDEST PUSH0 PUSH32 0x80AC58CD00000000000000000000000000000000000000000000000000000000 PUSH28 0xFFFFFFFFFFFFFFFFFFFFFFFFFFFFFFFFFFFFFFFFFFFFFFFFFFFFFFFF NOT AND DUP3 PUSH28 0xFFFFFFFFFFFFFFFFFFFFFFFFFFFFFFFFFFFFFFFFFFFFFFFFFFFFFFFF NOT AND EQ DUP1 PUSH2 0xD53 JUMPI POP PUSH32 0x5B5E139F00000000000000000000000000000000000000000000000000000000 PUSH28 0xFFFFFFFFFFFFFFFFFFFFFFFFFFFFFFFFFFFFFFFFFFFFFFFFFFFFFFFF NOT AND DUP3 PUSH28 0xFFFFFFFFFFFFFFFFFFFFFFFFFFFFFFFFFFFFFFFFFFFFFFFFFFFFFFFF NOT AND EQ JUMPDEST DUP1 PUSH2 0xD63 JUMPI POP PUSH2 0xD62 DUP3 PUSH2 0x158C JUMP JUMPDEST JUMPDEST SWAP1 POP SWAP2 SWAP1 POP JUMP JUMPDEST PUSH2 0xD73 DUP2 PUSH2 0x154C JUMP JUMPDEST PUSH2 0xDB2 JUMPI PUSH1 0x40 MLOAD PUSH32 0x8C379A000000000000000000000000000000000000000000000000000000000 DUP2 MSTORE PUSH1 0x4 ADD PUSH2 0xDA9 SWAP1 PUSH2 0x2BA9 JUMP JUMPDEST PUSH1 0x40 MLOAD DUP1 SWAP2 SUB SWAP1 REVERT JUMPDEST POP JUMP JUMPDEST PUSH0 CALLER SWAP1 POP SWAP1 JUMP JUMPDEST DUP2 PUSH1 0x4 PUSH0 DUP4 DUP2 MSTORE PUSH1 0x20 ADD SWAP1 DUP2 MSTORE PUSH1 0x20 ADD PUSH0 KECCAK256 PUSH0 PUSH2 0x100 EXP DUP2 SLOAD DUP2 PUSH20 0xFFFFFFFFFFFFFFFFFFFFFFFFFFFFFFFFFFFFFFFF MUL NOT AND SWAP1 DUP4 PUSH20 0xFFFFFFFFFFFFFFFFFFFFFFFFFFFFFFFFFFFFFFFF AND MUL OR SWAP1 SSTORE POP DUP1 DUP3 PUSH20 0xFFFFFFFFFFFFFFFFFFFFFFFFFFFFFFFFFFFFFFFF AND PUSH2 0xE2C DUP4 PUSH2 0x858 JUMP JUMPDEST PUSH20 0xFFFFFFFFFFFFFFFFFFFFFFFFFFFFFFFFFFFFFFFF AND PUSH32 0x8C5BE1E5EBEC7D5BD14F71427D1E84F3DD0314C0F7B2291E5B200AC8C7C3B925 PUSH1 0x40 MLOAD PUSH1 0x40 MLOAD DUP1 SWAP2 SUB SWAP1 LOG4 POP POP JUMP JUMPDEST PUSH0 DUP1 PUSH2 0xE7D DUP4 PUSH2 0x858 JUMP JUMPDEST SWAP1 POP DUP1 PUSH20 0xFFFFFFFFFFFFFFFFFFFFFFFFFFFFFFFFFFFFFFFF AND DUP5 PUSH20 0xFFFFFFFFFFFFFFFFFFFFFFFFFFFFFFFFFFFFFFFF AND EQ DUP1 PUSH2 0xEBF JUMPI POP PUSH2 0xEBE DUP2 DUP6 PUSH2 0xB79 JUMP JUMPDEST JUMPDEST DUP1 PUSH2 0xEFD JUMPI POP DUP4 PUSH20 0xFFFFFFFFFFFFFFFFFFFFFFFFFFFFFFFFFFFFFFFF AND PUSH2 0xEE5 DUP5 PUSH2 0x54C JUMP JUMPDEST PUSH20 0xFFFFFFFFFFFFFFFFFFFFFFFFFFFFFFFFFFFFFFFF AND EQ JUMPDEST SWAP2 POP POP SWAP3 SWAP2 POP POP JUMP JUMPDEST DUP3 PUSH20 0xFFFFFFFFFFFFFFFFFFFFFFFFFFFFFFFFFFFFFFFF AND PUSH2 0xF26 DUP3 PUSH2 0x858 JUMP JUMPDEST PUSH20 0xFFFFFFFFFFFFFFFFFFFFFFFFFFFFFFFFFFFFFFFF AND EQ PUSH2 0xF7C JUMPI PUSH1 0x40 MLOAD PUSH32 0x8C379A000000000000000000000000000000000000000000000000000000000 DUP2 MSTORE PUSH1 0x4 ADD PUSH2 0xF73 SWAP1 PUSH2 0x2ECF JUMP JUMPDEST PUSH1 0x40 MLOAD DUP1 SWAP2 SUB SWAP1 REVERT JUMPDEST PUSH0 PUSH20 0xFFFFFFFFFFFFFFFFFFFFFFFFFFFFFFFFFFFFFFFF AND DUP3 PUSH20 0xFFFFFFFFFFFFFFFFFFFFFFFFFFFFFFFFFFFFFFFF AND SUB PUSH2 0xFEA JUMPI PUSH1 0x40 MLOAD PUSH32 0x8C379A000000000000000000000000000000000000000000000000000000000 DUP2 MSTORE PUSH1 0x4 ADD PUSH2 0xFE1 SWAP1 PUSH2 0x2F5D JUMP JUMPDEST PUSH1 0x40 MLOAD DUP1 SWAP2 SUB SWAP1 REVERT JUMPDEST PUSH2 0xFF7 DUP4 DUP4 DUP4 PUSH1 0x1 PUSH2 0x15F5 JUMP JUMPDEST DUP3 PUSH20 0xFFFFFFFFFFFFFFFFFFFFFFFFFFFFFFFFFFFFFFFF AND PUSH2 0x1017 DUP3 PUSH2 0x858 JUMP JUMPDEST PUSH20 0xFFFFFFFFFFFFFFFFFFFFFFFFFFFFFFFFFFFFFFFF AND EQ PUSH2 0x106D JUMPI PUSH1 0x40 MLOAD PUSH32 0x8C379A000000000000000000000000000000000000000000000000000000000 DUP2 MSTORE PUSH1 0x4 ADD PUSH2 0x1064 SWAP1 PUSH2 0x2ECF JUMP JUMPDEST PUSH1 0x40 MLOAD DUP1 SWAP2 SUB SWAP1 REVERT JUMPDEST PUSH1 0x4 PUSH0 DUP3 DUP2 MSTORE PUSH1 0x20 ADD SWAP1 DUP2 MSTORE PUSH1 0x20 ADD PUSH0 KECCAK256 PUSH0 PUSH2 0x100 EXP DUP2 SLOAD SWAP1 PUSH20 0xFFFFFFFFFFFFFFFFFFFFFFFFFFFFFFFFFFFFFFFF MUL NOT AND SWAP1 SSTORE PUSH1 0x1 PUSH1 0x3 PUSH0 DUP6 PUSH20 0xFFFFFFFFFFFFFFFFFFFFFFFFFFFFFFFFFFFFFFFF AND PUSH20 0xFFFFFFFFFFFFFFFFFFFFFFFFFFFFFFFFFFFFFFFF AND DUP2 MSTORE PUSH1 0x20 ADD SWAP1 DUP2 MSTORE PUSH1 0x20 ADD PUSH0 KECCAK256 PUSH0 DUP3 DUP3 SLOAD SUB SWAP3 POP POP DUP2 SWAP1 SSTORE POP PUSH1 0x1 PUSH1 0x3 PUSH0 DUP5 PUSH20 0xFFFFFFFFFFFFFFFFFFFFFFFFFFFFFFFFFFFFFFFF AND PUSH20 0xFFFFFFFFFFFFFFFFFFFFFFFFFFFFFFFFFFFFFFFF AND DUP2 MSTORE PUSH1 0x20 ADD SWAP1 DUP2 MSTORE PUSH1 0x20 ADD PUSH0 KECCAK256 PUSH0 DUP3 DUP3 SLOAD ADD SWAP3 POP POP DUP2 SWAP1 SSTORE POP DUP2 PUSH1 0x2 PUSH0 DUP4 DUP2 MSTORE PUSH1 0x20 ADD SWAP1 DUP2 MSTORE PUSH1 0x20 ADD PUSH0 KECCAK256 PUSH0 PUSH2 0x100 EXP DUP2 SLOAD DUP2 PUSH20 0xFFFFFFFFFFFFFFFFFFFFFFFFFFFFFFFFFFFFFFFF MUL NOT AND SWAP1 DUP4 PUSH20 0xFFFFFFFFFFFFFFFFFFFFFFFFFFFFFFFFFFFFFFFF AND MUL OR SWAP1 SSTORE POP DUP1 DUP3 PUSH20 0xFFFFFFFFFFFFFFFFFFFFFFFFFFFFFFFFFFFFFFFF AND DUP5 PUSH20 0xFFFFFFFFFFFFFFFFFFFFFFFFFFFFFFFFFFFFFFFF AND PUSH32 0xDDF252AD1BE2C89B69C2B068FC378DAA952BA7F163C4A11628F55A4DF523B3EF PUSH1 0x40 MLOAD PUSH1 0x40 MLOAD DUP1 SWAP2 SUB SWAP1 LOG4 PUSH2 0x11ED DUP4 DUP4 DUP4 PUSH1 0x1 PUSH2 0x1750 JUMP JUMPDEST POP POP POP JUMP JUMPDEST PUSH2 0x11FA PUSH2 0xDB5 JUMP JUMPDEST PUSH20 0xFFFFFFFFFFFFFFFFFFFFFFFFFFFFFFFFFFFFFFFF AND PUSH2 0x1218 PUSH2 0x9D1 JUMP JUMPDEST PUSH20 0xFFFFFFFFFFFFFFFFFFFFFFFFFFFFFFFFFFFFFFFF AND EQ PUSH2 0x126E JUMPI PUSH1 0x40 MLOAD PUSH32 0x8C379A000000000000000000000000000000000000000000000000000000000 DUP2 MSTORE PUSH1 0x4 ADD PUSH2 0x1265 SWAP1 PUSH2 0x2FC5 JUMP JUMPDEST PUSH1 0x40 MLOAD DUP1 SWAP2 SUB SWAP1 REVERT JUMPDEST JUMP JUMPDEST PUSH0 PUSH1 0x2 PUSH0 DUP4 DUP2 MSTORE PUSH1 0x20 ADD SWAP1 DUP2 MSTORE PUSH1 0x20 ADD PUSH0 KECCAK256 PUSH0 SWAP1 SLOAD SWAP1 PUSH2 0x100 EXP SWAP1 DIV PUSH20 0xFFFFFFFFFFFFFFFFFFFFFFFFFFFFFFFFFFFFFFFF AND SWAP1 POP SWAP2 SWAP1 POP JUMP JUMPDEST PUSH2 0x12C2 DUP3 DUP3 PUSH1 0x40 MLOAD DUP1 PUSH1 0x20 ADD PUSH1 0x40 MSTORE DUP1 PUSH0 DUP2 MSTORE POP PUSH2 0x1756 JUMP JUMPDEST POP POP JUMP JUMPDEST PUSH0 PUSH1 0xA PUSH0 SWAP1 SLOAD SWAP1 PUSH2 0x100 EXP SWAP1 DIV PUSH20 0xFFFFFFFFFFFFFFFFFFFFFFFFFFFFFFFFFFFFFFFF AND SWAP1 POP DUP2 PUSH1 0xA PUSH0 PUSH2 0x100 EXP DUP2 SLOAD DUP2 PUSH20 0xFFFFFFFFFFFFFFFFFFFFFFFFFFFFFFFFFFFFFFFF MUL NOT AND SWAP1 DUP4 PUSH20 0xFFFFFFFFFFFFFFFFFFFFFFFFFFFFFFFFFFFFFFFF AND MUL OR SWAP1 SSTORE POP DUP2 PUSH20 0xFFFFFFFFFFFFFFFFFFFFFFFFFFFFFFFFFFFFFFFF AND DUP2 PUSH20 0xFFFFFFFFFFFFFFFFFFFFFFFFFFFFFFFFFFFFFFFF AND PUSH32 0x8BE0079C531659141344CD1FD0A4F28419497F9722A3DAAFE3B4186F6B6457E0 PUSH1 0x40 MLOAD PUSH1 0x40 MLOAD DUP1 SWAP2 SUB SWAP1 LOG3 POP POP JUMP JUMPDEST DUP2 PUSH20 0xFFFFFFFFFFFFFFFFFFFFFFFFFFFFFFFFFFFFFFFF AND DUP4 PUSH20 0xFFFFFFFFFFFFFFFFFFFFFFFFFFFFFFFFFFFFFFFF AND SUB PUSH2 0x13F7 JUMPI PUSH1 0x40 MLOAD PUSH32 0x8C379A000000000000000000000000000000000000000000000000000000000 DUP2 MSTORE PUSH1 0x4 ADD PUSH2 0x13EE SWAP1 PUSH2 0x302D JUMP JUMPDEST PUSH1 0x40 MLOAD DUP1 SWAP2 SUB SWAP1 REVERT JUMPDEST DUP1 PUSH1 0x5 PUSH0 DUP6 PUSH20 0xFFFFFFFFFFFFFFFFFFFFFFFFFFFFFFFFFFFFFFFF AND PUSH20 0xFFFFFFFFFFFFFFFFFFFFFFFFFFFFFFFFFFFFFFFF AND DUP2 MSTORE PUSH1 0x20 ADD SWAP1 DUP2 MSTORE PUSH1 0x20 ADD PUSH0 KECCAK256 PUSH0 DUP5 PUSH20 0xFFFFFFFFFFFFFFFFFFFFFFFFFFFFFFFFFFFFFFFF AND PUSH20 0xFFFFFFFFFFFFFFFFFFFFFFFFFFFFFFFFFFFFFFFF AND DUP2 MSTORE PUSH1 0x20 ADD SWAP1 DUP2 MSTORE PUSH1 0x20 ADD PUSH0 KECCAK256 PUSH0 PUSH2 0x100 EXP DUP2 SLOAD DUP2 PUSH1 0xFF MUL NOT AND SWAP1 DUP4 ISZERO ISZERO MUL OR SWAP1 SSTORE POP DUP2 PUSH20 0xFFFFFFFFFFFFFFFFFFFFFFFFFFFFFFFFFFFFFFFF AND DUP4 PUSH20 0xFFFFFFFFFFFFFFFFFFFFFFFFFFFFFFFFFFFFFFFF AND PUSH32 0x17307EAB39AB6107E8899845AD3D59BD9653F200F220920489CA2B5937696C31 DUP4 PUSH1 0x40 MLOAD PUSH2 0x14E3 SWAP2 SWAP1 PUSH2 0x2002 JUMP JUMPDEST PUSH1 0x40 MLOAD DUP1 SWAP2 SUB SWAP1 LOG3 POP POP POP JUMP JUMPDEST PUSH2 0x14FB DUP5 DUP5 DUP5 PUSH2 0xF06 JUMP JUMPDEST PUSH2 0x1507 DUP5 DUP5 DUP5 DUP5 PUSH2 0x17B0 JUMP JUMPDEST PUSH2 0x1546 JUMPI PUSH1 0x40 MLOAD PUSH32 0x8C379A000000000000000000000000000000000000000000000000000000000 DUP2 MSTORE PUSH1 0x4 ADD PUSH2 0x153D SWAP1 PUSH2 0x30BB JUMP JUMPDEST PUSH1 0x40 MLOAD DUP1 SWAP2 SUB SWAP1 REVERT JUMPDEST POP POP POP POP JUMP JUMPDEST PUSH0 DUP1 PUSH20 0xFFFFFFFFFFFFFFFFFFFFFFFFFFFFFFFFFFFFFFFF AND PUSH2 0x156D DUP4 PUSH2 0x1270 JUMP JUMPDEST PUSH20 0xFFFFFFFFFFFFFFFFFFFFFFFFFFFFFFFFFFFFFFFF AND EQ ISZERO SWAP1 POP SWAP2 SWAP1 POP JUMP JUMPDEST PUSH0 PUSH32 0x1FFC9A700000000000000000000000000000000000000000000000000000000 PUSH28 0xFFFFFFFFFFFFFFFFFFFFFFFFFFFFFFFFFFFFFFFFFFFFFFFFFFFFFFFF NOT AND DUP3 PUSH28 0xFFFFFFFFFFFFFFFFFFFFFFFFFFFFFFFFFFFFFFFFFFFFFFFFFFFFFFFF NOT AND EQ SWAP1 POP SWAP2 SWAP1 POP JUMP JUMPDEST PUSH2 0x1601 DUP5 DUP5 DUP5 DUP5 PUSH2 0x1932 JUMP JUMPDEST PUSH1 0x1 DUP2 GT ISZERO PUSH2 0x1645 JUMPI PUSH1 0x40 MLOAD PUSH32 0x8C379A000000000000000000000000000000000000000000000000000000000 DUP2 MSTORE PUSH1 0x4 ADD PUSH2 0x163C SWAP1 PUSH2 0x3149 JUMP JUMPDEST PUSH1 0x40 MLOAD DUP1 SWAP2 SUB SWAP1 REVERT JUMPDEST PUSH0 DUP3 SWAP1 POP PUSH0 PUSH20 0xFFFFFFFFFFFFFFFFFFFFFFFFFFFFFFFFFFFFFFFF AND DUP6 PUSH20 0xFFFFFFFFFFFFFFFFFFFFFFFFFFFFFFFFFFFFFFFF AND SUB PUSH2 0x168A JUMPI PUSH2 0x1685 DUP2 PUSH2 0x1A50 JUMP JUMPDEST PUSH2 0x16C9 JUMP JUMPDEST DUP4 PUSH20 0xFFFFFFFFFFFFFFFFFFFFFFFFFFFFFFFFFFFFFFFF AND DUP6 PUSH20 0xFFFFFFFFFFFFFFFFFFFFFFFFFFFFFFFFFFFFFFFF AND EQ PUSH2 0x16C8 JUMPI PUSH2 0x16C7 DUP6 DUP3 PUSH2 0x1A94 JUMP JUMPDEST JUMPDEST JUMPDEST PUSH0 PUSH20 0xFFFFFFFFFFFFFFFFFFFFFFFFFFFFFFFFFFFFFFFF AND DUP5 PUSH20 0xFFFFFFFFFFFFFFFFFFFFFFFFFFFFFFFFFFFFFFFF AND SUB PUSH2 0x170A JUMPI PUSH2 0x1705 DUP2 PUSH2 0x1BEA JUMP JUMPDEST PUSH2 0x1749 JUMP JUMPDEST DUP5 PUSH20 0xFFFFFFFFFFFFFFFFFFFFFFFFFFFFFFFFFFFFFFFF AND DUP5 PUSH20 0xFFFFFFFFFFFFFFFFFFFFFFFFFFFFFFFFFFFFFFFF AND EQ PUSH2 0x1748 JUMPI PUSH2 0x1747 DUP5 DUP3 PUSH2 0x1CAA JUMP JUMPDEST JUMPDEST JUMPDEST POP POP POP POP POP JUMP JUMPDEST POP POP POP POP JUMP JUMPDEST PUSH2 0x1760 DUP4 DUP4 PUSH2 0x1D22 JUMP JUMPDEST PUSH2 0x176C PUSH0 DUP5 DUP5 DUP5 PUSH2 0x17B0 JUMP JUMPDEST PUSH2 0x17AB JUMPI PUSH1 0x40 MLOAD PUSH32 0x8C379A000000000000000000000000000000000000000000000000000000000 DUP2 MSTORE PUSH1 0x4 ADD PUSH2 0x17A2 SWAP1 PUSH2 0x30BB JUMP JUMPDEST PUSH1 0x40 MLOAD DUP1 SWAP2 SUB SWAP1 REVERT JUMPDEST POP POP POP JUMP JUMPDEST PUSH0 PUSH2 0x17D0 DUP5 PUSH20 0xFFFFFFFFFFFFFFFFFFFFFFFFFFFFFFFFFFFFFFFF AND PUSH2 0x1F35 JUMP JUMPDEST ISZERO PUSH2 0x1925 JUMPI DUP4 PUSH20 0xFFFFFFFFFFFFFFFFFFFFFFFFFFFFFFFFFFFFFFFF AND PUSH4 0x150B7A02 PUSH2 0x17F9 PUSH2 0xDB5 JUMP JUMPDEST DUP8 DUP7 DUP7 PUSH1 0x40 MLOAD DUP6 PUSH4 0xFFFFFFFF AND PUSH1 0xE0 SHL DUP2 MSTORE PUSH1 0x4 ADD PUSH2 0x181B SWAP5 SWAP4 SWAP3 SWAP2 SWAP1 PUSH2 0x31B9 JUMP JUMPDEST PUSH1 0x20 PUSH1 0x40 MLOAD DUP1 DUP4 SUB DUP2 PUSH0 DUP8 GAS CALL SWAP3 POP POP POP DUP1 ISZERO PUSH2 0x1856 JUMPI POP PUSH1 0x40 MLOAD RETURNDATASIZE PUSH1 0x1F NOT PUSH1 0x1F DUP3 ADD AND DUP3 ADD DUP1 PUSH1 0x40 MSTORE POP DUP2 ADD SWAP1 PUSH2 0x1853 SWAP2 SWAP1 PUSH2 0x3217 JUMP JUMPDEST PUSH1 0x1 JUMPDEST PUSH2 0x18D5 JUMPI RETURNDATASIZE DUP1 PUSH0 DUP2 EQ PUSH2 0x1884 JUMPI PUSH1 0x40 MLOAD SWAP2 POP PUSH1 0x1F NOT PUSH1 0x3F RETURNDATASIZE ADD AND DUP3 ADD PUSH1 0x40 MSTORE RETURNDATASIZE DUP3 MSTORE RETURNDATASIZE PUSH0 PUSH1 0x20 DUP5 ADD RETURNDATACOPY PUSH2 0x1889 JUMP JUMPDEST PUSH1 0x60 SWAP2 POP JUMPDEST POP PUSH0 DUP2 MLOAD SUB PUSH2 0x18CD JUMPI PUSH1 0x40 MLOAD PUSH32 0x8C379A000000000000000000000000000000000000000000000000000000000 DUP2 MSTORE PUSH1 0x4 ADD PUSH2 0x18C4 SWAP1 PUSH2 0x30BB JUMP JUMPDEST PUSH1 0x40 MLOAD DUP1 SWAP2 SUB SWAP1 REVERT JUMPDEST DUP1 MLOAD DUP2 PUSH1 0x20 ADD REVERT JUMPDEST PUSH4 0x150B7A02 PUSH1 0xE0 SHL PUSH28 0xFFFFFFFFFFFFFFFFFFFFFFFFFFFFFFFFFFFFFFFFFFFFFFFFFFFFFFFF NOT AND DUP2 PUSH28 0xFFFFFFFFFFFFFFFFFFFFFFFFFFFFFFFFFFFFFFFFFFFFFFFFFFFFFFFF NOT AND EQ SWAP2 POP POP PUSH2 0x192A JUMP JUMPDEST PUSH1 0x1 SWAP1 POP JUMPDEST SWAP5 SWAP4 POP POP POP POP JUMP JUMPDEST PUSH1 0x1 DUP2 GT ISZERO PUSH2 0x1A4A JUMPI PUSH0 PUSH20 0xFFFFFFFFFFFFFFFFFFFFFFFFFFFFFFFFFFFFFFFF AND DUP5 PUSH20 0xFFFFFFFFFFFFFFFFFFFFFFFFFFFFFFFFFFFFFFFF AND EQ PUSH2 0x19C2 JUMPI DUP1 PUSH1 0x3 PUSH0 DUP7 PUSH20 0xFFFFFFFFFFFFFFFFFFFFFFFFFFFFFFFFFFFFFFFF AND PUSH20 0xFFFFFFFFFFFFFFFFFFFFFFFFFFFFFFFFFFFFFFFF AND DUP2 MSTORE PUSH1 0x20 ADD SWAP1 DUP2 MSTORE PUSH1 0x20 ADD PUSH0 KECCAK256 PUSH0 DUP3 DUP3 SLOAD PUSH2 0x19BA SWAP2 SWAP1 PUSH2 0x3242 JUMP JUMPDEST SWAP3 POP POP DUP2 SWAP1 SSTORE POP JUMPDEST PUSH0 PUSH20 0xFFFFFFFFFFFFFFFFFFFFFFFFFFFFFFFFFFFFFFFF AND DUP4 PUSH20 0xFFFFFFFFFFFFFFFFFFFFFFFFFFFFFFFFFFFFFFFF AND EQ PUSH2 0x1A49 JUMPI DUP1 PUSH1 0x3 PUSH0 DUP6 PUSH20 0xFFFFFFFFFFFFFFFFFFFFFFFFFFFFFFFFFFFFFFFF AND PUSH20 0xFFFFFFFFFFFFFFFFFFFFFFFFFFFFFFFFFFFFFFFF AND DUP2 MSTORE PUSH1 0x20 ADD SWAP1 DUP2 MSTORE PUSH1 0x20 ADD PUSH0 KECCAK256 PUSH0 DUP3 DUP3 SLOAD PUSH2 0x1A41 SWAP2 SWAP1 PUSH2 0x3275 JUMP JUMPDEST SWAP3 POP POP DUP2 SWAP1 SSTORE POP JUMPDEST JUMPDEST POP POP POP POP JUMP JUMPDEST PUSH1 0x8 DUP1 SLOAD SWAP1 POP PUSH1 0x9 PUSH0 DUP4 DUP2 MSTORE PUSH1 0x20 ADD SWAP1 DUP2 MSTORE PUSH1 0x20 ADD PUSH0 KECCAK256 DUP2 SWAP1 SSTORE POP PUSH1 0x8 DUP2 SWAP1 DUP1 PUSH1 0x1 DUP2 SLOAD ADD DUP1 DUP3 SSTORE DUP1 SWAP2 POP POP PUSH1 0x1 SWAP1 SUB SWAP1 PUSH0 MSTORE PUSH1 0x20 PUSH0 KECCAK256 ADD PUSH0 SWAP1 SWAP2 SWAP1 SWAP2 SWAP1 SWAP2 POP SSTORE POP JUMP JUMPDEST PUSH0 PUSH1 0x1 PUSH2 0x1AA0 DUP5 PUSH2 0x90A JUMP JUMPDEST PUSH2 0x1AAA SWAP2 SWAP1 PUSH2 0x3242 JUMP JUMPDEST SWAP1 POP PUSH0 PUSH1 0x7 PUSH0 DUP5 DUP2 MSTORE PUSH1 0x20 ADD SWAP1 DUP2 MSTORE PUSH1 0x20 ADD PUSH0 KECCAK256 SLOAD SWAP1 POP DUP2 DUP2 EQ PUSH2 0x1B81 JUMPI PUSH0 PUSH1 0x6 PUSH0 DUP7 PUSH20 0xFFFFFFFFFFFFFFFFFFFFFFFFFFFFFFFFFFFFFFFF AND PUSH20 0xFFFFFFFFFFFFFFFFFFFFFFFFFFFFFFFFFFFFFFFF AND DUP2 MSTORE PUSH1 0x20 ADD SWAP1 DUP2 MSTORE PUSH1 0x20 ADD PUSH0 KECCAK256 PUSH0 DUP5 DUP2 MSTORE PUSH1 0x20 ADD SWAP1 DUP2 MSTORE PUSH1 0x20 ADD PUSH0 KECCAK256 SLOAD SWAP1 POP DUP1 PUSH1 0x6 PUSH0 DUP8 PUSH20 0xFFFFFFFFFFFFFFFFFFFFFFFFFFFFFFFFFFFFFFFF AND PUSH20 0xFFFFFFFFFFFFFFFFFFFFFFFFFFFFFFFFFFFFFFFF AND DUP2 MSTORE PUSH1 0x20 ADD SWAP1 DUP2 MSTORE PUSH1 0x20 ADD PUSH0 KECCAK256 PUSH0 DUP5 DUP2 MSTORE PUSH1 0x20 ADD SWAP1 DUP2 MSTORE PUSH1 0x20 ADD PUSH0 KECCAK256 DUP2 SWAP1 SSTORE POP DUP2 PUSH1 0x7 PUSH0 DUP4 DUP2 MSTORE PUSH1 0x20 ADD SWAP1 DUP2 MSTORE PUSH1 0x20 ADD PUSH0 KECCAK256 DUP2 SWAP1 SSTORE POP POP JUMPDEST PUSH1 0x7 PUSH0 DUP5 DUP2 MSTORE PUSH1 0x20 ADD SWAP1 DUP2 MSTORE PUSH1 0x20 ADD PUSH0 KECCAK256 PUSH0 SWAP1 SSTORE PUSH1 0x6 PUSH0 DUP6 PUSH20 0xFFFFFFFFFFFFFFFFFFFFFFFFFFFFFFFFFFFFFFFF AND PUSH20 0xFFFFFFFFFFFFFFFFFFFFFFFFFFFFFFFFFFFFFFFF AND DUP2 MSTORE PUSH1 0x20 ADD SWAP1 DUP2 MSTORE PUSH1 0x20 ADD PUSH0 KECCAK256 PUSH0 DUP4 DUP2 MSTORE PUSH1 0x20 ADD SWAP1 DUP2 MSTORE PUSH1 0x20 ADD PUSH0 KECCAK256 PUSH0 SWAP1 SSTORE POP POP POP POP JUMP JUMPDEST PUSH0 PUSH1 0x1 PUSH1 0x8 DUP1 SLOAD SWAP1 POP PUSH2 0x1BFD SWAP2 SWAP1 PUSH2 0x3242 JUMP JUMPDEST SWAP1 POP PUSH0 PUSH1 0x9 PUSH0 DUP5 DUP2 MSTORE PUSH1 0x20 ADD SWAP1 DUP2 MSTORE PUSH1 0x20 ADD PUSH0 KECCAK256 SLOAD SWAP1 POP PUSH0 PUSH1 0x8 DUP4 DUP2 SLOAD DUP2 LT PUSH2 0x1C29 JUMPI PUSH2 0x1C28 PUSH2 0x28C6 JUMP JUMPDEST JUMPDEST SWAP1 PUSH0 MSTORE PUSH1 0x20 PUSH0 KECCAK256 ADD SLOAD SWAP1 POP DUP1 PUSH1 0x8 DUP4 DUP2 SLOAD DUP2 LT PUSH2 0x1C49 JUMPI PUSH2 0x1C48 PUSH2 0x28C6 JUMP JUMPDEST JUMPDEST SWAP1 PUSH0 MSTORE PUSH1 0x20 PUSH0 KECCAK256 ADD DUP2 SWAP1 SSTORE POP DUP2 PUSH1 0x9 PUSH0 DUP4 DUP2 MSTORE PUSH1 0x20 ADD SWAP1 DUP2 MSTORE PUSH1 0x20 ADD PUSH0 KECCAK256 DUP2 SWAP1 SSTORE POP PUSH1 0x9 PUSH0 DUP6 DUP2 MSTORE PUSH1 0x20 ADD SWAP1 DUP2 MSTORE PUSH1 0x20 ADD PUSH0 KECCAK256 PUSH0 SWAP1 SSTORE PUSH1 0x8 DUP1 SLOAD DUP1 PUSH2 0x1C91 JUMPI PUSH2 0x1C90 PUSH2 0x32A8 JUMP JUMPDEST JUMPDEST PUSH1 0x1 SWAP1 SUB DUP2 DUP2 SWAP1 PUSH0 MSTORE PUSH1 0x20 PUSH0 KECCAK256 ADD PUSH0 SWAP1 SSTORE SWAP1 SSTORE POP POP POP POP JUMP JUMPDEST PUSH0 PUSH2 0x1CB4 DUP4 PUSH2 0x90A JUMP JUMPDEST SWAP1 POP DUP2 PUSH1 0x6 PUSH0 DUP6 PUSH20 0xFFFFFFFFFFFFFFFFFFFFFFFFFFFFFFFFFFFFFFFF AND PUSH20 0xFFFFFFFFFFFFFFFFFFFFFFFFFFFFFFFFFFFFFFFF AND DUP2 MSTORE PUSH1 0x20 ADD SWAP1 DUP2 MSTORE PUSH1 0x20 ADD PUSH0 KECCAK256 PUSH0 DUP4 DUP2 MSTORE PUSH1 0x20 ADD SWAP1 DUP2 MSTORE PUSH1 0x20 ADD PUSH0 KECCAK256 DUP2 SWAP1 SSTORE POP DUP1 PUSH1 0x7 PUSH0 DUP5 DUP2 MSTORE PUSH1 0x20 ADD SWAP1 DUP2 MSTORE PUSH1 0x20 ADD PUSH0 KECCAK256 DUP2 SWAP1 SSTORE POP POP POP POP JUMP JUMPDEST PUSH0 PUSH20 0xFFFFFFFFFFFFFFFFFFFFFFFFFFFFFFFFFFFFFFFF AND DUP3 PUSH20 0xFFFFFFFFFFFFFFFFFFFFFFFFFFFFFFFFFFFFFFFF AND SUB PUSH2 0x1D90 JUMPI PUSH1 0x40 MLOAD PUSH32 0x8C379A000000000000000000000000000000000000000000000000000000000 DUP2 MSTORE PUSH1 0x4 ADD PUSH2 0x1D87 SWAP1 PUSH2 0x331F JUMP JUMPDEST PUSH1 0x40 MLOAD DUP1 SWAP2 SUB SWAP1 REVERT JUMPDEST PUSH2 0x1D99 DUP2 PUSH2 0x154C JUMP JUMPDEST ISZERO PUSH2 0x1DD9 JUMPI PUSH1 0x40 MLOAD PUSH32 0x8C379A000000000000000000000000000000000000000000000000000000000 DUP2 MSTORE PUSH1 0x4 ADD PUSH2 0x1DD0 SWAP1 PUSH2 0x3387 JUMP JUMPDEST PUSH1 0x40 MLOAD DUP1 SWAP2 SUB SWAP1 REVERT JUMPDEST PUSH2 0x1DE6 PUSH0 DUP4 DUP4 PUSH1 0x1 PUSH2 0x15F5 JUMP JUMPDEST PUSH2 0x1DEF DUP2 PUSH2 0x154C JUMP JUMPDEST ISZERO PUSH2 0x1E2F JUMPI PUSH1 0x40 MLOAD PUSH32 0x8C379A000000000000000000000000000000000000000000000000000000000 DUP2 MSTORE PUSH1 0x4 ADD PUSH2 0x1E26 SWAP1 PUSH2 0x3387 JUMP JUMPDEST PUSH1 0x40 MLOAD DUP1 SWAP2 SUB SWAP1 REVERT JUMPDEST PUSH1 0x1 PUSH1 0x3 PUSH0 DUP5 PUSH20 0xFFFFFFFFFFFFFFFFFFFFFFFFFFFFFFFFFFFFFFFF AND PUSH20 0xFFFFFFFFFFFFFFFFFFFFFFFFFFFFFFFFFFFFFFFF AND DUP2 MSTORE PUSH1 0x20 ADD SWAP1 DUP2 MSTORE PUSH1 0x20 ADD PUSH0 KECCAK256 PUSH0 DUP3 DUP3 SLOAD ADD SWAP3 POP POP DUP2 SWAP1 SSTORE POP DUP2 PUSH1 0x2 PUSH0 DUP4 DUP2 MSTORE PUSH1 0x20 ADD SWAP1 DUP2 MSTORE PUSH1 0x20 ADD PUSH0 KECCAK256 PUSH0 PUSH2 0x100 EXP DUP2 SLOAD DUP2 PUSH20 0xFFFFFFFFFFFFFFFFFFFFFFFFFFFFFFFFFFFFFFFF MUL NOT AND SWAP1 DUP4 PUSH20 0xFFFFFFFFFFFFFFFFFFFFFFFFFFFFFFFFFFFFFFFF AND MUL OR SWAP1 SSTORE POP DUP1 DUP3 PUSH20 0xFFFFFFFFFFFFFFFFFFFFFFFFFFFFFFFFFFFFFFFF AND PUSH0 PUSH20 0xFFFFFFFFFFFFFFFFFFFFFFFFFFFFFFFFFFFFFFFF AND PUSH32 0xDDF252AD1BE2C89B69C2B068FC378DAA952BA7F163C4A11628F55A4DF523B3EF PUSH1 0x40 MLOAD PUSH1 0x40 MLOAD DUP1 SWAP2 SUB SWAP1 LOG4 PUSH2 0x1F31 PUSH0 DUP4 DUP4 PUSH1 0x1 PUSH2 0x1750 JUMP JUMPDEST POP POP JUMP JUMPDEST PUSH0 DUP1 DUP3 PUSH20 0xFFFFFFFFFFFFFFFFFFFFFFFFFFFFFFFFFFFFFFFF AND EXTCODESIZE GT SWAP1 POP SWAP2 SWAP1 POP JUMP JUMPDEST PUSH0 PUSH1 0x40 MLOAD SWAP1 POP SWAP1 JUMP JUMPDEST PUSH0 DUP1 REVERT JUMPDEST PUSH0 DUP1 REVERT JUMPDEST PUSH0 PUSH32 0xFFFFFFFF00000000000000000000000000000000000000000000000000000000 DUP3 AND SWAP1 POP SWAP2 SWAP1 POP JUMP JUMPDEST PUSH2 0x1F9C DUP2 PUSH2 0x1F68 JUMP JUMPDEST DUP2 EQ PUSH2 0x1FA6 JUMPI PUSH0 DUP1 REVERT JUMPDEST POP JUMP JUMPDEST PUSH0 DUP2 CALLDATALOAD SWAP1 POP PUSH2 0x1FB7 DUP2 PUSH2 0x1F93 JUMP JUMPDEST SWAP3 SWAP2 POP POP JUMP JUMPDEST PUSH0 PUSH1 0x20 DUP3 DUP5 SUB SLT ISZERO PUSH2 0x1FD2 JUMPI PUSH2 0x1FD1 PUSH2 0x1F60 JUMP JUMPDEST JUMPDEST PUSH0 PUSH2 0x1FDF DUP5 DUP3 DUP6 ADD PUSH2 0x1FA9 JUMP JUMPDEST SWAP2 POP POP SWAP3 SWAP2 POP POP JUMP JUMPDEST PUSH0 DUP2 ISZERO ISZERO SWAP1 POP SWAP2 SWAP1 POP JUMP JUMPDEST PUSH2 0x1FFC DUP2 PUSH2 0x1FE8 JUMP JUMPDEST DUP3 MSTORE POP POP JUMP JUMPDEST PUSH0 PUSH1 0x20 DUP3 ADD SWAP1 POP PUSH2 0x2015 PUSH0 DUP4 ADD DUP5 PUSH2 0x1FF3 JUMP JUMPDEST SWAP3 SWAP2 POP POP JUMP JUMPDEST PUSH0 DUP2 MLOAD SWAP1 POP SWAP2 SWAP1 POP JUMP JUMPDEST PUSH0 DUP3 DUP3 MSTORE PUSH1 0x20 DUP3 ADD SWAP1 POP SWAP3 SWAP2 POP POP JUMP JUMPDEST DUP3 DUP2 DUP4 MCOPY PUSH0 DUP4 DUP4 ADD MSTORE POP POP POP JUMP JUMPDEST PUSH0 PUSH1 0x1F NOT PUSH1 0x1F DUP4 ADD AND SWAP1 POP SWAP2 SWAP1 POP JUMP JUMPDEST PUSH0 PUSH2 0x205D DUP3 PUSH2 0x201B JUMP JUMPDEST PUSH2 0x2067 DUP2 DUP6 PUSH2 0x2025 JUMP JUMPDEST SWAP4 POP PUSH2 0x2077 DUP2 DUP6 PUSH1 0x20 DUP7 ADD PUSH2 0x2035 JUMP JUMPDEST PUSH2 0x2080 DUP2 PUSH2 0x2043 JUMP JUMPDEST DUP5 ADD SWAP2 POP POP SWAP3 SWAP2 POP POP JUMP JUMPDEST PUSH0 PUSH1 0x20 DUP3 ADD SWAP1 POP DUP2 DUP2 SUB PUSH0 DUP4 ADD MSTORE PUSH2 0x20A3 DUP2 DUP5 PUSH2 0x2053 JUMP JUMPDEST SWAP1 POP SWAP3 SWAP2 POP POP JUMP JUMPDEST PUSH0 DUP2 SWAP1 POP SWAP2 SWAP1 POP JUMP JUMPDEST PUSH2 0x20BD DUP2 PUSH2 0x20AB JUMP JUMPDEST DUP2 EQ PUSH2 0x20C7 JUMPI PUSH0 DUP1 REVERT JUMPDEST POP JUMP JUMPDEST PUSH0 DUP2 CALLDATALOAD SWAP1 POP PUSH2 0x20D8 DUP2 PUSH2 0x20B4 JUMP JUMPDEST SWAP3 SWAP2 POP POP JUMP JUMPDEST PUSH0 PUSH1 0x20 DUP3 DUP5 SUB SLT ISZERO PUSH2 0x20F3 JUMPI PUSH2 0x20F2 PUSH2 0x1F60 JUMP JUMPDEST JUMPDEST PUSH0 PUSH2 0x2100 DUP5 DUP3 DUP6 ADD PUSH2 0x20CA JUMP JUMPDEST SWAP2 POP POP SWAP3 SWAP2 POP POP JUMP JUMPDEST PUSH0 PUSH20 0xFFFFFFFFFFFFFFFFFFFFFFFFFFFFFFFFFFFFFFFF DUP3 AND SWAP1 POP SWAP2 SWAP1 POP JUMP JUMPDEST PUSH0 PUSH2 0x2132 DUP3 PUSH2 0x2109 JUMP JUMPDEST SWAP1 POP SWAP2 SWAP1 POP JUMP JUMPDEST PUSH2 0x2142 DUP2 PUSH2 0x2128 JUMP JUMPDEST DUP3 MSTORE POP POP JUMP JUMPDEST PUSH0 PUSH1 0x20 DUP3 ADD SWAP1 POP PUSH2 0x215B PUSH0 DUP4 ADD DUP5 PUSH2 0x2139 JUMP JUMPDEST SWAP3 SWAP2 POP POP JUMP JUMPDEST PUSH2 0x216A DUP2 PUSH2 0x2128 JUMP JUMPDEST DUP2 EQ PUSH2 0x2174 JUMPI PUSH0 DUP1 REVERT JUMPDEST POP JUMP JUMPDEST PUSH0 DUP2 CALLDATALOAD SWAP1 POP PUSH2 0x2185 DUP2 PUSH2 0x2161 JUMP JUMPDEST SWAP3 SWAP2 POP POP JUMP JUMPDEST PUSH0 DUP1 PUSH1 0x40 DUP4 DUP6 SUB SLT ISZERO PUSH2 0x21A1 JUMPI PUSH2 0x21A0 PUSH2 0x1F60 JUMP JUMPDEST JUMPDEST PUSH0 PUSH2 0x21AE DUP6 DUP3 DUP7 ADD PUSH2 0x2177 JUMP JUMPDEST SWAP3 POP POP PUSH1 0x20 PUSH2 0x21BF DUP6 DUP3 DUP7 ADD PUSH2 0x20CA JUMP JUMPDEST SWAP2 POP POP SWAP3 POP SWAP3 SWAP1 POP JUMP JUMPDEST PUSH2 0x21D2 DUP2 PUSH2 0x20AB JUMP JUMPDEST DUP3 MSTORE POP POP JUMP JUMPDEST PUSH0 PUSH1 0x20 DUP3 ADD SWAP1 POP PUSH2 0x21EB PUSH0 DUP4 ADD DUP5 PUSH2 0x21C9 JUMP JUMPDEST SWAP3 SWAP2 POP POP JUMP JUMPDEST PUSH0 DUP1 PUSH0 PUSH1 0x60 DUP5 DUP7 SUB SLT ISZERO PUSH2 0x2208 JUMPI PUSH2 0x2207 PUSH2 0x1F60 JUMP JUMPDEST JUMPDEST PUSH0 PUSH2 0x2215 DUP7 DUP3 DUP8 ADD PUSH2 0x2177 JUMP JUMPDEST SWAP4 POP POP PUSH1 0x20 PUSH2 0x2226 DUP7 DUP3 DUP8 ADD PUSH2 0x2177 JUMP JUMPDEST SWAP3 POP POP PUSH1 0x40 PUSH2 0x2237 DUP7 DUP3 DUP8 ADD PUSH2 0x20CA JUMP JUMPDEST SWAP2 POP POP SWAP3 POP SWAP3 POP SWAP3 JUMP JUMPDEST PUSH0 DUP1 REVERT JUMPDEST PUSH0 DUP1 REVERT JUMPDEST PUSH32 0x4E487B7100000000000000000000000000000000000000000000000000000000 PUSH0 MSTORE PUSH1 0x41 PUSH1 0x4 MSTORE PUSH1 0x24 PUSH0 REVERT JUMPDEST PUSH2 0x227F DUP3 PUSH2 0x2043 JUMP JUMPDEST DUP2 ADD DUP2 DUP2 LT PUSH8 0xFFFFFFFFFFFFFFFF DUP3 GT OR ISZERO PUSH2 0x229E JUMPI PUSH2 0x229D PUSH2 0x2249 JUMP JUMPDEST JUMPDEST DUP1 PUSH1 0x40 MSTORE POP POP POP JUMP JUMPDEST PUSH0 PUSH2 0x22B0 PUSH2 0x1F57 JUMP JUMPDEST SWAP1 POP PUSH2 0x22BC DUP3 DUP3 PUSH2 0x2276 JUMP JUMPDEST SWAP2 SWAP1 POP JUMP JUMPDEST PUSH0 PUSH8 0xFFFFFFFFFFFFFFFF DUP3 GT ISZERO PUSH2 0x22DB JUMPI PUSH2 0x22DA PUSH2 0x2249 JUMP JUMPDEST JUMPDEST PUSH2 0x22E4 DUP3 PUSH2 0x2043 JUMP JUMPDEST SWAP1 POP PUSH1 0x20 DUP2 ADD SWAP1 POP SWAP2 SWAP1 POP JUMP JUMPDEST DUP3 DUP2 DUP4 CALLDATACOPY PUSH0 DUP4 DUP4 ADD MSTORE POP POP POP JUMP JUMPDEST PUSH0 PUSH2 0x2311 PUSH2 0x230C DUP5 PUSH2 0x22C1 JUMP JUMPDEST PUSH2 0x22A7 JUMP JUMPDEST SWAP1 POP DUP3 DUP2 MSTORE PUSH1 0x20 DUP2 ADD DUP5 DUP5 DUP5 ADD GT ISZERO PUSH2 0x232D JUMPI PUSH2 0x232C PUSH2 0x2245 JUMP JUMPDEST JUMPDEST PUSH2 0x2338 DUP5 DUP3 DUP6 PUSH2 0x22F1 JUMP JUMPDEST POP SWAP4 SWAP3 POP POP POP JUMP JUMPDEST PUSH0 DUP3 PUSH1 0x1F DUP4 ADD SLT PUSH2 0x2354 JUMPI PUSH2 0x2353 PUSH2 0x2241 JUMP JUMPDEST JUMPDEST DUP2 CALLDATALOAD PUSH2 0x2364 DUP5 DUP3 PUSH1 0x20 DUP7 ADD PUSH2 0x22FF JUMP JUMPDEST SWAP2 POP POP SWAP3 SWAP2 POP POP JUMP JUMPDEST PUSH0 PUSH1 0x20 DUP3 DUP5 SUB SLT ISZERO PUSH2 0x2382 JUMPI PUSH2 0x2381 PUSH2 0x1F60 JUMP JUMPDEST JUMPDEST PUSH0 DUP3 ADD CALLDATALOAD PUSH8 0xFFFFFFFFFFFFFFFF DUP2 GT ISZERO PUSH2 0x239F JUMPI PUSH2 0x239E PUSH2 0x1F64 JUMP JUMPDEST JUMPDEST PUSH2 0x23AB DUP5 DUP3 DUP6 ADD PUSH2 0x2340 JUMP JUMPDEST SWAP2 POP POP SWAP3 SWAP2 POP POP JUMP JUMPDEST PUSH0 PUSH1 0x20 DUP3 DUP5 SUB SLT ISZERO PUSH2 0x23C9 JUMPI PUSH2 0x23C8 PUSH2 0x1F60 JUMP JUMPDEST JUMPDEST PUSH0 PUSH2 0x23D6 DUP5 DUP3 DUP6 ADD PUSH2 0x2177 JUMP JUMPDEST SWAP2 POP POP SWAP3 SWAP2 POP POP JUMP JUMPDEST PUSH2 0x23E8 DUP2 PUSH2 0x1FE8 JUMP JUMPDEST DUP2 EQ PUSH2 0x23F2 JUMPI PUSH0 DUP1 REVERT JUMPDEST POP JUMP JUMPDEST PUSH0 DUP2 CALLDATALOAD SWAP1 POP PUSH2 0x2403 DUP2 PUSH2 0x23DF JUMP JUMPDEST SWAP3 SWAP2 POP POP JUMP JUMPDEST PUSH0 DUP1 PUSH1 0x40 DUP4 DUP6 SUB SLT ISZERO PUSH2 0x241F JUMPI PUSH2 0x241E PUSH2 0x1F60 JUMP JUMPDEST JUMPDEST PUSH0 PUSH2 0x242C DUP6 DUP3 DUP7 ADD PUSH2 0x2177 JUMP JUMPDEST SWAP3 POP POP PUSH1 0x20 PUSH2 0x243D DUP6 DUP3 DUP7 ADD PUSH2 0x23F5 JUMP JUMPDEST SWAP2 POP POP SWAP3 POP SWAP3 SWAP1 POP JUMP JUMPDEST PUSH0 PUSH8 0xFFFFFFFFFFFFFFFF DUP3 GT ISZERO PUSH2 0x2461 JUMPI PUSH2 0x2460 PUSH2 0x2249 JUMP JUMPDEST JUMPDEST PUSH2 0x246A DUP3 PUSH2 0x2043 JUMP JUMPDEST SWAP1 POP PUSH1 0x20 DUP2 ADD SWAP1 POP SWAP2 SWAP1 POP JUMP JUMPDEST PUSH0 PUSH2 0x2489 PUSH2 0x2484 DUP5 PUSH2 0x2447 JUMP JUMPDEST PUSH2 0x22A7 JUMP JUMPDEST SWAP1 POP DUP3 DUP2 MSTORE PUSH1 0x20 DUP2 ADD DUP5 DUP5 DUP5 ADD GT ISZERO PUSH2 0x24A5 JUMPI PUSH2 0x24A4 PUSH2 0x2245 JUMP JUMPDEST JUMPDEST PUSH2 0x24B0 DUP5 DUP3 DUP6 PUSH2 0x22F1 JUMP JUMPDEST POP SWAP4 SWAP3 POP POP POP JUMP JUMPDEST PUSH0 DUP3 PUSH1 0x1F DUP4 ADD SLT PUSH2 0x24CC JUMPI PUSH2 0x24CB PUSH2 0x2241 JUMP JUMPDEST JUMPDEST DUP2 CALLDATALOAD PUSH2 0x24DC DUP5 DUP3 PUSH1 0x20 DUP7 ADD PUSH2 0x2477 JUMP JUMPDEST SWAP2 POP POP SWAP3 SWAP2 POP POP JUMP JUMPDEST PUSH0 DUP1 PUSH0 DUP1 PUSH1 0x80 DUP6 DUP8 SUB SLT ISZERO PUSH2 0x24FD JUMPI PUSH2 0x24FC PUSH2 0x1F60 JUMP JUMPDEST JUMPDEST PUSH0 PUSH2 0x250A DUP8 DUP3 DUP9 ADD PUSH2 0x2177 JUMP JUMPDEST SWAP5 POP POP PUSH1 0x20 PUSH2 0x251B DUP8 DUP3 DUP9 ADD PUSH2 0x2177 JUMP JUMPDEST SWAP4 POP POP PUSH1 0x40 PUSH2 0x252C DUP8 DUP3 DUP9 ADD PUSH2 0x20CA JUMP JUMPDEST SWAP3 POP POP PUSH1 0x60 DUP6 ADD CALLDATALOAD PUSH8 0xFFFFFFFFFFFFFFFF DUP2 GT ISZERO PUSH2 0x254D JUMPI PUSH2 0x254C PUSH2 0x1F64 JUMP JUMPDEST JUMPDEST PUSH2 0x2559 DUP8 DUP3 DUP9 ADD PUSH2 0x24B8 JUMP JUMPDEST SWAP2 POP POP SWAP3 SWAP6 SWAP2 SWAP5 POP SWAP3 POP JUMP JUMPDEST PUSH0 DUP1 PUSH1 0x40 DUP4 DUP6 SUB SLT ISZERO PUSH2 0x257B JUMPI PUSH2 0x257A PUSH2 0x1F60 JUMP JUMPDEST JUMPDEST PUSH0 PUSH2 0x2588 DUP6 DUP3 DUP7 ADD PUSH2 0x2177 JUMP JUMPDEST SWAP3 POP POP PUSH1 0x20 PUSH2 0x2599 DUP6 DUP3 DUP7 ADD PUSH2 0x2177 JUMP JUMPDEST SWAP2 POP POP SWAP3 POP SWAP3 SWAP1 POP JUMP JUMPDEST PUSH32 0x4E487B7100000000000000000000000000000000000000000000000000000000 PUSH0 MSTORE PUSH1 0x22 PUSH1 0x4 MSTORE PUSH1 0x24 PUSH0 REVERT JUMPDEST PUSH0 PUSH1 0x2 DUP3 DIV SWAP1 POP PUSH1 0x1 DUP3 AND DUP1 PUSH2 0x25E7 JUMPI PUSH1 0x7F DUP3 AND SWAP2 POP JUMPDEST PUSH1 0x20 DUP3 LT DUP2 SUB PUSH2 0x25FA JUMPI PUSH2 0x25F9 PUSH2 0x25A3 JUMP JUMPDEST JUMPDEST POP SWAP2 SWAP1 POP JUMP JUMPDEST PUSH32 0x4552433732313A20617070726F76616C20746F2063757272656E74206F776E65 PUSH0 DUP3 ADD MSTORE PUSH32 0x7200000000000000000000000000000000000000000000000000000000000000 PUSH1 0x20 DUP3 ADD MSTORE POP JUMP JUMPDEST PUSH0 PUSH2 0x265A PUSH1 0x21 DUP4 PUSH2 0x2025 JUMP JUMPDEST SWAP2 POP PUSH2 0x2665 DUP3 PUSH2 0x2600 JUMP JUMPDEST PUSH1 0x40 DUP3 ADD SWAP1 POP SWAP2 SWAP1 POP JUMP JUMPDEST PUSH0 PUSH1 0x20 DUP3 ADD SWAP1 POP DUP2 DUP2 SUB PUSH0 DUP4 ADD MSTORE PUSH2 0x2687 DUP2 PUSH2 0x264E JUMP JUMPDEST SWAP1 POP SWAP2 SWAP1 POP JUMP JUMPDEST PUSH32 0x4552433732313A20617070726F76652063616C6C6572206973206E6F7420746F PUSH0 DUP3 ADD MSTORE PUSH32 0x6B656E206F776E6572206F7220617070726F76656420666F7220616C6C000000 PUSH1 0x20 DUP3 ADD MSTORE POP JUMP JUMPDEST PUSH0 PUSH2 0x26E8 PUSH1 0x3D DUP4 PUSH2 0x2025 JUMP JUMPDEST SWAP2 POP PUSH2 0x26F3 DUP3 PUSH2 0x268E JUMP JUMPDEST PUSH1 0x40 DUP3 ADD SWAP1 POP SWAP2 SWAP1 POP JUMP JUMPDEST PUSH0 PUSH1 0x20 DUP3 ADD SWAP1 POP DUP2 DUP2 SUB PUSH0 DUP4 ADD MSTORE PUSH2 0x2715 DUP2 PUSH2 0x26DC JUMP JUMPDEST SWAP1 POP SWAP2 SWAP1 POP JUMP JUMPDEST PUSH32 0x4552433732313A2063616C6C6572206973206E6F7420746F6B656E206F776E65 PUSH0 DUP3 ADD MSTORE PUSH32 0x72206F7220617070726F76656400000000000000000000000000000000000000 PUSH1 0x20 DUP3 ADD MSTORE POP JUMP JUMPDEST PUSH0 PUSH2 0x2776 PUSH1 0x2D DUP4 PUSH2 0x2025 JUMP JUMPDEST SWAP2 POP PUSH2 0x2781 DUP3 PUSH2 0x271C JUMP JUMPDEST PUSH1 0x40 DUP3 ADD SWAP1 POP SWAP2 SWAP1 POP JUMP JUMPDEST PUSH0 PUSH1 0x20 DUP3 ADD SWAP1 POP DUP2 DUP2 SUB PUSH0 DUP4 ADD MSTORE PUSH2 0x27A3 DUP2 PUSH2 0x276A JUMP JUMPDEST SWAP1 POP SWAP2 SWAP1 POP JUMP JUMPDEST PUSH32 0x455243373231456E756D657261626C653A206F776E657220696E646578206F75 PUSH0 DUP3 ADD MSTORE PUSH32 0x74206F6620626F756E6473000000000000000000000000000000000000000000 PUSH1 0x20 DUP3 ADD MSTORE POP JUMP JUMPDEST PUSH0 PUSH2 0x2804 PUSH1 0x2B DUP4 PUSH2 0x2025 JUMP JUMPDEST SWAP2 POP PUSH2 0x280F DUP3 PUSH2 0x27AA JUMP JUMPDEST PUSH1 0x40 DUP3 ADD SWAP1 POP SWAP2 SWAP1 POP JUMP JUMPDEST PUSH0 PUSH1 0x20 DUP3 ADD SWAP1 POP DUP2 DUP2 SUB PUSH0 DUP4 ADD MSTORE PUSH2 0x2831 DUP2 PUSH2 0x27F8 JUMP JUMPDEST SWAP1 POP SWAP2 SWAP1 POP JUMP JUMPDEST PUSH32 0x455243373231456E756D657261626C653A20676C6F62616C20696E646578206F PUSH0 DUP3 ADD MSTORE PUSH32 0x7574206F6620626F756E64730000000000000000000000000000000000000000 PUSH1 0x20 DUP3 ADD MSTORE POP JUMP JUMPDEST PUSH0 PUSH2 0x2892 PUSH1 0x2C DUP4 PUSH2 0x2025 JUMP JUMPDEST SWAP2 POP PUSH2 0x289D DUP3 PUSH2 0x2838 JUMP JUMPDEST PUSH1 0x40 DUP3 ADD SWAP1 POP SWAP2 SWAP1 POP JUMP JUMPDEST PUSH0 PUSH1 0x20 DUP3 ADD SWAP1 POP DUP2 DUP2 SUB PUSH0 DUP4 ADD MSTORE PUSH2 0x28BF DUP2 PUSH2 0x2886 JUMP JUMPDEST SWAP1 POP SWAP2 SWAP1 POP JUMP JUMPDEST PUSH32 0x4E487B7100000000000000000000000000000000000000000000000000000000 PUSH0 MSTORE PUSH1 0x32 PUSH1 0x4 MSTORE PUSH1 0x24 PUSH0 REVERT JUMPDEST PUSH0 DUP2 SWAP1 POP DUP2 PUSH0 MSTORE PUSH1 0x20 PUSH0 KECCAK256 SWAP1 POP SWAP2 SWAP1 POP JUMP JUMPDEST PUSH0 PUSH1 0x20 PUSH1 0x1F DUP4 ADD DIV SWAP1 POP SWAP2 SWAP1 POP JUMP JUMPDEST PUSH0 DUP3 DUP3 SHL SWAP1 POP SWAP3 SWAP2 POP POP JUMP JUMPDEST PUSH0 PUSH1 0x8 DUP4 MUL PUSH2 0x294F PUSH32 0xFFFFFFFFFFFFFFFFFFFFFFFFFFFFFFFFFFFFFFFFFFFFFFFFFFFFFFFFFFFFFFFF DUP3 PUSH2 0x2914 JUMP JUMPDEST PUSH2 0x2959 DUP7 DUP4 PUSH2 0x2914 JUMP JUMPDEST SWAP6 POP DUP1 NOT DUP5 AND SWAP4 POP DUP1 DUP7 AND DUP5 OR SWAP3 POP POP POP SWAP4 SWAP3 POP POP POP JUMP JUMPDEST PUSH0 DUP2 SWAP1 POP SWAP2 SWAP1 POP JUMP JUMPDEST PUSH0 PUSH2 0x2994 PUSH2 0x298F PUSH2 0x298A DUP5 PUSH2 0x20AB JUMP JUMPDEST PUSH2 0x2971 JUMP JUMPDEST PUSH2 0x20AB JUMP JUMPDEST SWAP1 POP SWAP2 SWAP1 POP JUMP JUMPDEST PUSH0 DUP2 SWAP1 POP SWAP2 SWAP1 POP JUMP JUMPDEST PUSH2 0x29AD DUP4 PUSH2 0x297A JUMP JUMPDEST PUSH2 0x29C1 PUSH2 0x29B9 DUP3 PUSH2 0x299B JUMP JUMPDEST DUP5 DUP5 SLOAD PUSH2 0x2920 JUMP JUMPDEST DUP3 SSTORE POP POP POP POP JUMP JUMPDEST PUSH0 SWAP1 JUMP JUMPDEST PUSH2 0x29D5 PUSH2 0x29C9 JUMP JUMPDEST PUSH2 0x29E0 DUP2 DUP5 DUP5 PUSH2 0x29A4 JUMP JUMPDEST POP POP POP JUMP JUMPDEST JUMPDEST DUP2 DUP2 LT ISZERO PUSH2 0x2A03 JUMPI PUSH2 0x29F8 PUSH0 DUP3 PUSH2 0x29CD JUMP JUMPDEST PUSH1 0x1 DUP2 ADD SWAP1 POP PUSH2 0x29E6 JUMP JUMPDEST POP POP JUMP JUMPDEST PUSH1 0x1F DUP3 GT ISZERO PUSH2 0x2A48 JUMPI PUSH2 0x2A19 DUP2 PUSH2 0x28F3 JUMP JUMPDEST PUSH2 0x2A22 DUP5 PUSH2 0x2905 JUMP JUMPDEST DUP2 ADD PUSH1 0x20 DUP6 LT ISZERO PUSH2 0x2A31 JUMPI DUP2 SWAP1 POP JUMPDEST PUSH2 0x2A45 PUSH2 0x2A3D DUP6 PUSH2 0x2905 JUMP JUMPDEST DUP4 ADD DUP3 PUSH2 0x29E5 JUMP JUMPDEST POP POP JUMPDEST POP POP POP JUMP JUMPDEST PUSH0 DUP3 DUP3 SHR SWAP1 POP SWAP3 SWAP2 POP POP JUMP JUMPDEST PUSH0 PUSH2 0x2A68 PUSH0 NOT DUP5 PUSH1 0x8 MUL PUSH2 0x2A4D JUMP JUMPDEST NOT DUP1 DUP4 AND SWAP2 POP POP SWAP3 SWAP2 POP POP JUMP JUMPDEST PUSH0 PUSH2 0x2A80 DUP4 DUP4 PUSH2 0x2A59 JUMP JUMPDEST SWAP2 POP DUP3 PUSH1 0x2 MUL DUP3 OR SWAP1 POP SWAP3 SWAP2 POP POP JUMP JUMPDEST PUSH2 0x2A99 DUP3 PUSH2 0x201B JUMP JUMPDEST PUSH8 0xFFFFFFFFFFFFFFFF DUP2 GT ISZERO PUSH2 0x2AB2 JUMPI PUSH2 0x2AB1 PUSH2 0x2249 JUMP JUMPDEST JUMPDEST PUSH2 0x2ABC DUP3 SLOAD PUSH2 0x25D0 JUMP JUMPDEST PUSH2 0x2AC7 DUP3 DUP3 DUP6 PUSH2 0x2A07 JUMP JUMPDEST PUSH0 PUSH1 0x20 SWAP1 POP PUSH1 0x1F DUP4 GT PUSH1 0x1 DUP2 EQ PUSH2 0x2AF8 JUMPI PUSH0 DUP5 ISZERO PUSH2 0x2AE6 JUMPI DUP3 DUP8 ADD MLOAD SWAP1 POP JUMPDEST PUSH2 0x2AF0 DUP6 DUP3 PUSH2 0x2A75 JUMP JUMPDEST DUP7 SSTORE POP PUSH2 0x2B57 JUMP JUMPDEST PUSH1 0x1F NOT DUP5 AND PUSH2 0x2B06 DUP7 PUSH2 0x28F3 JUMP JUMPDEST PUSH0 JUMPDEST DUP3 DUP2 LT ISZERO PUSH2 0x2B2D JUMPI DUP5 DUP10 ADD MLOAD DUP3 SSTORE PUSH1 0x1 DUP3 ADD SWAP2 POP PUSH1 0x20 DUP6 ADD SWAP5 POP PUSH1 0x20 DUP2 ADD SWAP1 POP PUSH2 0x2B08 JUMP JUMPDEST DUP7 DUP4 LT ISZERO PUSH2 0x2B4A JUMPI DUP5 DUP10 ADD MLOAD PUSH2 0x2B46 PUSH1 0x1F DUP10 AND DUP3 PUSH2 0x2A59 JUMP JUMPDEST DUP4 SSTORE POP JUMPDEST PUSH1 0x1 PUSH1 0x2 DUP9 MUL ADD DUP9 SSTORE POP POP POP JUMPDEST POP POP POP POP POP POP JUMP JUMPDEST PUSH32 0x4552433732313A20696E76616C696420746F6B656E2049440000000000000000 PUSH0 DUP3 ADD MSTORE POP JUMP JUMPDEST PUSH0 PUSH2 0x2B93 PUSH1 0x18 DUP4 PUSH2 0x2025 JUMP JUMPDEST SWAP2 POP PUSH2 0x2B9E DUP3 PUSH2 0x2B5F JUMP JUMPDEST PUSH1 0x20 DUP3 ADD SWAP1 POP SWAP2 SWAP1 POP JUMP JUMPDEST PUSH0 PUSH1 0x20 DUP3 ADD SWAP1 POP DUP2 DUP2 SUB PUSH0 DUP4 ADD MSTORE PUSH2 0x2BC0 DUP2 PUSH2 0x2B87 JUMP JUMPDEST SWAP1 POP SWAP2 SWAP1 POP JUMP JUMPDEST PUSH32 0x4E487B7100000000000000000000000000000000000000000000000000000000 PUSH0 MSTORE PUSH1 0x11 PUSH1 0x4 MSTORE PUSH1 0x24 PUSH0 REVERT JUMPDEST PUSH0 PUSH2 0x2BFE DUP3 PUSH2 0x20AB JUMP JUMPDEST SWAP2 POP PUSH32 0xFFFFFFFFFFFFFFFFFFFFFFFFFFFFFFFFFFFFFFFFFFFFFFFFFFFFFFFFFFFFFFFF DUP3 SUB PUSH2 0x2C30 JUMPI PUSH2 0x2C2F PUSH2 0x2BC7 JUMP JUMPDEST JUMPDEST PUSH1 0x1 DUP3 ADD SWAP1 POP SWAP2 SWAP1 POP JUMP JUMPDEST PUSH32 0x4552433732313A2061646472657373207A65726F206973206E6F742061207661 PUSH0 DUP3 ADD MSTORE PUSH32 0x6C6964206F776E65720000000000000000000000000000000000000000000000 PUSH1 0x20 DUP3 ADD MSTORE POP JUMP JUMPDEST PUSH0 PUSH2 0x2C95 PUSH1 0x29 DUP4 PUSH2 0x2025 JUMP JUMPDEST SWAP2 POP PUSH2 0x2CA0 DUP3 PUSH2 0x2C3B JUMP JUMPDEST PUSH1 0x40 DUP3 ADD SWAP1 POP SWAP2 SWAP1 POP JUMP JUMPDEST PUSH0 PUSH1 0x20 DUP3 ADD SWAP1 POP DUP2 DUP2 SUB PUSH0 DUP4 ADD MSTORE PUSH2 0x2CC2 DUP2 PUSH2 0x2C89 JUMP JUMPDEST SWAP1 POP SWAP2 SWAP1 POP JUMP JUMPDEST PUSH32 0x546F6B656E20646F6573206E6F74206578697374000000000000000000000000 PUSH0 DUP3 ADD MSTORE POP JUMP JUMPDEST PUSH0 PUSH2 0x2CFD PUSH1 0x14 DUP4 PUSH2 0x2025 JUMP JUMPDEST SWAP2 POP PUSH2 0x2D08 DUP3 PUSH2 0x2CC9 JUMP JUMPDEST PUSH1 0x20 DUP3 ADD SWAP1 POP SWAP2 SWAP1 POP JUMP JUMPDEST PUSH0 PUSH1 0x20 DUP3 ADD SWAP1 POP DUP2 DUP2 SUB PUSH0 DUP4 ADD MSTORE PUSH2 0x2D2A DUP2 PUSH2 0x2CF1 JUMP JUMPDEST SWAP1 POP SWAP2 SWAP1 POP JUMP JUMPDEST PUSH0 DUP2 SWAP1 POP SWAP3 SWAP2 POP POP JUMP JUMPDEST PUSH0 DUP2 SLOAD PUSH2 0x2D47 DUP2 PUSH2 0x25D0 JUMP JUMPDEST PUSH2 0x2D51 DUP2 DUP7 PUSH2 0x2D31 JUMP JUMPDEST SWAP5 POP PUSH1 0x1 DUP3 AND PUSH0 DUP2 EQ PUSH2 0x2D6B JUMPI PUSH1 0x1 DUP2 EQ PUSH2 0x2D80 JUMPI PUSH2 0x2DB2 JUMP JUMPDEST PUSH1 0xFF NOT DUP4 AND DUP7 MSTORE DUP2 ISZERO ISZERO DUP3 MUL DUP7 ADD SWAP4 POP PUSH2 0x2DB2 JUMP JUMPDEST PUSH2 0x2D89 DUP6 PUSH2 0x28F3 JUMP JUMPDEST PUSH0 JUMPDEST DUP4 DUP2 LT ISZERO PUSH2 0x2DAA JUMPI DUP2 SLOAD DUP2 DUP10 ADD MSTORE PUSH1 0x1 DUP3 ADD SWAP2 POP PUSH1 0x20 DUP2 ADD SWAP1 POP PUSH2 0x2D8B JUMP JUMPDEST DUP4 DUP9 ADD SWAP6 POP POP POP JUMPDEST POP POP POP SWAP3 SWAP2 POP POP JUMP JUMPDEST PUSH0 PUSH2 0x2DC6 DUP3 DUP5 PUSH2 0x2D3B JUMP JUMPDEST SWAP2 POP DUP2 SWAP1 POP SWAP3 SWAP2 POP POP JUMP JUMPDEST PUSH32 0x4F776E61626C653A206E6577206F776E657220697320746865207A65726F2061 PUSH0 DUP3 ADD MSTORE PUSH32 0x6464726573730000000000000000000000000000000000000000000000000000 PUSH1 0x20 DUP3 ADD MSTORE POP JUMP JUMPDEST PUSH0 PUSH2 0x2E2B PUSH1 0x26 DUP4 PUSH2 0x2025 JUMP JUMPDEST SWAP2 POP PUSH2 0x2E36 DUP3 PUSH2 0x2DD1 JUMP JUMPDEST PUSH1 0x40 DUP3 ADD SWAP1 POP SWAP2 SWAP1 POP JUMP JUMPDEST PUSH0 PUSH1 0x20 DUP3 ADD SWAP1 POP DUP2 DUP2 SUB PUSH0 DUP4 ADD MSTORE PUSH2 0x2E58 DUP2 PUSH2 0x2E1F JUMP JUMPDEST SWAP1 POP SWAP2 SWAP1 POP JUMP JUMPDEST PUSH32 0x4552433732313A207472616E736665722066726F6D20696E636F727265637420 PUSH0 DUP3 ADD MSTORE PUSH32 0x6F776E6572000000000000000000000000000000000000000000000000000000 PUSH1 0x20 DUP3 ADD MSTORE POP JUMP JUMPDEST PUSH0 PUSH2 0x2EB9 PUSH1 0x25 DUP4 PUSH2 0x2025 JUMP JUMPDEST SWAP2 POP PUSH2 0x2EC4 DUP3 PUSH2 0x2E5F JUMP JUMPDEST PUSH1 0x40 DUP3 ADD SWAP1 POP SWAP2 SWAP1 POP JUMP JUMPDEST PUSH0 PUSH1 0x20 DUP3 ADD SWAP1 POP DUP2 DUP2 SUB PUSH0 DUP4 ADD MSTORE PUSH2 0x2EE6 DUP2 PUSH2 0x2EAD JUMP JUMPDEST SWAP1 POP SWAP2 SWAP1 POP JUMP JUMPDEST PUSH32 0x4552433732313A207472616E7366657220746F20746865207A65726F20616464 PUSH0 DUP3 ADD MSTORE PUSH32 0x7265737300000000000000000000000000000000000000000000000000000000 PUSH1 0x20 DUP3 ADD MSTORE POP JUMP JUMPDEST PUSH0 PUSH2 0x2F47 PUSH1 0x24 DUP4 PUSH2 0x2025 JUMP JUMPDEST SWAP2 POP PUSH2 0x2F52 DUP3 PUSH2 0x2EED JUMP JUMPDEST PUSH1 0x40 DUP3 ADD SWAP1 POP SWAP2 SWAP1 POP JUMP JUMPDEST PUSH0 PUSH1 0x20 DUP3 ADD SWAP1 POP DUP2 DUP2 SUB PUSH0 DUP4 ADD MSTORE PUSH2 0x2F74 DUP2 PUSH2 0x2F3B JUMP JUMPDEST SWAP1 POP SWAP2 SWAP1 POP JUMP JUMPDEST PUSH32 0x4F776E61626C653A2063616C6C6572206973206E6F7420746865206F776E6572 PUSH0 DUP3 ADD MSTORE POP JUMP JUMPDEST PUSH0 PUSH2 0x2FAF PUSH1 0x20 DUP4 PUSH2 0x2025 JUMP JUMPDEST SWAP2 POP PUSH2 0x2FBA DUP3 PUSH2 0x2F7B JUMP JUMPDEST PUSH1 0x20 DUP3 ADD SWAP1 POP SWAP2 SWAP1 POP JUMP JUMPDEST PUSH0 PUSH1 0x20 DUP3 ADD SWAP1 POP DUP2 DUP2 SUB PUSH0 DUP4 ADD MSTORE PUSH2 0x2FDC DUP2 PUSH2 0x2FA3 JUMP JUMPDEST SWAP1 POP SWAP2 SWAP1 POP JUMP JUMPDEST PUSH32 0x4552433732313A20617070726F766520746F2063616C6C657200000000000000 PUSH0 DUP3 ADD MSTORE POP JUMP JUMPDEST PUSH0 PUSH2 0x3017 PUSH1 0x19 DUP4 PUSH2 0x2025 JUMP JUMPDEST SWAP2 POP PUSH2 0x3022 DUP3 PUSH2 0x2FE3 JUMP JUMPDEST PUSH1 0x20 DUP3 ADD SWAP1 POP SWAP2 SWAP1 POP JUMP JUMPDEST PUSH0 PUSH1 0x20 DUP3 ADD SWAP1 POP DUP2 DUP2 SUB PUSH0 DUP4 ADD MSTORE PUSH2 0x3044 DUP2 PUSH2 0x300B JUMP JUMPDEST SWAP1 POP SWAP2 SWAP1 POP JUMP JUMPDEST PUSH32 0x4552433732313A207472616E7366657220746F206E6F6E204552433732315265 PUSH0 DUP3 ADD MSTORE PUSH32 0x63656976657220696D706C656D656E7465720000000000000000000000000000 PUSH1 0x20 DUP3 ADD MSTORE POP JUMP JUMPDEST PUSH0 PUSH2 0x30A5 PUSH1 0x32 DUP4 PUSH2 0x2025 JUMP JUMPDEST SWAP2 POP PUSH2 0x30B0 DUP3 PUSH2 0x304B JUMP JUMPDEST PUSH1 0x40 DUP3 ADD SWAP1 POP SWAP2 SWAP1 POP JUMP JUMPDEST PUSH0 PUSH1 0x20 DUP3 ADD SWAP1 POP DUP2 DUP2 SUB PUSH0 DUP4 ADD MSTORE PUSH2 0x30D2 DUP2 PUSH2 0x3099 JUMP JUMPDEST SWAP1 POP SWAP2 SWAP1 POP JUMP JUMPDEST PUSH32 0x455243373231456E756D657261626C653A20636F6E7365637574697665207472 PUSH0 DUP3 ADD MSTORE PUSH32 0x616E7366657273206E6F7420737570706F727465640000000000000000000000 PUSH1 0x20 DUP3 ADD MSTORE POP JUMP JUMPDEST PUSH0 PUSH2 0x3133 PUSH1 0x35 DUP4 PUSH2 0x2025 JUMP JUMPDEST SWAP2 POP PUSH2 0x313E DUP3 PUSH2 0x30D9 JUMP JUMPDEST PUSH1 0x40 DUP3 ADD SWAP1 POP SWAP2 SWAP1 POP JUMP JUMPDEST PUSH0 PUSH1 0x20 DUP3 ADD SWAP1 POP DUP2 DUP2 SUB PUSH0 DUP4 ADD MSTORE PUSH2 0x3160 DUP2 PUSH2 0x3127 JUMP JUMPDEST SWAP1 POP SWAP2 SWAP1 POP JUMP JUMPDEST PUSH0 DUP2 MLOAD SWAP1 POP SWAP2 SWAP1 POP JUMP JUMPDEST PUSH0 DUP3 DUP3 MSTORE PUSH1 0x20 DUP3 ADD SWAP1 POP SWAP3 SWAP2 POP POP JUMP JUMPDEST PUSH0 PUSH2 0x318B DUP3 PUSH2 0x3167 JUMP JUMPDEST PUSH2 0x3195 DUP2 DUP6 PUSH2 0x3171 JUMP JUMPDEST SWAP4 POP PUSH2 0x31A5 DUP2 DUP6 PUSH1 0x20 DUP7 ADD PUSH2 0x2035 JUMP JUMPDEST PUSH2 0x31AE DUP2 PUSH2 0x2043 JUMP JUMPDEST DUP5 ADD SWAP2 POP POP SWAP3 SWAP2 POP POP JUMP JUMPDEST PUSH0 PUSH1 0x80 DUP3 ADD SWAP1 POP PUSH2 0x31CC PUSH0 DUP4 ADD DUP8 PUSH2 0x2139 JUMP JUMPDEST PUSH2 0x31D9 PUSH1 0x20 DUP4 ADD DUP7 PUSH2 0x2139 JUMP JUMPDEST PUSH2 0x31E6 PUSH1 0x40 DUP4 ADD DUP6 PUSH2 0x21C9 JUMP JUMPDEST DUP2 DUP2 SUB PUSH1 0x60 DUP4 ADD MSTORE PUSH2 0x31F8 DUP2 DUP5 PUSH2 0x3181 JUMP JUMPDEST SWAP1 POP SWAP6 SWAP5 POP POP POP POP POP JUMP JUMPDEST PUSH0 DUP2 MLOAD SWAP1 POP PUSH2 0x3211 DUP2 PUSH2 0x1F93 JUMP JUMPDEST SWAP3 SWAP2 POP POP JUMP JUMPDEST PUSH0 PUSH1 0x20 DUP3 DUP5 SUB SLT ISZERO PUSH2 0x322C JUMPI PUSH2 0x322B PUSH2 0x1F60 JUMP JUMPDEST JUMPDEST PUSH0 PUSH2 0x3239 DUP5 DUP3 DUP6 ADD PUSH2 0x3203 JUMP JUMPDEST SWAP2 POP POP SWAP3 SWAP2 POP POP JUMP JUMPDEST PUSH0 PUSH2 0x324C DUP3 PUSH2 0x20AB JUMP JUMPDEST SWAP2 POP PUSH2 0x3257 DUP4 PUSH2 0x20AB JUMP JUMPDEST SWAP3 POP DUP3 DUP3 SUB SWAP1 POP DUP2 DUP2 GT ISZERO PUSH2 0x326F JUMPI PUSH2 0x326E PUSH2 0x2BC7 JUMP JUMPDEST JUMPDEST SWAP3 SWAP2 POP POP JUMP JUMPDEST PUSH0 PUSH2 0x327F DUP3 PUSH2 0x20AB JUMP JUMPDEST SWAP2 POP PUSH2 0x328A DUP4 PUSH2 0x20AB JUMP JUMPDEST SWAP3 POP DUP3 DUP3 ADD SWAP1 POP DUP1 DUP3 GT ISZERO PUSH2 0x32A2 JUMPI PUSH2 0x32A1 PUSH2 0x2BC7 JUMP JUMPDEST JUMPDEST SWAP3 SWAP2 POP POP JUMP JUMPDEST PUSH32 0x4E487B7100000000000000000000000000000000000000000000000000000000 PUSH0 MSTORE PUSH1 0x31 PUSH1 0x4 MSTORE PUSH1 0x24 PUSH0 REVERT JUMPDEST PUSH32 0x4552433732313A206D696E7420746F20746865207A65726F2061646472657373 PUSH0 DUP3 ADD MSTORE POP JUMP JUMPDEST PUSH0 PUSH2 0x3309 PUSH1 0x20 DUP4 PUSH2 0x2025 JUMP JUMPDEST SWAP2 POP PUSH2 0x3314 DUP3 PUSH2 0x32D5 JUMP JUMPDEST PUSH1 0x20 DUP3 ADD SWAP1 POP SWAP2 SWAP1 POP JUMP JUMPDEST PUSH0 PUSH1 0x20 DUP3 ADD SWAP1 POP DUP2 DUP2 SUB PUSH0 DUP4 ADD MSTORE PUSH2 0x3336 DUP2 PUSH2 0x32FD JUMP JUMPDEST SWAP1 POP SWAP2 SWAP1 POP JUMP JUMPDEST PUSH32 0x4552433732313A20746F6B656E20616C7265616479206D696E74656400000000 PUSH0 DUP3 ADD MSTORE POP JUMP JUMPDEST PUSH0 PUSH2 0x3371 PUSH1 0x1C DUP4 PUSH2 0x2025 JUMP JUMPDEST SWAP2 POP PUSH2 0x337C DUP3 PUSH2 0x333D JUMP JUMPDEST PUSH1 0x20 DUP3 ADD SWAP1 POP SWAP2 SWAP1 POP JUMP JUMPDEST PUSH0 PUSH1 0x20 DUP3 ADD SWAP1 POP DUP2 DUP2 SUB PUSH0 DUP4 ADD MSTORE PUSH2 0x339E DUP2 PUSH2 0x3365 JUMP JUMPDEST SWAP1 POP SWAP2 SWAP1 POP JUMP INVALID LOG2 PUSH5 0x6970667358 0x22 SLT KECCAK256 0xDA 0xEC MUL 0xD5 SDIV BLOBHASH JUMP 0xD9 0xDD 0xED 0xBC 0xAF SGT 0x26 SWAP3 CALLCODE DUP1 DIV TLOAD 0xFC 0x28 PUSH18 0x1CFAE6AADB1781E1C63664736F6C63430008 BYTE STOP CALLER "
		},
		"gasEstimates": {
			"creation": {
				"codeDepositCost": "2655000",
				"executionCost": "infinite",
				"totalCost": "infinite"
			},
			"external": {
				"TokenId()": "2447",
				"approve(address,uint256)": "infinite",
				"balanceOf(address)": "2909",
				"getApproved(uint256)": "5282",
				"isApprovedForAll(address,address)": "infinite",
				"mint(address)": "infinite",
				"name()": "infinite",
				"owner()": "2604",
				"ownerOf(uint256)": "3116",
				"renounceOwnership()": "30457",
				"safeTransferFrom(address,address,uint256)": "infinite",
				"safeTransferFrom(address,address,uint256,bytes)": "infinite",
				"setApprovalForAll(address,bool)": "infinite",
				"setBaseURI(string)": "infinite",
				"supportsInterface(bytes4)": "875",
				"symbol()": "infinite",
				"tokenByIndex(uint256)": "infinite",
				"tokenOfOwnerByIndex(address,uint256)": "infinite",
				"tokenURI(uint256)": "infinite",
				"totalSupply()": "2552",
				"transferFrom(address,address,uint256)": "infinite",
				"transferOwnership(address)": "30863"
			}
		},
		"methodIdentifiers": {
			"TokenId()": "9ffb8b49",
			"approve(address,uint256)": "095ea7b3",
			"balanceOf(address)": "70a08231",
			"getApproved(uint256)": "081812fc",
			"isApprovedForAll(address,address)": "e985e9c5",
			"mint(address)": "6a627842",
			"name()": "06fdde03",
			"owner()": "8da5cb5b",
			"ownerOf(uint256)": "6352211e",
			"renounceOwnership()": "715018a6",
			"safeTransferFrom(address,address,uint256)": "42842e0e",
			"safeTransferFrom(address,address,uint256,bytes)": "b88d4fde",
			"setApprovalForAll(address,bool)": "a22cb465",
			"setBaseURI(string)": "55f804b3",
			"supportsInterface(bytes4)": "01ffc9a7",
			"symbol()": "95d89b41",
			"tokenByIndex(uint256)": "4f6ccce7",
			"tokenOfOwnerByIndex(address,uint256)": "2f745c59",
			"tokenURI(uint256)": "c87b56dd",
			"totalSupply()": "18160ddd",
			"transferFrom(address,address,uint256)": "23b872dd",
			"transferOwnership(address)": "f2fde38b"
		}
	},
	"abi": [
		{
			"inputs": [],
			"stateMutability": "nonpayable",
			"type": "constructor"
		},
		{
			"anonymous": false,
			"inputs": [
				{
					"indexed": true,
					"internalType": "address",
					"name": "owner",
					"type": "address"
				},
				{
					"indexed": true,
					"internalType": "address",
					"name": "approved",
					"type": "address"
				},
				{
					"indexed": true,
					"internalType": "uint256",
					"name": "tokenId",
					"type": "uint256"
				}
			],
			"name": "Approval",
			"type": "event"
		},
		{
			"anonymous": false,
			"inputs": [
				{
					"indexed": true,
					"internalType": "address",
					"name": "owner",
					"type": "address"
				},
				{
					"indexed": true,
					"internalType": "address",
					"name": "operator",
					"type": "address"
				},
				{
					"indexed": false,
					"internalType": "bool",
					"name": "approved",
					"type": "bool"
				}
			],
			"name": "ApprovalForAll",
			"type": "event"
		},
		{
			"anonymous": false,
			"inputs": [
				{
					"indexed": true,
					"internalType": "address",
					"name": "previousOwner",
					"type": "address"
				},
				{
					"indexed": true,
					"internalType": "address",
					"name": "newOwner",
					"type": "address"
				}
			],
			"name": "OwnershipTransferred",
			"type": "event"
		},
		{
			"anonymous": false,
			"inputs": [
				{
					"indexed": true,
					"internalType": "address",
					"name": "from",
					"type": "address"
				},
				{
					"indexed": true,
					"internalType": "address",
					"name": "to",
					"type": "address"
				},
				{
					"indexed": true,
					"internalType": "uint256",
					"name": "tokenId",
					"type": "uint256"
				}
			],
			"name": "Transfer",
			"type": "event"
		},
		{
			"inputs": [],
			"name": "TokenId",
			"outputs": [
				{
					"internalType": "uint256",
					"name": "",
					"type": "uint256"
				}
			],
			"stateMutability": "view",
			"type": "function"
		},
		{
			"inputs": [
				{
					"internalType": "address",
					"name": "to",
					"type": "address"
				},
				{
					"internalType": "uint256",
					"name": "tokenId",
					"type": "uint256"
				}
			],
			"name": "approve",
			"outputs": [],
			"stateMutability": "nonpayable",
			"type": "function"
		},
		{
			"inputs": [
				{
					"internalType": "address",
					"name": "owner",
					"type": "address"
				}
			],
			"name": "balanceOf",
			"outputs": [
				{
					"internalType": "uint256",
					"name": "",
					"type": "uint256"
				}
			],
			"stateMutability": "view",
			"type": "function"
		},
		{
			"inputs": [
				{
					"internalType": "uint256",
					"name": "tokenId",
					"type": "uint256"
				}
			],
			"name": "getApproved",
			"outputs": [
				{
					"internalType": "address",
					"name": "",
					"type": "address"
				}
			],
			"stateMutability": "view",
			"type": "function"
		},
		{
			"inputs": [
				{
					"internalType": "address",
					"name": "owner",
					"type": "address"
				},
				{
					"internalType": "address",
					"name": "operator",
					"type": "address"
				}
			],
			"name": "isApprovedForAll",
			"outputs": [
				{
					"internalType": "bool",
					"name": "",
					"type": "bool"
				}
			],
			"stateMutability": "view",
			"type": "function"
		},
		{
			"inputs": [
				{
					"internalType": "address",
					"name": "to",
					"type": "address"
				}
			],
			"name": "mint",
			"outputs": [],
			"stateMutability": "nonpayable",
			"type": "function"
		},
		{
			"inputs": [],
			"name": "name",
			"outputs": [
				{
					"internalType": "string",
					"name": "",
					"type": "string"
				}
			],
			"stateMutability": "view",
			"type": "function"
		},
		{
			"inputs": [],
			"name": "owner",
			"outputs": [
				{
					"internalType": "address",
					"name": "",
					"type": "address"
				}
			],
			"stateMutability": "view",
			"type": "function"
		},
		{
			"inputs": [
				{
					"internalType": "uint256",
					"name": "tokenId",
					"type": "uint256"
				}
			],
			"name": "ownerOf",
			"outputs": [
				{
					"internalType": "address",
					"name": "",
					"type": "address"
				}
			],
			"stateMutability": "view",
			"type": "function"
		},
		{
			"inputs": [],
			"name": "renounceOwnership",
			"outputs": [],
			"stateMutability": "nonpayable",
			"type": "function"
		},
		{
			"inputs": [
				{
					"internalType": "address",
					"name": "from",
					"type": "address"
				},
				{
					"internalType": "address",
					"name": "to",
					"type": "address"
				},
				{
					"internalType": "uint256",
					"name": "tokenId",
					"type": "uint256"
				}
			],
			"name": "safeTransferFrom",
			"outputs": [],
			"stateMutability": "nonpayable",
			"type": "function"
		},
		{
			"inputs": [
				{
					"internalType": "address",
					"name": "from",
					"type": "address"
				},
				{
					"internalType": "address",
					"name": "to",
					"type": "address"
				},
				{
					"internalType": "uint256",
					"name": "tokenId",
					"type": "uint256"
				},
				{
					"internalType": "bytes",
					"name": "data",
					"type": "bytes"
				}
			],
			"name": "safeTransferFrom",
			"outputs": [],
			"stateMutability": "nonpayable",
			"type": "function"
		},
		{
			"inputs": [
				{
					"internalType": "address",
					"name": "operator",
					"type": "address"
				},
				{
					"internalType": "bool",
					"name": "approved",
					"type": "bool"
				}
			],
			"name": "setApprovalForAll",
			"outputs": [],
			"stateMutability": "nonpayable",
			"type": "function"
		},
		{
			"inputs": [
				{
					"internalType": "string",
					"name": "_baseURI",
					"type": "string"
				}
			],
			"name": "setBaseURI",
			"outputs": [],
			"stateMutability": "nonpayable",
			"type": "function"
		},
		{
			"inputs": [
				{
					"internalType": "bytes4",
					"name": "interfaceId",
					"type": "bytes4"
				}
			],
			"name": "supportsInterface",
			"outputs": [
				{
					"internalType": "bool",
					"name": "",
					"type": "bool"
				}
			],
			"stateMutability": "view",
			"type": "function"
		},
		{
			"inputs": [],
			"name": "symbol",
			"outputs": [
				{
					"internalType": "string",
					"name": "",
					"type": "string"
				}
			],
			"stateMutability": "view",
			"type": "function"
		},
		{
			"inputs": [
				{
					"internalType": "uint256",
					"name": "index",
					"type": "uint256"
				}
			],
			"name": "tokenByIndex",
			"outputs": [
				{
					"internalType": "uint256",
					"name": "",
					"type": "uint256"
				}
			],
			"stateMutability": "view",
			"type": "function"
		},
		{
			"inputs": [
				{
					"internalType": "address",
					"name": "owner",
					"type": "address"
				},
				{
					"internalType": "uint256",
					"name": "index",
					"type": "uint256"
				}
			],
			"name": "tokenOfOwnerByIndex",
			"outputs": [
				{
					"internalType": "uint256",
					"name": "",
					"type": "uint256"
				}
			],
			"stateMutability": "view",
			"type": "function"
		},
		{
			"inputs": [
				{
					"internalType": "uint256",
					"name": "tokenId",
					"type": "uint256"
				}
			],
			"name": "tokenURI",
			"outputs": [
				{
					"internalType": "string",
					"name": "",
					"type": "string"
				}
			],
			"stateMutability": "view",
			"type": "function"
		},
		{
			"inputs": [],
			"name": "totalSupply",
			"outputs": [
				{
					"internalType": "uint256",
					"name": "",
					"type": "uint256"
				}
			],
			"stateMutability": "view",
			"type": "function"
		},
		{
			"inputs": [
				{
					"internalType": "address",
					"name": "from",
					"type": "address"
				},
				{
					"internalType": "address",
					"name": "to",
					"type": "address"
				},
				{
					"internalType": "uint256",
					"name": "tokenId",
					"type": "uint256"
				}
			],
			"name": "transferFrom",
			"outputs": [],
			"stateMutability": "nonpayable",
			"type": "function"
		},
		{
			"inputs": [
				{
					"internalType": "address",
					"name": "newOwner",
					"type": "address"
				}
			],
			"name": "transferOwnership",
			"outputs": [],
			"stateMutability": "nonpayable",
			"type": "function"
		}
	]
}