{
	"data": {
		"bytecode": {
			"linkReferences": {},
			"object": "608060405234801561000f575f80fd5b506040518060400160405280600881526020017f426f6f6b6e6966790000000000000000000000000000000000000000000000008152506040518060400160405280600381526020017f424e460000000000000000000000000000000000000000000000000000000000815250815f908161008a91906103ca565b50806001908161009a91906103ca565b5050506100b96100ae6100c660201b60201c565b6100cd60201b60201c565b6001600781905550610499565b5f33905090565b5f60065f9054906101000a900473ffffffffffffffffffffffffffffffffffffffff1690508160065f6101000a81548173ffffffffffffffffffffffffffffffffffffffff021916908373ffffffffffffffffffffffffffffffffffffffff1602179055508173ffffffffffffffffffffffffffffffffffffffff168173ffffffffffffffffffffffffffffffffffffffff167f8be0079c531659141344cd1fd0a4f28419497f9722a3daafe3b4186f6b6457e060405160405180910390a35050565b5f81519050919050565b7f4e487b71000000000000000000000000000000000000000000000000000000005f52604160045260245ffd5b7f4e487b71000000000000000000000000000000000000000000000000000000005f52602260045260245ffd5b5f600282049050600182168061020b57607f821691505b60208210810361021e5761021d6101c7565b5b50919050565b5f819050815f5260205f209050919050565b5f6020601f8301049050919050565b5f82821b905092915050565b5f600883026102807fffffffffffffffffffffffffffffffffffffffffffffffffffffffffffffffff82610245565b61028a8683610245565b95508019841693508086168417925050509392505050565b5f819050919050565b5f819050919050565b5f6102ce6102c96102c4846102a2565b6102ab565b6102a2565b9050919050565b5f819050919050565b6102e7836102b4565b6102fb6102f3826102d5565b848454610251565b825550505050565b5f90565b61030f610303565b61031a8184846102de565b505050565b5b8181101561033d576103325f82610307565b600181019050610320565b5050565b601f8211156103825761035381610224565b61035c84610236565b8101602085101561036b578190505b61037f61037785610236565b83018261031f565b50505b505050565b5f82821c905092915050565b5f6103a25f1984600802610387565b1980831691505092915050565b5f6103ba8383610393565b9150826002028217905092915050565b6103d382610190565b67ffffffffffffffff8111156103ec576103eb61019a565b5b6103f682546101f4565b610401828285610341565b5f60209050601f831160018114610432575f8415610420578287015190505b61042a85826103af565b865550610491565b601f19841661044086610224565b5f5b8281101561046757848901518255600182019150602085019450602081019050610442565b868310156104845784890151610480601f891682610393565b8355505b6001600288020188555050505b505050505050565b612d1e806104a65f395ff3fe608060405234801561000f575f80fd5b506004361061011f575f3560e01c806370a08231116100ab578063a22cb4651161006f578063a22cb465146102f1578063b88d4fde1461030d578063c87b56dd14610329578063e985e9c514610359578063f2fde38b146103895761011f565b806370a082311461025d578063715018a61461028d5780638da5cb5b1461029757806395d89b41146102b55780639ffb8b49146102d35761011f565b806323b872dd116100f257806323b872dd146101bd57806342842e0e146101d957806355f804b3146101f55780636352211e146102115780636a627842146102415761011f565b806301ffc9a71461012357806306fdde0314610153578063081812fc14610171578063095ea7b3146101a1575b5f80fd5b61013d60048036038101906101389190611b82565b6103a5565b60405161014a9190611bc7565b60405180910390f35b61015b610486565b6040516101689190611c50565b60405180910390f35b61018b60048036038101906101869190611ca3565b610515565b6040516101989190611d0d565b60405180910390f35b6101bb60048036038101906101b69190611d50565b610557565b005b6101d760048036038101906101d29190611d8e565b61066d565b005b6101f360048036038101906101ee9190611d8e565b6106cd565b005b61020f600480360381019061020a9190611f0a565b6106ec565b005b61022b60048036038101906102269190611ca3565b610707565b6040516102389190611d0d565b60405180910390f35b61025b60048036038101906102569190611f51565b61078b565b005b61027760048036038101906102729190611f51565b6107b9565b6040516102849190611f8b565b60405180910390f35b61029561086d565b005b61029f610880565b6040516102ac9190611d0d565b60405180910390f35b6102bd6108a8565b6040516102ca9190611c50565b60405180910390f35b6102db610938565b6040516102e89190611f8b565b60405180910390f35b61030b60048036038101906103069190611fce565b61093e565b005b610327600480360381019061032291906120aa565b610954565b005b610343600480360381019061033e9190611ca3565b6109b6565b6040516103509190611c50565b60405180910390f35b610373600480360381019061036e919061212a565b610a1b565b6040516103809190611bc7565b60405180910390f35b6103a3600480360381019061039e9190611f51565b610aa9565b005b5f7f80ac58cd000000000000000000000000000000000000000000000000000000007bffffffffffffffffffffffffffffffffffffffffffffffffffffffff1916827bffffffffffffffffffffffffffffffffffffffffffffffffffffffff1916148061046f57507f5b5e139f000000000000000000000000000000000000000000000000000000007bffffffffffffffffffffffffffffffffffffffffffffffffffffffff1916827bffffffffffffffffffffffffffffffffffffffffffffffffffffffff1916145b8061047f575061047e82610b2b565b5b9050919050565b60605f805461049490612195565b80601f01602080910402602001604051908101604052809291908181526020018280546104c090612195565b801561050b5780601f106104e25761010080835404028352916020019161050b565b820191905f5260205f20905b8154815290600101906020018083116104ee57829003601f168201915b5050505050905090565b5f61051f82610b94565b60045f8381526020019081526020015f205f9054906101000a900473ffffffffffffffffffffffffffffffffffffffff169050919050565b5f61056182610707565b90508073ffffffffffffffffffffffffffffffffffffffff168373ffffffffffffffffffffffffffffffffffffffff16036105d1576040517f08c379a00000000000000000000000000000000000000000000000000000000081526004016105c890612235565b60405180910390fd5b8073ffffffffffffffffffffffffffffffffffffffff166105f0610bdf565b73ffffffffffffffffffffffffffffffffffffffff16148061061f575061061e81610619610bdf565b610a1b565b5b61065e576040517f08c379a0000000000000000000000000000000000000000000000000000000008152600401610655906122c3565b60405180910390fd5b6106688383610be6565b505050565b61067e610678610bdf565b82610c9c565b6106bd576040517f08c379a00000000000000000000000000000000000000000000000000000000081526004016106b490612351565b60405180910390fd5b6106c8838383610d30565b505050565b6106e783838360405180602001604052805f815250610954565b505050565b6106f461101c565b8060089081610703919061250c565b5050565b5f806107128361109a565b90505f73ffffffffffffffffffffffffffffffffffffffff168173ffffffffffffffffffffffffffffffffffffffff1603610782576040517f08c379a000000000000000000000000000000000000000000000000000000000815260040161077990612625565b60405180910390fd5b80915050919050565b61079361101c565b61079f816007546110d3565b60075f8154809291906107b190612670565b919050555050565b5f8073ffffffffffffffffffffffffffffffffffffffff168273ffffffffffffffffffffffffffffffffffffffff1603610828576040517f08c379a000000000000000000000000000000000000000000000000000000000815260040161081f90612727565b60405180910390fd5b60035f8373ffffffffffffffffffffffffffffffffffffffff1673ffffffffffffffffffffffffffffffffffffffff1681526020019081526020015f20549050919050565b61087561101c565b61087e5f6110f0565b565b5f60065f9054906101000a900473ffffffffffffffffffffffffffffffffffffffff16905090565b6060600180546108b790612195565b80601f01602080910402602001604051908101604052809291908181526020018280546108e390612195565b801561092e5780601f106109055761010080835404028352916020019161092e565b820191905f5260205f20905b81548152906001019060200180831161091157829003601f168201915b5050505050905090565b60075481565b610950610949610bdf565b83836111b3565b5050565b61096561095f610bdf565b83610c9c565b6109a4576040517f08c379a000000000000000000000000000000000000000000000000000000000815260040161099b90612351565b60405180910390fd5b6109b08484848461131a565b50505050565b60606109c182610b94565b5f6109ca611376565b90505f8151116109e85760405180602001604052805f815250610a13565b806109f28461138c565b604051602001610a0392919061277f565b6040516020818303038152906040525b915050919050565b5f60055f8473ffffffffffffffffffffffffffffffffffffffff1673ffffffffffffffffffffffffffffffffffffffff1681526020019081526020015f205f8373ffffffffffffffffffffffffffffffffffffffff1673ffffffffffffffffffffffffffffffffffffffff1681526020019081526020015f205f9054906101000a900460ff16905092915050565b610ab161101c565b5f73ffffffffffffffffffffffffffffffffffffffff168173ffffffffffffffffffffffffffffffffffffffff1603610b1f576040517f08c379a0000000000000000000000000000000000000000000000000000000008152600401610b1690612812565b60405180910390fd5b610b28816110f0565b50565b5f7f01ffc9a7000000000000000000000000000000000000000000000000000000007bffffffffffffffffffffffffffffffffffffffffffffffffffffffff1916827bffffffffffffffffffffffffffffffffffffffffffffffffffffffff1916149050919050565b610b9d81611456565b610bdc576040517f08c379a0000000000000000000000000000000000000000000000000000000008152600401610bd390612625565b60405180910390fd5b50565b5f33905090565b8160045f8381526020019081526020015f205f6101000a81548173ffffffffffffffffffffffffffffffffffffffff021916908373ffffffffffffffffffffffffffffffffffffffff160217905550808273ffffffffffffffffffffffffffffffffffffffff16610c5683610707565b73ffffffffffffffffffffffffffffffffffffffff167f8c5be1e5ebec7d5bd14f71427d1e84f3dd0314c0f7b2291e5b200ac8c7c3b92560405160405180910390a45050565b5f80610ca783610707565b90508073ffffffffffffffffffffffffffffffffffffffff168473ffffffffffffffffffffffffffffffffffffffff161480610ce95750610ce88185610a1b565b5b80610d2757508373ffffffffffffffffffffffffffffffffffffffff16610d0f84610515565b73ffffffffffffffffffffffffffffffffffffffff16145b91505092915050565b8273ffffffffffffffffffffffffffffffffffffffff16610d5082610707565b73ffffffffffffffffffffffffffffffffffffffff1614610da6576040517f08c379a0000000000000000000000000000000000000000000000000000000008152600401610d9d906128a0565b60405180910390fd5b5f73ffffffffffffffffffffffffffffffffffffffff168273ffffffffffffffffffffffffffffffffffffffff1603610e14576040517f08c379a0000000000000000000000000000000000000000000000000000000008152600401610e0b9061292e565b60405180910390fd5b610e218383836001611496565b8273ffffffffffffffffffffffffffffffffffffffff16610e4182610707565b73ffffffffffffffffffffffffffffffffffffffff1614610e97576040517f08c379a0000000000000000000000000000000000000000000000000000000008152600401610e8e906128a0565b60405180910390fd5b60045f8281526020019081526020015f205f6101000a81549073ffffffffffffffffffffffffffffffffffffffff0219169055600160035f8573ffffffffffffffffffffffffffffffffffffffff1673ffffffffffffffffffffffffffffffffffffffff1681526020019081526020015f205f8282540392505081905550600160035f8473ffffffffffffffffffffffffffffffffffffffff1673ffffffffffffffffffffffffffffffffffffffff1681526020019081526020015f205f82825401925050819055508160025f8381526020019081526020015f205f6101000a81548173ffffffffffffffffffffffffffffffffffffffff021916908373ffffffffffffffffffffffffffffffffffffffff160217905550808273ffffffffffffffffffffffffffffffffffffffff168473ffffffffffffffffffffffffffffffffffffffff167fddf252ad1be2c89b69c2b068fc378daa952ba7f163c4a11628f55a4df523b3ef60405160405180910390a461101783838360016115b4565b505050565b611024610bdf565b73ffffffffffffffffffffffffffffffffffffffff16611042610880565b73ffffffffffffffffffffffffffffffffffffffff1614611098576040517f08c379a000000000000000000000000000000000000000000000000000000000815260040161108f90612996565b60405180910390fd5b565b5f60025f8381526020019081526020015f205f9054906101000a900473ffffffffffffffffffffffffffffffffffffffff169050919050565b6110ec828260405180602001604052805f8152506115ba565b5050565b5f60065f9054906101000a900473ffffffffffffffffffffffffffffffffffffffff1690508160065f6101000a81548173ffffffffffffffffffffffffffffffffffffffff021916908373ffffffffffffffffffffffffffffffffffffffff1602179055508173ffffffffffffffffffffffffffffffffffffffff168173ffffffffffffffffffffffffffffffffffffffff167f8be0079c531659141344cd1fd0a4f28419497f9722a3daafe3b4186f6b6457e060405160405180910390a35050565b8173ffffffffffffffffffffffffffffffffffffffff168373ffffffffffffffffffffffffffffffffffffffff1603611221576040517f08c379a0000000000000000000000000000000000000000000000000000000008152600401611218906129fe565b60405180910390fd5b8060055f8573ffffffffffffffffffffffffffffffffffffffff1673ffffffffffffffffffffffffffffffffffffffff1681526020019081526020015f205f8473ffffffffffffffffffffffffffffffffffffffff1673ffffffffffffffffffffffffffffffffffffffff1681526020019081526020015f205f6101000a81548160ff0219169083151502179055508173ffffffffffffffffffffffffffffffffffffffff168373ffffffffffffffffffffffffffffffffffffffff167f17307eab39ab6107e8899845ad3d59bd9653f200f220920489ca2b5937696c318360405161130d9190611bc7565b60405180910390a3505050565b611325848484610d30565b61133184848484611614565b611370576040517f08c379a000000000000000000000000000000000000000000000000000000000815260040161136790612a8c565b60405180910390fd5b50505050565b606060405180602001604052805f815250905090565b60605f600161139a84611796565b0190505f8167ffffffffffffffff8111156113b8576113b7611de6565b5b6040519080825280601f01601f1916602001820160405280156113ea5781602001600182028036833780820191505090505b5090505f82602001820190505b60011561144b578080600190039150507f3031323334353637383961626364656600000000000000000000000000000000600a86061a8153600a85816114405761143f612aaa565b5b0494505f85036113f7575b819350505050919050565b5f8073ffffffffffffffffffffffffffffffffffffffff166114778361109a565b73ffffffffffffffffffffffffffffffffffffffff1614159050919050565b60018111156115ae575f73ffffffffffffffffffffffffffffffffffffffff168473ffffffffffffffffffffffffffffffffffffffff1614611526578060035f8673ffffffffffffffffffffffffffffffffffffffff1673ffffffffffffffffffffffffffffffffffffffff1681526020019081526020015f205f82825461151e9190612ad7565b925050819055505b5f73ffffffffffffffffffffffffffffffffffffffff168373ffffffffffffffffffffffffffffffffffffffff16146115ad578060035f8573ffffffffffffffffffffffffffffffffffffffff1673ffffffffffffffffffffffffffffffffffffffff1681526020019081526020015f205f8282546115a59190612b0a565b925050819055505b5b50505050565b50505050565b6115c483836118e7565b6115d05f848484611614565b61160f576040517f08c379a000000000000000000000000000000000000000000000000000000000815260040161160690612a8c565b60405180910390fd5b505050565b5f6116348473ffffffffffffffffffffffffffffffffffffffff16611afa565b15611789578373ffffffffffffffffffffffffffffffffffffffff1663150b7a0261165d610bdf565b8786866040518563ffffffff1660e01b815260040161167f9493929190612b8f565b6020604051808303815f875af19250505080156116ba57506040513d601f19601f820116820180604052508101906116b79190612bed565b60015b611739573d805f81146116e8576040519150601f19603f3d011682016040523d82523d5f602084013e6116ed565b606091505b505f815103611731576040517f08c379a000000000000000000000000000000000000000000000000000000000815260040161172890612a8c565b60405180910390fd5b805181602001fd5b63150b7a0260e01b7bffffffffffffffffffffffffffffffffffffffffffffffffffffffff1916817bffffffffffffffffffffffffffffffffffffffffffffffffffffffff19161491505061178e565b600190505b949350505050565b5f805f90507a184f03e93ff9f4daa797ed6e38ed64bf6a1f01000000000000000083106117f2577a184f03e93ff9f4daa797ed6e38ed64bf6a1f01000000000000000083816117e8576117e7612aaa565b5b0492506040810190505b6d04ee2d6d415b85acef8100000000831061182f576d04ee2d6d415b85acef8100000000838161182557611824612aaa565b5b0492506020810190505b662386f26fc10000831061185e57662386f26fc10000838161185457611853612aaa565b5b0492506010810190505b6305f5e1008310611887576305f5e100838161187d5761187c612aaa565b5b0492506008810190505b61271083106118ac5761271083816118a2576118a1612aaa565b5b0492506004810190505b606483106118cf57606483816118c5576118c4612aaa565b5b0492506002810190505b600a83106118de576001810190505b80915050919050565b5f73ffffffffffffffffffffffffffffffffffffffff168273ffffffffffffffffffffffffffffffffffffffff1603611955576040517f08c379a000000000000000000000000000000000000000000000000000000000815260040161194c90612c62565b60405180910390fd5b61195e81611456565b1561199e576040517f08c379a000000000000000000000000000000000000000000000000000000000815260040161199590612cca565b60405180910390fd5b6119ab5f83836001611496565b6119b481611456565b156119f4576040517f08c379a00000000000000000000000000000000000000000000000000000000081526004016119eb90612cca565b60405180910390fd5b600160035f8473ffffffffffffffffffffffffffffffffffffffff1673ffffffffffffffffffffffffffffffffffffffff1681526020019081526020015f205f82825401925050819055508160025f8381526020019081526020015f205f6101000a81548173ffffffffffffffffffffffffffffffffffffffff021916908373ffffffffffffffffffffffffffffffffffffffff160217905550808273ffffffffffffffffffffffffffffffffffffffff165f73ffffffffffffffffffffffffffffffffffffffff167fddf252ad1be2c89b69c2b068fc378daa952ba7f163c4a11628f55a4df523b3ef60405160405180910390a4611af65f838360016115b4565b5050565b5f808273ffffffffffffffffffffffffffffffffffffffff163b119050919050565b5f604051905090565b5f80fd5b5f80fd5b5f7fffffffff0000000000000000000000000000000000000000000000000000000082169050919050565b611b6181611b2d565b8114611b6b575f80fd5b50565b5f81359050611b7c81611b58565b92915050565b5f60208284031215611b9757611b96611b25565b5b5f611ba484828501611b6e565b91505092915050565b5f8115159050919050565b611bc181611bad565b82525050565b5f602082019050611bda5f830184611bb8565b92915050565b5f81519050919050565b5f82825260208201905092915050565b8281835e5f83830152505050565b5f601f19601f8301169050919050565b5f611c2282611be0565b611c2c8185611bea565b9350611c3c818560208601611bfa565b611c4581611c08565b840191505092915050565b5f6020820190508181035f830152611c688184611c18565b905092915050565b5f819050919050565b611c8281611c70565b8114611c8c575f80fd5b50565b5f81359050611c9d81611c79565b92915050565b5f60208284031215611cb857611cb7611b25565b5b5f611cc584828501611c8f565b91505092915050565b5f73ffffffffffffffffffffffffffffffffffffffff82169050919050565b5f611cf782611cce565b9050919050565b611d0781611ced565b82525050565b5f602082019050611d205f830184611cfe565b92915050565b611d2f81611ced565b8114611d39575f80fd5b50565b5f81359050611d4a81611d26565b92915050565b5f8060408385031215611d6657611d65611b25565b5b5f611d7385828601611d3c565b9250506020611d8485828601611c8f565b9150509250929050565b5f805f60608486031215611da557611da4611b25565b5b5f611db286828701611d3c565b9350506020611dc386828701611d3c565b9250506040611dd486828701611c8f565b9150509250925092565b5f80fd5b5f80fd5b7f4e487b71000000000000000000000000000000000000000000000000000000005f52604160045260245ffd5b611e1c82611c08565b810181811067ffffffffffffffff82111715611e3b57611e3a611de6565b5b80604052505050565b5f611e4d611b1c565b9050611e598282611e13565b919050565b5f67ffffffffffffffff821115611e7857611e77611de6565b5b611e8182611c08565b9050602081019050919050565b828183375f83830152505050565b5f611eae611ea984611e5e565b611e44565b905082815260208101848484011115611eca57611ec9611de2565b5b611ed5848285611e8e565b509392505050565b5f82601f830112611ef157611ef0611dde565b5b8135611f01848260208601611e9c565b91505092915050565b5f60208284031215611f1f57611f1e611b25565b5b5f82013567ffffffffffffffff811115611f3c57611f3b611b29565b5b611f4884828501611edd565b91505092915050565b5f60208284031215611f6657611f65611b25565b5b5f611f7384828501611d3c565b91505092915050565b611f8581611c70565b82525050565b5f602082019050611f9e5f830184611f7c565b92915050565b611fad81611bad565b8114611fb7575f80fd5b50565b5f81359050611fc881611fa4565b92915050565b5f8060408385031215611fe457611fe3611b25565b5b5f611ff185828601611d3c565b925050602061200285828601611fba565b9150509250929050565b5f67ffffffffffffffff82111561202657612025611de6565b5b61202f82611c08565b9050602081019050919050565b5f61204e6120498461200c565b611e44565b90508281526020810184848401111561206a57612069611de2565b5b612075848285611e8e565b509392505050565b5f82601f83011261209157612090611dde565b5b81356120a184826020860161203c565b91505092915050565b5f805f80608085870312156120c2576120c1611b25565b5b5f6120cf87828801611d3c565b94505060206120e087828801611d3c565b93505060406120f187828801611c8f565b925050606085013567ffffffffffffffff81111561211257612111611b29565b5b61211e8782880161207d565b91505092959194509250565b5f80604083850312156121405761213f611b25565b5b5f61214d85828601611d3c565b925050602061215e85828601611d3c565b9150509250929050565b7f4e487b71000000000000000000000000000000000000000000000000000000005f52602260045260245ffd5b5f60028204905060018216806121ac57607f821691505b6020821081036121bf576121be612168565b5b50919050565b7f4552433732313a20617070726f76616c20746f2063757272656e74206f776e655f8201527f7200000000000000000000000000000000000000000000000000000000000000602082015250565b5f61221f602183611bea565b915061222a826121c5565b604082019050919050565b5f6020820190508181035f83015261224c81612213565b9050919050565b7f4552433732313a20617070726f76652063616c6c6572206973206e6f7420746f5f8201527f6b656e206f776e6572206f7220617070726f76656420666f7220616c6c000000602082015250565b5f6122ad603d83611bea565b91506122b882612253565b604082019050919050565b5f6020820190508181035f8301526122da816122a1565b9050919050565b7f4552433732313a2063616c6c6572206973206e6f7420746f6b656e206f776e655f8201527f72206f7220617070726f76656400000000000000000000000000000000000000602082015250565b5f61233b602d83611bea565b9150612346826122e1565b604082019050919050565b5f6020820190508181035f8301526123688161232f565b9050919050565b5f819050815f5260205f209050919050565b5f6020601f8301049050919050565b5f82821b905092915050565b5f600883026123cb7fffffffffffffffffffffffffffffffffffffffffffffffffffffffffffffffff82612390565b6123d58683612390565b95508019841693508086168417925050509392505050565b5f819050919050565b5f61241061240b61240684611c70565b6123ed565b611c70565b9050919050565b5f819050919050565b612429836123f6565b61243d61243582612417565b84845461239c565b825550505050565b5f90565b612451612445565b61245c818484612420565b505050565b5b8181101561247f576124745f82612449565b600181019050612462565b5050565b601f8211156124c4576124958161236f565b61249e84612381565b810160208510156124ad578190505b6124c16124b985612381565b830182612461565b50505b505050565b5f82821c905092915050565b5f6124e45f19846008026124c9565b1980831691505092915050565b5f6124fc83836124d5565b9150826002028217905092915050565b61251582611be0565b67ffffffffffffffff81111561252e5761252d611de6565b5b6125388254612195565b612543828285612483565b5f60209050601f831160018114612574575f8415612562578287015190505b61256c85826124f1565b8655506125d3565b601f1984166125828661236f565b5f5b828110156125a957848901518255600182019150602085019450602081019050612584565b868310156125c657848901516125c2601f8916826124d5565b8355505b6001600288020188555050505b505050505050565b7f4552433732313a20696e76616c696420746f6b656e20494400000000000000005f82015250565b5f61260f601883611bea565b915061261a826125db565b602082019050919050565b5f6020820190508181035f83015261263c81612603565b9050919050565b7f4e487b71000000000000000000000000000000000000000000000000000000005f52601160045260245ffd5b5f61267a82611c70565b91507fffffffffffffffffffffffffffffffffffffffffffffffffffffffffffffffff82036126ac576126ab612643565b5b600182019050919050565b7f4552433732313a2061646472657373207a65726f206973206e6f7420612076615f8201527f6c6964206f776e65720000000000000000000000000000000000000000000000602082015250565b5f612711602983611bea565b915061271c826126b7565b604082019050919050565b5f6020820190508181035f83015261273e81612705565b9050919050565b5f81905092915050565b5f61275982611be0565b6127638185612745565b9350612773818560208601611bfa565b80840191505092915050565b5f61278a828561274f565b9150612796828461274f565b91508190509392505050565b7f4f776e61626c653a206e6577206f776e657220697320746865207a65726f20615f8201527f6464726573730000000000000000000000000000000000000000000000000000602082015250565b5f6127fc602683611bea565b9150612807826127a2565b604082019050919050565b5f6020820190508181035f830152612829816127f0565b9050919050565b7f4552433732313a207472616e736665722066726f6d20696e636f7272656374205f8201527f6f776e6572000000000000000000000000000000000000000000000000000000602082015250565b5f61288a602583611bea565b915061289582612830565b604082019050919050565b5f6020820190508181035f8301526128b78161287e565b9050919050565b7f4552433732313a207472616e7366657220746f20746865207a65726f206164645f8201527f7265737300000000000000000000000000000000000000000000000000000000602082015250565b5f612918602483611bea565b9150612923826128be565b604082019050919050565b5f6020820190508181035f8301526129458161290c565b9050919050565b7f4f776e61626c653a2063616c6c6572206973206e6f7420746865206f776e65725f82015250565b5f612980602083611bea565b915061298b8261294c565b602082019050919050565b5f6020820190508181035f8301526129ad81612974565b9050919050565b7f4552433732313a20617070726f766520746f2063616c6c6572000000000000005f82015250565b5f6129e8601983611bea565b91506129f3826129b4565b602082019050919050565b5f6020820190508181035f830152612a15816129dc565b9050919050565b7f4552433732313a207472616e7366657220746f206e6f6e2045524337323152655f8201527f63656976657220696d706c656d656e7465720000000000000000000000000000602082015250565b5f612a76603283611bea565b9150612a8182612a1c565b604082019050919050565b5f6020820190508181035f830152612aa381612a6a565b9050919050565b7f4e487b71000000000000000000000000000000000000000000000000000000005f52601260045260245ffd5b5f612ae182611c70565b9150612aec83611c70565b9250828203905081811115612b0457612b03612643565b5b92915050565b5f612b1482611c70565b9150612b1f83611c70565b9250828201905080821115612b3757612b36612643565b5b92915050565b5f81519050919050565b5f82825260208201905092915050565b5f612b6182612b3d565b612b6b8185612b47565b9350612b7b818560208601611bfa565b612b8481611c08565b840191505092915050565b5f608082019050612ba25f830187611cfe565b612baf6020830186611cfe565b612bbc6040830185611f7c565b8181036060830152612bce8184612b57565b905095945050505050565b5f81519050612be781611b58565b92915050565b5f60208284031215612c0257612c01611b25565b5b5f612c0f84828501612bd9565b91505092915050565b7f4552433732313a206d696e7420746f20746865207a65726f20616464726573735f82015250565b5f612c4c602083611bea565b9150612c5782612c18565b602082019050919050565b5f6020820190508181035f830152612c7981612c40565b9050919050565b7f4552433732313a20746f6b656e20616c7265616479206d696e746564000000005f82015250565b5f612cb4601c83611bea565b9150612cbf82612c80565b602082019050919050565b5f6020820190508181035f830152612ce181612ca8565b905091905056fea2646970667358221220253a161224b13155b328e2168ded665e5f7860c82c8856c4c4b021f0c13a3ef364736f6c634300081a0033",
			"opcodes": "PUSH1 0x80 PUSH1 0x40 MSTORE CALLVALUE DUP1 ISZERO PUSH2 0xF JUMPI PUSH0 DUP1 REVERT JUMPDEST POP PUSH1 0x40 MLOAD DUP1 PUSH1 0x40 ADD PUSH1 0x40 MSTORE DUP1 PUSH1 0x8 DUP2 MSTORE PUSH1 0x20 ADD PUSH32 0x426F6F6B6E696679000000000000000000000000000000000000000000000000 DUP2 MSTORE POP PUSH1 0x40 MLOAD DUP1 PUSH1 0x40 ADD PUSH1 0x40 MSTORE DUP1 PUSH1 0x3 DUP2 MSTORE PUSH1 0x20 ADD PUSH32 0x424E460000000000000000000000000000000000000000000000000000000000 DUP2 MSTORE POP DUP2 PUSH0 SWAP1 DUP2 PUSH2 0x8A SWAP2 SWAP1 PUSH2 0x3CA JUMP JUMPDEST POP DUP1 PUSH1 0x1 SWAP1 DUP2 PUSH2 0x9A SWAP2 SWAP1 PUSH2 0x3CA JUMP JUMPDEST POP POP POP PUSH2 0xB9 PUSH2 0xAE PUSH2 0xC6 PUSH1 0x20 SHL PUSH1 0x20 SHR JUMP JUMPDEST PUSH2 0xCD PUSH1 0x20 SHL PUSH1 0x20 SHR JUMP JUMPDEST PUSH1 0x1 PUSH1 0x7 DUP2 SWAP1 SSTORE POP PUSH2 0x499 JUMP JUMPDEST PUSH0 CALLER SWAP1 POP SWAP1 JUMP JUMPDEST PUSH0 PUSH1 0x6 PUSH0 SWAP1 SLOAD SWAP1 PUSH2 0x100 EXP SWAP1 DIV PUSH20 0xFFFFFFFFFFFFFFFFFFFFFFFFFFFFFFFFFFFFFFFF AND SWAP1 POP DUP2 PUSH1 0x6 PUSH0 PUSH2 0x100 EXP DUP2 SLOAD DUP2 PUSH20 0xFFFFFFFFFFFFFFFFFFFFFFFFFFFFFFFFFFFFFFFF MUL NOT AND SWAP1 DUP4 PUSH20 0xFFFFFFFFFFFFFFFFFFFFFFFFFFFFFFFFFFFFFFFF AND MUL OR SWAP1 SSTORE POP DUP2 PUSH20 0xFFFFFFFFFFFFFFFFFFFFFFFFFFFFFFFFFFFFFFFF AND DUP2 PUSH20 0xFFFFFFFFFFFFFFFFFFFFFFFFFFFFFFFFFFFFFFFF AND PUSH32 0x8BE0079C531659141344CD1FD0A4F28419497F9722A3DAAFE3B4186F6B6457E0 PUSH1 0x40 MLOAD PUSH1 0x40 MLOAD DUP1 SWAP2 SUB SWAP1 LOG3 POP POP JUMP JUMPDEST PUSH0 DUP2 MLOAD SWAP1 POP SWAP2 SWAP1 POP JUMP JUMPDEST PUSH32 0x4E487B7100000000000000000000000000000000000000000000000000000000 PUSH0 MSTORE PUSH1 0x41 PUSH1 0x4 MSTORE PUSH1 0x24 PUSH0 REVERT JUMPDEST PUSH32 0x4E487B7100000000000000000000000000000000000000000000000000000000 PUSH0 MSTORE PUSH1 0x22 PUSH1 0x4 MSTORE PUSH1 0x24 PUSH0 REVERT JUMPDEST PUSH0 PUSH1 0x2 DUP3 DIV SWAP1 POP PUSH1 0x1 DUP3 AND DUP1 PUSH2 0x20B JUMPI PUSH1 0x7F DUP3 AND SWAP2 POP JUMPDEST PUSH1 0x20 DUP3 LT DUP2 SUB PUSH2 0x21E JUMPI PUSH2 0x21D PUSH2 0x1C7 JUMP JUMPDEST JUMPDEST POP SWAP2 SWAP1 POP JUMP JUMPDEST PUSH0 DUP2 SWAP1 POP DUP2 PUSH0 MSTORE PUSH1 0x20 PUSH0 KECCAK256 SWAP1 POP SWAP2 SWAP1 POP JUMP JUMPDEST PUSH0 PUSH1 0x20 PUSH1 0x1F DUP4 ADD DIV SWAP1 POP SWAP2 SWAP1 POP JUMP JUMPDEST PUSH0 DUP3 DUP3 SHL SWAP1 POP SWAP3 SWAP2 POP POP JUMP JUMPDEST PUSH0 PUSH1 0x8 DUP4 MUL PUSH2 0x280 PUSH32 0xFFFFFFFFFFFFFFFFFFFFFFFFFFFFFFFFFFFFFFFFFFFFFFFFFFFFFFFFFFFFFFFF DUP3 PUSH2 0x245 JUMP JUMPDEST PUSH2 0x28A DUP7 DUP4 PUSH2 0x245 JUMP JUMPDEST SWAP6 POP DUP1 NOT DUP5 AND SWAP4 POP DUP1 DUP7 AND DUP5 OR SWAP3 POP POP POP SWAP4 SWAP3 POP POP POP JUMP JUMPDEST PUSH0 DUP2 SWAP1 POP SWAP2 SWAP1 POP JUMP JUMPDEST PUSH0 DUP2 SWAP1 POP SWAP2 SWAP1 POP JUMP JUMPDEST PUSH0 PUSH2 0x2CE PUSH2 0x2C9 PUSH2 0x2C4 DUP5 PUSH2 0x2A2 JUMP JUMPDEST PUSH2 0x2AB JUMP JUMPDEST PUSH2 0x2A2 JUMP JUMPDEST SWAP1 POP SWAP2 SWAP1 POP JUMP JUMPDEST PUSH0 DUP2 SWAP1 POP SWAP2 SWAP1 POP JUMP JUMPDEST PUSH2 0x2E7 DUP4 PUSH2 0x2B4 JUMP JUMPDEST PUSH2 0x2FB PUSH2 0x2F3 DUP3 PUSH2 0x2D5 JUMP JUMPDEST DUP5 DUP5 SLOAD PUSH2 0x251 JUMP JUMPDEST DUP3 SSTORE POP POP POP POP JUMP JUMPDEST PUSH0 SWAP1 JUMP JUMPDEST PUSH2 0x30F PUSH2 0x303 JUMP JUMPDEST PUSH2 0x31A DUP2 DUP5 DUP5 PUSH2 0x2DE JUMP JUMPDEST POP POP POP JUMP JUMPDEST JUMPDEST DUP2 DUP2 LT ISZERO PUSH2 0x33D JUMPI PUSH2 0x332 PUSH0 DUP3 PUSH2 0x307 JUMP JUMPDEST PUSH1 0x1 DUP2 ADD SWAP1 POP PUSH2 0x320 JUMP JUMPDEST POP POP JUMP JUMPDEST PUSH1 0x1F DUP3 GT ISZERO PUSH2 0x382 JUMPI PUSH2 0x353 DUP2 PUSH2 0x224 JUMP JUMPDEST PUSH2 0x35C DUP5 PUSH2 0x236 JUMP JUMPDEST DUP2 ADD PUSH1 0x20 DUP6 LT ISZERO PUSH2 0x36B JUMPI DUP2 SWAP1 POP JUMPDEST PUSH2 0x37F PUSH2 0x377 DUP6 PUSH2 0x236 JUMP JUMPDEST DUP4 ADD DUP3 PUSH2 0x31F JUMP JUMPDEST POP POP JUMPDEST POP POP POP JUMP JUMPDEST PUSH0 DUP3 DUP3 SHR SWAP1 POP SWAP3 SWAP2 POP POP JUMP JUMPDEST PUSH0 PUSH2 0x3A2 PUSH0 NOT DUP5 PUSH1 0x8 MUL PUSH2 0x387 JUMP JUMPDEST NOT DUP1 DUP4 AND SWAP2 POP POP SWAP3 SWAP2 POP POP JUMP JUMPDEST PUSH0 PUSH2 0x3BA DUP4 DUP4 PUSH2 0x393 JUMP JUMPDEST SWAP2 POP DUP3 PUSH1 0x2 MUL DUP3 OR SWAP1 POP SWAP3 SWAP2 POP POP JUMP JUMPDEST PUSH2 0x3D3 DUP3 PUSH2 0x190 JUMP JUMPDEST PUSH8 0xFFFFFFFFFFFFFFFF DUP2 GT ISZERO PUSH2 0x3EC JUMPI PUSH2 0x3EB PUSH2 0x19A JUMP JUMPDEST JUMPDEST PUSH2 0x3F6 DUP3 SLOAD PUSH2 0x1F4 JUMP JUMPDEST PUSH2 0x401 DUP3 DUP3 DUP6 PUSH2 0x341 JUMP JUMPDEST PUSH0 PUSH1 0x20 SWAP1 POP PUSH1 0x1F DUP4 GT PUSH1 0x1 DUP2 EQ PUSH2 0x432 JUMPI PUSH0 DUP5 ISZERO PUSH2 0x420 JUMPI DUP3 DUP8 ADD MLOAD SWAP1 POP JUMPDEST PUSH2 0x42A DUP6 DUP3 PUSH2 0x3AF JUMP JUMPDEST DUP7 SSTORE POP PUSH2 0x491 JUMP JUMPDEST PUSH1 0x1F NOT DUP5 AND PUSH2 0x440 DUP7 PUSH2 0x224 JUMP JUMPDEST PUSH0 JUMPDEST DUP3 DUP2 LT ISZERO PUSH2 0x467 JUMPI DUP5 DUP10 ADD MLOAD DUP3 SSTORE PUSH1 0x1 DUP3 ADD SWAP2 POP PUSH1 0x20 DUP6 ADD SWAP5 POP PUSH1 0x20 DUP2 ADD SWAP1 POP PUSH2 0x442 JUMP JUMPDEST DUP7 DUP4 LT ISZERO PUSH2 0x484 JUMPI DUP5 DUP10 ADD MLOAD PUSH2 0x480 PUSH1 0x1F DUP10 AND DUP3 PUSH2 0x393 JUMP JUMPDEST DUP4 SSTORE POP JUMPDEST PUSH1 0x1 PUSH1 0x2 DUP9 MUL ADD DUP9 SSTORE POP POP POP JUMPDEST POP POP POP POP POP POP JUMP JUMPDEST PUSH2 0x2D1E DUP1 PUSH2 0x4A6 PUSH0 CODECOPY PUSH0 RETURN INVALID PUSH1 0x80 PUSH1 0x40 MSTORE CALLVALUE DUP1 ISZERO PUSH2 0xF JUMPI PUSH0 DUP1 REVERT JUMPDEST POP PUSH1 0x4 CALLDATASIZE LT PUSH2 0x11F JUMPI PUSH0 CALLDATALOAD PUSH1 0xE0 SHR DUP1 PUSH4 0x70A08231 GT PUSH2 0xAB JUMPI DUP1 PUSH4 0xA22CB465 GT PUSH2 0x6F JUMPI DUP1 PUSH4 0xA22CB465 EQ PUSH2 0x2F1 JUMPI DUP1 PUSH4 0xB88D4FDE EQ PUSH2 0x30D JUMPI DUP1 PUSH4 0xC87B56DD EQ PUSH2 0x329 JUMPI DUP1 PUSH4 0xE985E9C5 EQ PUSH2 0x359 JUMPI DUP1 PUSH4 0xF2FDE38B EQ PUSH2 0x389 JUMPI PUSH2 0x11F JUMP JUMPDEST DUP1 PUSH4 0x70A08231 EQ PUSH2 0x25D JUMPI DUP1 PUSH4 0x715018A6 EQ PUSH2 0x28D JUMPI DUP1 PUSH4 0x8DA5CB5B EQ PUSH2 0x297 JUMPI DUP1 PUSH4 0x95D89B41 EQ PUSH2 0x2B5 JUMPI DUP1 PUSH4 0x9FFB8B49 EQ PUSH2 0x2D3 JUMPI PUSH2 0x11F JUMP JUMPDEST DUP1 PUSH4 0x23B872DD GT PUSH2 0xF2 JUMPI DUP1 PUSH4 0x23B872DD EQ PUSH2 0x1BD JUMPI DUP1 PUSH4 0x42842E0E EQ PUSH2 0x1D9 JUMPI DUP1 PUSH4 0x55F804B3 EQ PUSH2 0x1F5 JUMPI DUP1 PUSH4 0x6352211E EQ PUSH2 0x211 JUMPI DUP1 PUSH4 0x6A627842 EQ PUSH2 0x241 JUMPI PUSH2 0x11F JUMP JUMPDEST DUP1 PUSH4 0x1FFC9A7 EQ PUSH2 0x123 JUMPI DUP1 PUSH4 0x6FDDE03 EQ PUSH2 0x153 JUMPI DUP1 PUSH4 0x81812FC EQ PUSH2 0x171 JUMPI DUP1 PUSH4 0x95EA7B3 EQ PUSH2 0x1A1 JUMPI JUMPDEST PUSH0 DUP1 REVERT JUMPDEST PUSH2 0x13D PUSH1 0x4 DUP1 CALLDATASIZE SUB DUP2 ADD SWAP1 PUSH2 0x138 SWAP2 SWAP1 PUSH2 0x1B82 JUMP JUMPDEST PUSH2 0x3A5 JUMP JUMPDEST PUSH1 0x40 MLOAD PUSH2 0x14A SWAP2 SWAP1 PUSH2 0x1BC7 JUMP JUMPDEST PUSH1 0x40 MLOAD DUP1 SWAP2 SUB SWAP1 RETURN JUMPDEST PUSH2 0x15B PUSH2 0x486 JUMP JUMPDEST PUSH1 0x40 MLOAD PUSH2 0x168 SWAP2 SWAP1 PUSH2 0x1C50 JUMP JUMPDEST PUSH1 0x40 MLOAD DUP1 SWAP2 SUB SWAP1 RETURN JUMPDEST PUSH2 0x18B PUSH1 0x4 DUP1 CALLDATASIZE SUB DUP2 ADD SWAP1 PUSH2 0x186 SWAP2 SWAP1 PUSH2 0x1CA3 JUMP JUMPDEST PUSH2 0x515 JUMP JUMPDEST PUSH1 0x40 MLOAD PUSH2 0x198 SWAP2 SWAP1 PUSH2 0x1D0D JUMP JUMPDEST PUSH1 0x40 MLOAD DUP1 SWAP2 SUB SWAP1 RETURN JUMPDEST PUSH2 0x1BB PUSH1 0x4 DUP1 CALLDATASIZE SUB DUP2 ADD SWAP1 PUSH2 0x1B6 SWAP2 SWAP1 PUSH2 0x1D50 JUMP JUMPDEST PUSH2 0x557 JUMP JUMPDEST STOP JUMPDEST PUSH2 0x1D7 PUSH1 0x4 DUP1 CALLDATASIZE SUB DUP2 ADD SWAP1 PUSH2 0x1D2 SWAP2 SWAP1 PUSH2 0x1D8E JUMP JUMPDEST PUSH2 0x66D JUMP JUMPDEST STOP JUMPDEST PUSH2 0x1F3 PUSH1 0x4 DUP1 CALLDATASIZE SUB DUP2 ADD SWAP1 PUSH2 0x1EE SWAP2 SWAP1 PUSH2 0x1D8E JUMP JUMPDEST PUSH2 0x6CD JUMP JUMPDEST STOP JUMPDEST PUSH2 0x20F PUSH1 0x4 DUP1 CALLDATASIZE SUB DUP2 ADD SWAP1 PUSH2 0x20A SWAP2 SWAP1 PUSH2 0x1F0A JUMP JUMPDEST PUSH2 0x6EC JUMP JUMPDEST STOP JUMPDEST PUSH2 0x22B PUSH1 0x4 DUP1 CALLDATASIZE SUB DUP2 ADD SWAP1 PUSH2 0x226 SWAP2 SWAP1 PUSH2 0x1CA3 JUMP JUMPDEST PUSH2 0x707 JUMP JUMPDEST PUSH1 0x40 MLOAD PUSH2 0x238 SWAP2 SWAP1 PUSH2 0x1D0D JUMP JUMPDEST PUSH1 0x40 MLOAD DUP1 SWAP2 SUB SWAP1 RETURN JUMPDEST PUSH2 0x25B PUSH1 0x4 DUP1 CALLDATASIZE SUB DUP2 ADD SWAP1 PUSH2 0x256 SWAP2 SWAP1 PUSH2 0x1F51 JUMP JUMPDEST PUSH2 0x78B JUMP JUMPDEST STOP JUMPDEST PUSH2 0x277 PUSH1 0x4 DUP1 CALLDATASIZE SUB DUP2 ADD SWAP1 PUSH2 0x272 SWAP2 SWAP1 PUSH2 0x1F51 JUMP JUMPDEST PUSH2 0x7B9 JUMP JUMPDEST PUSH1 0x40 MLOAD PUSH2 0x284 SWAP2 SWAP1 PUSH2 0x1F8B JUMP JUMPDEST PUSH1 0x40 MLOAD DUP1 SWAP2 SUB SWAP1 RETURN JUMPDEST PUSH2 0x295 PUSH2 0x86D JUMP JUMPDEST STOP JUMPDEST PUSH2 0x29F PUSH2 0x880 JUMP JUMPDEST PUSH1 0x40 MLOAD PUSH2 0x2AC SWAP2 SWAP1 PUSH2 0x1D0D JUMP JUMPDEST PUSH1 0x40 MLOAD DUP1 SWAP2 SUB SWAP1 RETURN JUMPDEST PUSH2 0x2BD PUSH2 0x8A8 JUMP JUMPDEST PUSH1 0x40 MLOAD PUSH2 0x2CA SWAP2 SWAP1 PUSH2 0x1C50 JUMP JUMPDEST PUSH1 0x40 MLOAD DUP1 SWAP2 SUB SWAP1 RETURN JUMPDEST PUSH2 0x2DB PUSH2 0x938 JUMP JUMPDEST PUSH1 0x40 MLOAD PUSH2 0x2E8 SWAP2 SWAP1 PUSH2 0x1F8B JUMP JUMPDEST PUSH1 0x40 MLOAD DUP1 SWAP2 SUB SWAP1 RETURN JUMPDEST PUSH2 0x30B PUSH1 0x4 DUP1 CALLDATASIZE SUB DUP2 ADD SWAP1 PUSH2 0x306 SWAP2 SWAP1 PUSH2 0x1FCE JUMP JUMPDEST PUSH2 0x93E JUMP JUMPDEST STOP JUMPDEST PUSH2 0x327 PUSH1 0x4 DUP1 CALLDATASIZE SUB DUP2 ADD SWAP1 PUSH2 0x322 SWAP2 SWAP1 PUSH2 0x20AA JUMP JUMPDEST PUSH2 0x954 JUMP JUMPDEST STOP JUMPDEST PUSH2 0x343 PUSH1 0x4 DUP1 CALLDATASIZE SUB DUP2 ADD SWAP1 PUSH2 0x33E SWAP2 SWAP1 PUSH2 0x1CA3 JUMP JUMPDEST PUSH2 0x9B6 JUMP JUMPDEST PUSH1 0x40 MLOAD PUSH2 0x350 SWAP2 SWAP1 PUSH2 0x1C50 JUMP JUMPDEST PUSH1 0x40 MLOAD DUP1 SWAP2 SUB SWAP1 RETURN JUMPDEST PUSH2 0x373 PUSH1 0x4 DUP1 CALLDATASIZE SUB DUP2 ADD SWAP1 PUSH2 0x36E SWAP2 SWAP1 PUSH2 0x212A JUMP JUMPDEST PUSH2 0xA1B JUMP JUMPDEST PUSH1 0x40 MLOAD PUSH2 0x380 SWAP2 SWAP1 PUSH2 0x1BC7 JUMP JUMPDEST PUSH1 0x40 MLOAD DUP1 SWAP2 SUB SWAP1 RETURN JUMPDEST PUSH2 0x3A3 PUSH1 0x4 DUP1 CALLDATASIZE SUB DUP2 ADD SWAP1 PUSH2 0x39E SWAP2 SWAP1 PUSH2 0x1F51 JUMP JUMPDEST PUSH2 0xAA9 JUMP JUMPDEST STOP JUMPDEST PUSH0 PUSH32 0x80AC58CD00000000000000000000000000000000000000000000000000000000 PUSH28 0xFFFFFFFFFFFFFFFFFFFFFFFFFFFFFFFFFFFFFFFFFFFFFFFFFFFFFFFF NOT AND DUP3 PUSH28 0xFFFFFFFFFFFFFFFFFFFFFFFFFFFFFFFFFFFFFFFFFFFFFFFFFFFFFFFF NOT AND EQ DUP1 PUSH2 0x46F JUMPI POP PUSH32 0x5B5E139F00000000000000000000000000000000000000000000000000000000 PUSH28 0xFFFFFFFFFFFFFFFFFFFFFFFFFFFFFFFFFFFFFFFFFFFFFFFFFFFFFFFF NOT AND DUP3 PUSH28 0xFFFFFFFFFFFFFFFFFFFFFFFFFFFFFFFFFFFFFFFFFFFFFFFFFFFFFFFF NOT AND EQ JUMPDEST DUP1 PUSH2 0x47F JUMPI POP PUSH2 0x47E DUP3 PUSH2 0xB2B JUMP JUMPDEST JUMPDEST SWAP1 POP SWAP2 SWAP1 POP JUMP JUMPDEST PUSH1 0x60 PUSH0 DUP1 SLOAD PUSH2 0x494 SWAP1 PUSH2 0x2195 JUMP JUMPDEST DUP1 PUSH1 0x1F ADD PUSH1 0x20 DUP1 SWAP2 DIV MUL PUSH1 0x20 ADD PUSH1 0x40 MLOAD SWAP1 DUP2 ADD PUSH1 0x40 MSTORE DUP1 SWAP3 SWAP2 SWAP1 DUP2 DUP2 MSTORE PUSH1 0x20 ADD DUP3 DUP1 SLOAD PUSH2 0x4C0 SWAP1 PUSH2 0x2195 JUMP JUMPDEST DUP1 ISZERO PUSH2 0x50B JUMPI DUP1 PUSH1 0x1F LT PUSH2 0x4E2 JUMPI PUSH2 0x100 DUP1 DUP4 SLOAD DIV MUL DUP4 MSTORE SWAP2 PUSH1 0x20 ADD SWAP2 PUSH2 0x50B JUMP JUMPDEST DUP3 ADD SWAP2 SWAP1 PUSH0 MSTORE PUSH1 0x20 PUSH0 KECCAK256 SWAP1 JUMPDEST DUP2 SLOAD DUP2 MSTORE SWAP1 PUSH1 0x1 ADD SWAP1 PUSH1 0x20 ADD DUP1 DUP4 GT PUSH2 0x4EE JUMPI DUP3 SWAP1 SUB PUSH1 0x1F AND DUP3 ADD SWAP2 JUMPDEST POP POP POP POP POP SWAP1 POP SWAP1 JUMP JUMPDEST PUSH0 PUSH2 0x51F DUP3 PUSH2 0xB94 JUMP JUMPDEST PUSH1 0x4 PUSH0 DUP4 DUP2 MSTORE PUSH1 0x20 ADD SWAP1 DUP2 MSTORE PUSH1 0x20 ADD PUSH0 KECCAK256 PUSH0 SWAP1 SLOAD SWAP1 PUSH2 0x100 EXP SWAP1 DIV PUSH20 0xFFFFFFFFFFFFFFFFFFFFFFFFFFFFFFFFFFFFFFFF AND SWAP1 POP SWAP2 SWAP1 POP JUMP JUMPDEST PUSH0 PUSH2 0x561 DUP3 PUSH2 0x707 JUMP JUMPDEST SWAP1 POP DUP1 PUSH20 0xFFFFFFFFFFFFFFFFFFFFFFFFFFFFFFFFFFFFFFFF AND DUP4 PUSH20 0xFFFFFFFFFFFFFFFFFFFFFFFFFFFFFFFFFFFFFFFF AND SUB PUSH2 0x5D1 JUMPI PUSH1 0x40 MLOAD PUSH32 0x8C379A000000000000000000000000000000000000000000000000000000000 DUP2 MSTORE PUSH1 0x4 ADD PUSH2 0x5C8 SWAP1 PUSH2 0x2235 JUMP JUMPDEST PUSH1 0x40 MLOAD DUP1 SWAP2 SUB SWAP1 REVERT JUMPDEST DUP1 PUSH20 0xFFFFFFFFFFFFFFFFFFFFFFFFFFFFFFFFFFFFFFFF AND PUSH2 0x5F0 PUSH2 0xBDF JUMP JUMPDEST PUSH20 0xFFFFFFFFFFFFFFFFFFFFFFFFFFFFFFFFFFFFFFFF AND EQ DUP1 PUSH2 0x61F JUMPI POP PUSH2 0x61E DUP2 PUSH2 0x619 PUSH2 0xBDF JUMP JUMPDEST PUSH2 0xA1B JUMP JUMPDEST JUMPDEST PUSH2 0x65E JUMPI PUSH1 0x40 MLOAD PUSH32 0x8C379A000000000000000000000000000000000000000000000000000000000 DUP2 MSTORE PUSH1 0x4 ADD PUSH2 0x655 SWAP1 PUSH2 0x22C3 JUMP JUMPDEST PUSH1 0x40 MLOAD DUP1 SWAP2 SUB SWAP1 REVERT JUMPDEST PUSH2 0x668 DUP4 DUP4 PUSH2 0xBE6 JUMP JUMPDEST POP POP POP JUMP JUMPDEST PUSH2 0x67E PUSH2 0x678 PUSH2 0xBDF JUMP JUMPDEST DUP3 PUSH2 0xC9C JUMP JUMPDEST PUSH2 0x6BD JUMPI PUSH1 0x40 MLOAD PUSH32 0x8C379A000000000000000000000000000000000000000000000000000000000 DUP2 MSTORE PUSH1 0x4 ADD PUSH2 0x6B4 SWAP1 PUSH2 0x2351 JUMP JUMPDEST PUSH1 0x40 MLOAD DUP1 SWAP2 SUB SWAP1 REVERT JUMPDEST PUSH2 0x6C8 DUP4 DUP4 DUP4 PUSH2 0xD30 JUMP JUMPDEST POP POP POP JUMP JUMPDEST PUSH2 0x6E7 DUP4 DUP4 DUP4 PUSH1 0x40 MLOAD DUP1 PUSH1 0x20 ADD PUSH1 0x40 MSTORE DUP1 PUSH0 DUP2 MSTORE POP PUSH2 0x954 JUMP JUMPDEST POP POP POP JUMP JUMPDEST PUSH2 0x6F4 PUSH2 0x101C JUMP JUMPDEST DUP1 PUSH1 0x8 SWAP1 DUP2 PUSH2 0x703 SWAP2 SWAP1 PUSH2 0x250C JUMP JUMPDEST POP POP JUMP JUMPDEST PUSH0 DUP1 PUSH2 0x712 DUP4 PUSH2 0x109A JUMP JUMPDEST SWAP1 POP PUSH0 PUSH20 0xFFFFFFFFFFFFFFFFFFFFFFFFFFFFFFFFFFFFFFFF AND DUP2 PUSH20 0xFFFFFFFFFFFFFFFFFFFFFFFFFFFFFFFFFFFFFFFF AND SUB PUSH2 0x782 JUMPI PUSH1 0x40 MLOAD PUSH32 0x8C379A000000000000000000000000000000000000000000000000000000000 DUP2 MSTORE PUSH1 0x4 ADD PUSH2 0x779 SWAP1 PUSH2 0x2625 JUMP JUMPDEST PUSH1 0x40 MLOAD DUP1 SWAP2 SUB SWAP1 REVERT JUMPDEST DUP1 SWAP2 POP POP SWAP2 SWAP1 POP JUMP JUMPDEST PUSH2 0x793 PUSH2 0x101C JUMP JUMPDEST PUSH2 0x79F DUP2 PUSH1 0x7 SLOAD PUSH2 0x10D3 JUMP JUMPDEST PUSH1 0x7 PUSH0 DUP2 SLOAD DUP1 SWAP3 SWAP2 SWAP1 PUSH2 0x7B1 SWAP1 PUSH2 0x2670 JUMP JUMPDEST SWAP2 SWAP1 POP SSTORE POP POP JUMP JUMPDEST PUSH0 DUP1 PUSH20 0xFFFFFFFFFFFFFFFFFFFFFFFFFFFFFFFFFFFFFFFF AND DUP3 PUSH20 0xFFFFFFFFFFFFFFFFFFFFFFFFFFFFFFFFFFFFFFFF AND SUB PUSH2 0x828 JUMPI PUSH1 0x40 MLOAD PUSH32 0x8C379A000000000000000000000000000000000000000000000000000000000 DUP2 MSTORE PUSH1 0x4 ADD PUSH2 0x81F SWAP1 PUSH2 0x2727 JUMP JUMPDEST PUSH1 0x40 MLOAD DUP1 SWAP2 SUB SWAP1 REVERT JUMPDEST PUSH1 0x3 PUSH0 DUP4 PUSH20 0xFFFFFFFFFFFFFFFFFFFFFFFFFFFFFFFFFFFFFFFF AND PUSH20 0xFFFFFFFFFFFFFFFFFFFFFFFFFFFFFFFFFFFFFFFF AND DUP2 MSTORE PUSH1 0x20 ADD SWAP1 DUP2 MSTORE PUSH1 0x20 ADD PUSH0 KECCAK256 SLOAD SWAP1 POP SWAP2 SWAP1 POP JUMP JUMPDEST PUSH2 0x875 PUSH2 0x101C JUMP JUMPDEST PUSH2 0x87E PUSH0 PUSH2 0x10F0 JUMP JUMPDEST JUMP JUMPDEST PUSH0 PUSH1 0x6 PUSH0 SWAP1 SLOAD SWAP1 PUSH2 0x100 EXP SWAP1 DIV PUSH20 0xFFFFFFFFFFFFFFFFFFFFFFFFFFFFFFFFFFFFFFFF AND SWAP1 POP SWAP1 JUMP JUMPDEST PUSH1 0x60 PUSH1 0x1 DUP1 SLOAD PUSH2 0x8B7 SWAP1 PUSH2 0x2195 JUMP JUMPDEST DUP1 PUSH1 0x1F ADD PUSH1 0x20 DUP1 SWAP2 DIV MUL PUSH1 0x20 ADD PUSH1 0x40 MLOAD SWAP1 DUP2 ADD PUSH1 0x40 MSTORE DUP1 SWAP3 SWAP2 SWAP1 DUP2 DUP2 MSTORE PUSH1 0x20 ADD DUP3 DUP1 SLOAD PUSH2 0x8E3 SWAP1 PUSH2 0x2195 JUMP JUMPDEST DUP1 ISZERO PUSH2 0x92E JUMPI DUP1 PUSH1 0x1F LT PUSH2 0x905 JUMPI PUSH2 0x100 DUP1 DUP4 SLOAD DIV MUL DUP4 MSTORE SWAP2 PUSH1 0x20 ADD SWAP2 PUSH2 0x92E JUMP JUMPDEST DUP3 ADD SWAP2 SWAP1 PUSH0 MSTORE PUSH1 0x20 PUSH0 KECCAK256 SWAP1 JUMPDEST DUP2 SLOAD DUP2 MSTORE SWAP1 PUSH1 0x1 ADD SWAP1 PUSH1 0x20 ADD DUP1 DUP4 GT PUSH2 0x911 JUMPI DUP3 SWAP1 SUB PUSH1 0x1F AND DUP3 ADD SWAP2 JUMPDEST POP POP POP POP POP SWAP1 POP SWAP1 JUMP JUMPDEST PUSH1 0x7 SLOAD DUP2 JUMP JUMPDEST PUSH2 0x950 PUSH2 0x949 PUSH2 0xBDF JUMP JUMPDEST DUP4 DUP4 PUSH2 0x11B3 JUMP JUMPDEST POP POP JUMP JUMPDEST PUSH2 0x965 PUSH2 0x95F PUSH2 0xBDF JUMP JUMPDEST DUP4 PUSH2 0xC9C JUMP JUMPDEST PUSH2 0x9A4 JUMPI PUSH1 0x40 MLOAD PUSH32 0x8C379A000000000000000000000000000000000000000000000000000000000 DUP2 MSTORE PUSH1 0x4 ADD PUSH2 0x99B SWAP1 PUSH2 0x2351 JUMP JUMPDEST PUSH1 0x40 MLOAD DUP1 SWAP2 SUB SWAP1 REVERT JUMPDEST PUSH2 0x9B0 DUP5 DUP5 DUP5 DUP5 PUSH2 0x131A JUMP JUMPDEST POP POP POP POP JUMP JUMPDEST PUSH1 0x60 PUSH2 0x9C1 DUP3 PUSH2 0xB94 JUMP JUMPDEST PUSH0 PUSH2 0x9CA PUSH2 0x1376 JUMP JUMPDEST SWAP1 POP PUSH0 DUP2 MLOAD GT PUSH2 0x9E8 JUMPI PUSH1 0x40 MLOAD DUP1 PUSH1 0x20 ADD PUSH1 0x40 MSTORE DUP1 PUSH0 DUP2 MSTORE POP PUSH2 0xA13 JUMP JUMPDEST DUP1 PUSH2 0x9F2 DUP5 PUSH2 0x138C JUMP JUMPDEST PUSH1 0x40 MLOAD PUSH1 0x20 ADD PUSH2 0xA03 SWAP3 SWAP2 SWAP1 PUSH2 0x277F JUMP JUMPDEST PUSH1 0x40 MLOAD PUSH1 0x20 DUP2 DUP4 SUB SUB DUP2 MSTORE SWAP1 PUSH1 0x40 MSTORE JUMPDEST SWAP2 POP POP SWAP2 SWAP1 POP JUMP JUMPDEST PUSH0 PUSH1 0x5 PUSH0 DUP5 PUSH20 0xFFFFFFFFFFFFFFFFFFFFFFFFFFFFFFFFFFFFFFFF AND PUSH20 0xFFFFFFFFFFFFFFFFFFFFFFFFFFFFFFFFFFFFFFFF AND DUP2 MSTORE PUSH1 0x20 ADD SWAP1 DUP2 MSTORE PUSH1 0x20 ADD PUSH0 KECCAK256 PUSH0 DUP4 PUSH20 0xFFFFFFFFFFFFFFFFFFFFFFFFFFFFFFFFFFFFFFFF AND PUSH20 0xFFFFFFFFFFFFFFFFFFFFFFFFFFFFFFFFFFFFFFFF AND DUP2 MSTORE PUSH1 0x20 ADD SWAP1 DUP2 MSTORE PUSH1 0x20 ADD PUSH0 KECCAK256 PUSH0 SWAP1 SLOAD SWAP1 PUSH2 0x100 EXP SWAP1 DIV PUSH1 0xFF AND SWAP1 POP SWAP3 SWAP2 POP POP JUMP JUMPDEST PUSH2 0xAB1 PUSH2 0x101C JUMP JUMPDEST PUSH0 PUSH20 0xFFFFFFFFFFFFFFFFFFFFFFFFFFFFFFFFFFFFFFFF AND DUP2 PUSH20 0xFFFFFFFFFFFFFFFFFFFFFFFFFFFFFFFFFFFFFFFF AND SUB PUSH2 0xB1F JUMPI PUSH1 0x40 MLOAD PUSH32 0x8C379A000000000000000000000000000000000000000000000000000000000 DUP2 MSTORE PUSH1 0x4 ADD PUSH2 0xB16 SWAP1 PUSH2 0x2812 JUMP JUMPDEST PUSH1 0x40 MLOAD DUP1 SWAP2 SUB SWAP1 REVERT JUMPDEST PUSH2 0xB28 DUP2 PUSH2 0x10F0 JUMP JUMPDEST POP JUMP JUMPDEST PUSH0 PUSH32 0x1FFC9A700000000000000000000000000000000000000000000000000000000 PUSH28 0xFFFFFFFFFFFFFFFFFFFFFFFFFFFFFFFFFFFFFFFFFFFFFFFFFFFFFFFF NOT AND DUP3 PUSH28 0xFFFFFFFFFFFFFFFFFFFFFFFFFFFFFFFFFFFFFFFFFFFFFFFFFFFFFFFF NOT AND EQ SWAP1 POP SWAP2 SWAP1 POP JUMP JUMPDEST PUSH2 0xB9D DUP2 PUSH2 0x1456 JUMP JUMPDEST PUSH2 0xBDC JUMPI PUSH1 0x40 MLOAD PUSH32 0x8C379A000000000000000000000000000000000000000000000000000000000 DUP2 MSTORE PUSH1 0x4 ADD PUSH2 0xBD3 SWAP1 PUSH2 0x2625 JUMP JUMPDEST PUSH1 0x40 MLOAD DUP1 SWAP2 SUB SWAP1 REVERT JUMPDEST POP JUMP JUMPDEST PUSH0 CALLER SWAP1 POP SWAP1 JUMP JUMPDEST DUP2 PUSH1 0x4 PUSH0 DUP4 DUP2 MSTORE PUSH1 0x20 ADD SWAP1 DUP2 MSTORE PUSH1 0x20 ADD PUSH0 KECCAK256 PUSH0 PUSH2 0x100 EXP DUP2 SLOAD DUP2 PUSH20 0xFFFFFFFFFFFFFFFFFFFFFFFFFFFFFFFFFFFFFFFF MUL NOT AND SWAP1 DUP4 PUSH20 0xFFFFFFFFFFFFFFFFFFFFFFFFFFFFFFFFFFFFFFFF AND MUL OR SWAP1 SSTORE POP DUP1 DUP3 PUSH20 0xFFFFFFFFFFFFFFFFFFFFFFFFFFFFFFFFFFFFFFFF AND PUSH2 0xC56 DUP4 PUSH2 0x707 JUMP JUMPDEST PUSH20 0xFFFFFFFFFFFFFFFFFFFFFFFFFFFFFFFFFFFFFFFF AND PUSH32 0x8C5BE1E5EBEC7D5BD14F71427D1E84F3DD0314C0F7B2291E5B200AC8C7C3B925 PUSH1 0x40 MLOAD PUSH1 0x40 MLOAD DUP1 SWAP2 SUB SWAP1 LOG4 POP POP JUMP JUMPDEST PUSH0 DUP1 PUSH2 0xCA7 DUP4 PUSH2 0x707 JUMP JUMPDEST SWAP1 POP DUP1 PUSH20 0xFFFFFFFFFFFFFFFFFFFFFFFFFFFFFFFFFFFFFFFF AND DUP5 PUSH20 0xFFFFFFFFFFFFFFFFFFFFFFFFFFFFFFFFFFFFFFFF AND EQ DUP1 PUSH2 0xCE9 JUMPI POP PUSH2 0xCE8 DUP2 DUP6 PUSH2 0xA1B JUMP JUMPDEST JUMPDEST DUP1 PUSH2 0xD27 JUMPI POP DUP4 PUSH20 0xFFFFFFFFFFFFFFFFFFFFFFFFFFFFFFFFFFFFFFFF AND PUSH2 0xD0F DUP5 PUSH2 0x515 JUMP JUMPDEST PUSH20 0xFFFFFFFFFFFFFFFFFFFFFFFFFFFFFFFFFFFFFFFF AND EQ JUMPDEST SWAP2 POP POP SWAP3 SWAP2 POP POP JUMP JUMPDEST DUP3 PUSH20 0xFFFFFFFFFFFFFFFFFFFFFFFFFFFFFFFFFFFFFFFF AND PUSH2 0xD50 DUP3 PUSH2 0x707 JUMP JUMPDEST PUSH20 0xFFFFFFFFFFFFFFFFFFFFFFFFFFFFFFFFFFFFFFFF AND EQ PUSH2 0xDA6 JUMPI PUSH1 0x40 MLOAD PUSH32 0x8C379A000000000000000000000000000000000000000000000000000000000 DUP2 MSTORE PUSH1 0x4 ADD PUSH2 0xD9D SWAP1 PUSH2 0x28A0 JUMP JUMPDEST PUSH1 0x40 MLOAD DUP1 SWAP2 SUB SWAP1 REVERT JUMPDEST PUSH0 PUSH20 0xFFFFFFFFFFFFFFFFFFFFFFFFFFFFFFFFFFFFFFFF AND DUP3 PUSH20 0xFFFFFFFFFFFFFFFFFFFFFFFFFFFFFFFFFFFFFFFF AND SUB PUSH2 0xE14 JUMPI PUSH1 0x40 MLOAD PUSH32 0x8C379A000000000000000000000000000000000000000000000000000000000 DUP2 MSTORE PUSH1 0x4 ADD PUSH2 0xE0B SWAP1 PUSH2 0x292E JUMP JUMPDEST PUSH1 0x40 MLOAD DUP1 SWAP2 SUB SWAP1 REVERT JUMPDEST PUSH2 0xE21 DUP4 DUP4 DUP4 PUSH1 0x1 PUSH2 0x1496 JUMP JUMPDEST DUP3 PUSH20 0xFFFFFFFFFFFFFFFFFFFFFFFFFFFFFFFFFFFFFFFF AND PUSH2 0xE41 DUP3 PUSH2 0x707 JUMP JUMPDEST PUSH20 0xFFFFFFFFFFFFFFFFFFFFFFFFFFFFFFFFFFFFFFFF AND EQ PUSH2 0xE97 JUMPI PUSH1 0x40 MLOAD PUSH32 0x8C379A000000000000000000000000000000000000000000000000000000000 DUP2 MSTORE PUSH1 0x4 ADD PUSH2 0xE8E SWAP1 PUSH2 0x28A0 JUMP JUMPDEST PUSH1 0x40 MLOAD DUP1 SWAP2 SUB SWAP1 REVERT JUMPDEST PUSH1 0x4 PUSH0 DUP3 DUP2 MSTORE PUSH1 0x20 ADD SWAP1 DUP2 MSTORE PUSH1 0x20 ADD PUSH0 KECCAK256 PUSH0 PUSH2 0x100 EXP DUP2 SLOAD SWAP1 PUSH20 0xFFFFFFFFFFFFFFFFFFFFFFFFFFFFFFFFFFFFFFFF MUL NOT AND SWAP1 SSTORE PUSH1 0x1 PUSH1 0x3 PUSH0 DUP6 PUSH20 0xFFFFFFFFFFFFFFFFFFFFFFFFFFFFFFFFFFFFFFFF AND PUSH20 0xFFFFFFFFFFFFFFFFFFFFFFFFFFFFFFFFFFFFFFFF AND DUP2 MSTORE PUSH1 0x20 ADD SWAP1 DUP2 MSTORE PUSH1 0x20 ADD PUSH0 KECCAK256 PUSH0 DUP3 DUP3 SLOAD SUB SWAP3 POP POP DUP2 SWAP1 SSTORE POP PUSH1 0x1 PUSH1 0x3 PUSH0 DUP5 PUSH20 0xFFFFFFFFFFFFFFFFFFFFFFFFFFFFFFFFFFFFFFFF AND PUSH20 0xFFFFFFFFFFFFFFFFFFFFFFFFFFFFFFFFFFFFFFFF AND DUP2 MSTORE PUSH1 0x20 ADD SWAP1 DUP2 MSTORE PUSH1 0x20 ADD PUSH0 KECCAK256 PUSH0 DUP3 DUP3 SLOAD ADD SWAP3 POP POP DUP2 SWAP1 SSTORE POP DUP2 PUSH1 0x2 PUSH0 DUP4 DUP2 MSTORE PUSH1 0x20 ADD SWAP1 DUP2 MSTORE PUSH1 0x20 ADD PUSH0 KECCAK256 PUSH0 PUSH2 0x100 EXP DUP2 SLOAD DUP2 PUSH20 0xFFFFFFFFFFFFFFFFFFFFFFFFFFFFFFFFFFFFFFFF MUL NOT AND SWAP1 DUP4 PUSH20 0xFFFFFFFFFFFFFFFFFFFFFFFFFFFFFFFFFFFFFFFF AND MUL OR SWAP1 SSTORE POP DUP1 DUP3 PUSH20 0xFFFFFFFFFFFFFFFFFFFFFFFFFFFFFFFFFFFFFFFF AND DUP5 PUSH20 0xFFFFFFFFFFFFFFFFFFFFFFFFFFFFFFFFFFFFFFFF AND PUSH32 0xDDF252AD1BE2C89B69C2B068FC378DAA952BA7F163C4A11628F55A4DF523B3EF PUSH1 0x40 MLOAD PUSH1 0x40 MLOAD DUP1 SWAP2 SUB SWAP1 LOG4 PUSH2 0x1017 DUP4 DUP4 DUP4 PUSH1 0x1 PUSH2 0x15B4 JUMP JUMPDEST POP POP POP JUMP JUMPDEST PUSH2 0x1024 PUSH2 0xBDF JUMP JUMPDEST PUSH20 0xFFFFFFFFFFFFFFFFFFFFFFFFFFFFFFFFFFFFFFFF AND PUSH2 0x1042 PUSH2 0x880 JUMP JUMPDEST PUSH20 0xFFFFFFFFFFFFFFFFFFFFFFFFFFFFFFFFFFFFFFFF AND EQ PUSH2 0x1098 JUMPI PUSH1 0x40 MLOAD PUSH32 0x8C379A000000000000000000000000000000000000000000000000000000000 DUP2 MSTORE PUSH1 0x4 ADD PUSH2 0x108F SWAP1 PUSH2 0x2996 JUMP JUMPDEST PUSH1 0x40 MLOAD DUP1 SWAP2 SUB SWAP1 REVERT JUMPDEST JUMP JUMPDEST PUSH0 PUSH1 0x2 PUSH0 DUP4 DUP2 MSTORE PUSH1 0x20 ADD SWAP1 DUP2 MSTORE PUSH1 0x20 ADD PUSH0 KECCAK256 PUSH0 SWAP1 SLOAD SWAP1 PUSH2 0x100 EXP SWAP1 DIV PUSH20 0xFFFFFFFFFFFFFFFFFFFFFFFFFFFFFFFFFFFFFFFF AND SWAP1 POP SWAP2 SWAP1 POP JUMP JUMPDEST PUSH2 0x10EC DUP3 DUP3 PUSH1 0x40 MLOAD DUP1 PUSH1 0x20 ADD PUSH1 0x40 MSTORE DUP1 PUSH0 DUP2 MSTORE POP PUSH2 0x15BA JUMP JUMPDEST POP POP JUMP JUMPDEST PUSH0 PUSH1 0x6 PUSH0 SWAP1 SLOAD SWAP1 PUSH2 0x100 EXP SWAP1 DIV PUSH20 0xFFFFFFFFFFFFFFFFFFFFFFFFFFFFFFFFFFFFFFFF AND SWAP1 POP DUP2 PUSH1 0x6 PUSH0 PUSH2 0x100 EXP DUP2 SLOAD DUP2 PUSH20 0xFFFFFFFFFFFFFFFFFFFFFFFFFFFFFFFFFFFFFFFF MUL NOT AND SWAP1 DUP4 PUSH20 0xFFFFFFFFFFFFFFFFFFFFFFFFFFFFFFFFFFFFFFFF AND MUL OR SWAP1 SSTORE POP DUP2 PUSH20 0xFFFFFFFFFFFFFFFFFFFFFFFFFFFFFFFFFFFFFFFF AND DUP2 PUSH20 0xFFFFFFFFFFFFFFFFFFFFFFFFFFFFFFFFFFFFFFFF AND PUSH32 0x8BE0079C531659141344CD1FD0A4F28419497F9722A3DAAFE3B4186F6B6457E0 PUSH1 0x40 MLOAD PUSH1 0x40 MLOAD DUP1 SWAP2 SUB SWAP1 LOG3 POP POP JUMP JUMPDEST DUP2 PUSH20 0xFFFFFFFFFFFFFFFFFFFFFFFFFFFFFFFFFFFFFFFF AND DUP4 PUSH20 0xFFFFFFFFFFFFFFFFFFFFFFFFFFFFFFFFFFFFFFFF AND SUB PUSH2 0x1221 JUMPI PUSH1 0x40 MLOAD PUSH32 0x8C379A000000000000000000000000000000000000000000000000000000000 DUP2 MSTORE PUSH1 0x4 ADD PUSH2 0x1218 SWAP1 PUSH2 0x29FE JUMP JUMPDEST PUSH1 0x40 MLOAD DUP1 SWAP2 SUB SWAP1 REVERT JUMPDEST DUP1 PUSH1 0x5 PUSH0 DUP6 PUSH20 0xFFFFFFFFFFFFFFFFFFFFFFFFFFFFFFFFFFFFFFFF AND PUSH20 0xFFFFFFFFFFFFFFFFFFFFFFFFFFFFFFFFFFFFFFFF AND DUP2 MSTORE PUSH1 0x20 ADD SWAP1 DUP2 MSTORE PUSH1 0x20 ADD PUSH0 KECCAK256 PUSH0 DUP5 PUSH20 0xFFFFFFFFFFFFFFFFFFFFFFFFFFFFFFFFFFFFFFFF AND PUSH20 0xFFFFFFFFFFFFFFFFFFFFFFFFFFFFFFFFFFFFFFFF AND DUP2 MSTORE PUSH1 0x20 ADD SWAP1 DUP2 MSTORE PUSH1 0x20 ADD PUSH0 KECCAK256 PUSH0 PUSH2 0x100 EXP DUP2 SLOAD DUP2 PUSH1 0xFF MUL NOT AND SWAP1 DUP4 ISZERO ISZERO MUL OR SWAP1 SSTORE POP DUP2 PUSH20 0xFFFFFFFFFFFFFFFFFFFFFFFFFFFFFFFFFFFFFFFF AND DUP4 PUSH20 0xFFFFFFFFFFFFFFFFFFFFFFFFFFFFFFFFFFFFFFFF AND PUSH32 0x17307EAB39AB6107E8899845AD3D59BD9653F200F220920489CA2B5937696C31 DUP4 PUSH1 0x40 MLOAD PUSH2 0x130D SWAP2 SWAP1 PUSH2 0x1BC7 JUMP JUMPDEST PUSH1 0x40 MLOAD DUP1 SWAP2 SUB SWAP1 LOG3 POP POP POP JUMP JUMPDEST PUSH2 0x1325 DUP5 DUP5 DUP5 PUSH2 0xD30 JUMP JUMPDEST PUSH2 0x1331 DUP5 DUP5 DUP5 DUP5 PUSH2 0x1614 JUMP JUMPDEST PUSH2 0x1370 JUMPI PUSH1 0x40 MLOAD PUSH32 0x8C379A000000000000000000000000000000000000000000000000000000000 DUP2 MSTORE PUSH1 0x4 ADD PUSH2 0x1367 SWAP1 PUSH2 0x2A8C JUMP JUMPDEST PUSH1 0x40 MLOAD DUP1 SWAP2 SUB SWAP1 REVERT JUMPDEST POP POP POP POP JUMP JUMPDEST PUSH1 0x60 PUSH1 0x40 MLOAD DUP1 PUSH1 0x20 ADD PUSH1 0x40 MSTORE DUP1 PUSH0 DUP2 MSTORE POP SWAP1 POP SWAP1 JUMP JUMPDEST PUSH1 0x60 PUSH0 PUSH1 0x1 PUSH2 0x139A DUP5 PUSH2 0x1796 JUMP JUMPDEST ADD SWAP1 POP PUSH0 DUP2 PUSH8 0xFFFFFFFFFFFFFFFF DUP2 GT ISZERO PUSH2 0x13B8 JUMPI PUSH2 0x13B7 PUSH2 0x1DE6 JUMP JUMPDEST JUMPDEST PUSH1 0x40 MLOAD SWAP1 DUP1 DUP3 MSTORE DUP1 PUSH1 0x1F ADD PUSH1 0x1F NOT AND PUSH1 0x20 ADD DUP3 ADD PUSH1 0x40 MSTORE DUP1 ISZERO PUSH2 0x13EA JUMPI DUP2 PUSH1 0x20 ADD PUSH1 0x1 DUP3 MUL DUP1 CALLDATASIZE DUP4 CALLDATACOPY DUP1 DUP3 ADD SWAP2 POP POP SWAP1 POP JUMPDEST POP SWAP1 POP PUSH0 DUP3 PUSH1 0x20 ADD DUP3 ADD SWAP1 POP JUMPDEST PUSH1 0x1 ISZERO PUSH2 0x144B JUMPI DUP1 DUP1 PUSH1 0x1 SWAP1 SUB SWAP2 POP POP PUSH32 0x3031323334353637383961626364656600000000000000000000000000000000 PUSH1 0xA DUP7 MOD BYTE DUP2 MSTORE8 PUSH1 0xA DUP6 DUP2 PUSH2 0x1440 JUMPI PUSH2 0x143F PUSH2 0x2AAA JUMP JUMPDEST JUMPDEST DIV SWAP5 POP PUSH0 DUP6 SUB PUSH2 0x13F7 JUMPI JUMPDEST DUP2 SWAP4 POP POP POP POP SWAP2 SWAP1 POP JUMP JUMPDEST PUSH0 DUP1 PUSH20 0xFFFFFFFFFFFFFFFFFFFFFFFFFFFFFFFFFFFFFFFF AND PUSH2 0x1477 DUP4 PUSH2 0x109A JUMP JUMPDEST PUSH20 0xFFFFFFFFFFFFFFFFFFFFFFFFFFFFFFFFFFFFFFFF AND EQ ISZERO SWAP1 POP SWAP2 SWAP1 POP JUMP JUMPDEST PUSH1 0x1 DUP2 GT ISZERO PUSH2 0x15AE JUMPI PUSH0 PUSH20 0xFFFFFFFFFFFFFFFFFFFFFFFFFFFFFFFFFFFFFFFF AND DUP5 PUSH20 0xFFFFFFFFFFFFFFFFFFFFFFFFFFFFFFFFFFFFFFFF AND EQ PUSH2 0x1526 JUMPI DUP1 PUSH1 0x3 PUSH0 DUP7 PUSH20 0xFFFFFFFFFFFFFFFFFFFFFFFFFFFFFFFFFFFFFFFF AND PUSH20 0xFFFFFFFFFFFFFFFFFFFFFFFFFFFFFFFFFFFFFFFF AND DUP2 MSTORE PUSH1 0x20 ADD SWAP1 DUP2 MSTORE PUSH1 0x20 ADD PUSH0 KECCAK256 PUSH0 DUP3 DUP3 SLOAD PUSH2 0x151E SWAP2 SWAP1 PUSH2 0x2AD7 JUMP JUMPDEST SWAP3 POP POP DUP2 SWAP1 SSTORE POP JUMPDEST PUSH0 PUSH20 0xFFFFFFFFFFFFFFFFFFFFFFFFFFFFFFFFFFFFFFFF AND DUP4 PUSH20 0xFFFFFFFFFFFFFFFFFFFFFFFFFFFFFFFFFFFFFFFF AND EQ PUSH2 0x15AD JUMPI DUP1 PUSH1 0x3 PUSH0 DUP6 PUSH20 0xFFFFFFFFFFFFFFFFFFFFFFFFFFFFFFFFFFFFFFFF AND PUSH20 0xFFFFFFFFFFFFFFFFFFFFFFFFFFFFFFFFFFFFFFFF AND DUP2 MSTORE PUSH1 0x20 ADD SWAP1 DUP2 MSTORE PUSH1 0x20 ADD PUSH0 KECCAK256 PUSH0 DUP3 DUP3 SLOAD PUSH2 0x15A5 SWAP2 SWAP1 PUSH2 0x2B0A JUMP JUMPDEST SWAP3 POP POP DUP2 SWAP1 SSTORE POP JUMPDEST JUMPDEST POP POP POP POP JUMP JUMPDEST POP POP POP POP JUMP JUMPDEST PUSH2 0x15C4 DUP4 DUP4 PUSH2 0x18E7 JUMP JUMPDEST PUSH2 0x15D0 PUSH0 DUP5 DUP5 DUP5 PUSH2 0x1614 JUMP JUMPDEST PUSH2 0x160F JUMPI PUSH1 0x40 MLOAD PUSH32 0x8C379A000000000000000000000000000000000000000000000000000000000 DUP2 MSTORE PUSH1 0x4 ADD PUSH2 0x1606 SWAP1 PUSH2 0x2A8C JUMP JUMPDEST PUSH1 0x40 MLOAD DUP1 SWAP2 SUB SWAP1 REVERT JUMPDEST POP POP POP JUMP JUMPDEST PUSH0 PUSH2 0x1634 DUP5 PUSH20 0xFFFFFFFFFFFFFFFFFFFFFFFFFFFFFFFFFFFFFFFF AND PUSH2 0x1AFA JUMP JUMPDEST ISZERO PUSH2 0x1789 JUMPI DUP4 PUSH20 0xFFFFFFFFFFFFFFFFFFFFFFFFFFFFFFFFFFFFFFFF AND PUSH4 0x150B7A02 PUSH2 0x165D PUSH2 0xBDF JUMP JUMPDEST DUP8 DUP7 DUP7 PUSH1 0x40 MLOAD DUP6 PUSH4 0xFFFFFFFF AND PUSH1 0xE0 SHL DUP2 MSTORE PUSH1 0x4 ADD PUSH2 0x167F SWAP5 SWAP4 SWAP3 SWAP2 SWAP1 PUSH2 0x2B8F JUMP JUMPDEST PUSH1 0x20 PUSH1 0x40 MLOAD DUP1 DUP4 SUB DUP2 PUSH0 DUP8 GAS CALL SWAP3 POP POP POP DUP1 ISZERO PUSH2 0x16BA JUMPI POP PUSH1 0x40 MLOAD RETURNDATASIZE PUSH1 0x1F NOT PUSH1 0x1F DUP3 ADD AND DUP3 ADD DUP1 PUSH1 0x40 MSTORE POP DUP2 ADD SWAP1 PUSH2 0x16B7 SWAP2 SWAP1 PUSH2 0x2BED JUMP JUMPDEST PUSH1 0x1 JUMPDEST PUSH2 0x1739 JUMPI RETURNDATASIZE DUP1 PUSH0 DUP2 EQ PUSH2 0x16E8 JUMPI PUSH1 0x40 MLOAD SWAP2 POP PUSH1 0x1F NOT PUSH1 0x3F RETURNDATASIZE ADD AND DUP3 ADD PUSH1 0x40 MSTORE RETURNDATASIZE DUP3 MSTORE RETURNDATASIZE PUSH0 PUSH1 0x20 DUP5 ADD RETURNDATACOPY PUSH2 0x16ED JUMP JUMPDEST PUSH1 0x60 SWAP2 POP JUMPDEST POP PUSH0 DUP2 MLOAD SUB PUSH2 0x1731 JUMPI PUSH1 0x40 MLOAD PUSH32 0x8C379A000000000000000000000000000000000000000000000000000000000 DUP2 MSTORE PUSH1 0x4 ADD PUSH2 0x1728 SWAP1 PUSH2 0x2A8C JUMP JUMPDEST PUSH1 0x40 MLOAD DUP1 SWAP2 SUB SWAP1 REVERT JUMPDEST DUP1 MLOAD DUP2 PUSH1 0x20 ADD REVERT JUMPDEST PUSH4 0x150B7A02 PUSH1 0xE0 SHL PUSH28 0xFFFFFFFFFFFFFFFFFFFFFFFFFFFFFFFFFFFFFFFFFFFFFFFFFFFFFFFF NOT AND DUP2 PUSH28 0xFFFFFFFFFFFFFFFFFFFFFFFFFFFFFFFFFFFFFFFFFFFFFFFFFFFFFFFF NOT AND EQ SWAP2 POP POP PUSH2 0x178E JUMP JUMPDEST PUSH1 0x1 SWAP1 POP JUMPDEST SWAP5 SWAP4 POP POP POP POP JUMP JUMPDEST PUSH0 DUP1 PUSH0 SWAP1 POP PUSH27 0x184F03E93FF9F4DAA797ED6E38ED64BF6A1F010000000000000000 DUP4 LT PUSH2 0x17F2 JUMPI PUSH27 0x184F03E93FF9F4DAA797ED6E38ED64BF6A1F010000000000000000 DUP4 DUP2 PUSH2 0x17E8 JUMPI PUSH2 0x17E7 PUSH2 0x2AAA JUMP JUMPDEST JUMPDEST DIV SWAP3 POP PUSH1 0x40 DUP2 ADD SWAP1 POP JUMPDEST PUSH14 0x4EE2D6D415B85ACEF8100000000 DUP4 LT PUSH2 0x182F JUMPI PUSH14 0x4EE2D6D415B85ACEF8100000000 DUP4 DUP2 PUSH2 0x1825 JUMPI PUSH2 0x1824 PUSH2 0x2AAA JUMP JUMPDEST JUMPDEST DIV SWAP3 POP PUSH1 0x20 DUP2 ADD SWAP1 POP JUMPDEST PUSH7 0x2386F26FC10000 DUP4 LT PUSH2 0x185E JUMPI PUSH7 0x2386F26FC10000 DUP4 DUP2 PUSH2 0x1854 JUMPI PUSH2 0x1853 PUSH2 0x2AAA JUMP JUMPDEST JUMPDEST DIV SWAP3 POP PUSH1 0x10 DUP2 ADD SWAP1 POP JUMPDEST PUSH4 0x5F5E100 DUP4 LT PUSH2 0x1887 JUMPI PUSH4 0x5F5E100 DUP4 DUP2 PUSH2 0x187D JUMPI PUSH2 0x187C PUSH2 0x2AAA JUMP JUMPDEST JUMPDEST DIV SWAP3 POP PUSH1 0x8 DUP2 ADD SWAP1 POP JUMPDEST PUSH2 0x2710 DUP4 LT PUSH2 0x18AC JUMPI PUSH2 0x2710 DUP4 DUP2 PUSH2 0x18A2 JUMPI PUSH2 0x18A1 PUSH2 0x2AAA JUMP JUMPDEST JUMPDEST DIV SWAP3 POP PUSH1 0x4 DUP2 ADD SWAP1 POP JUMPDEST PUSH1 0x64 DUP4 LT PUSH2 0x18CF JUMPI PUSH1 0x64 DUP4 DUP2 PUSH2 0x18C5 JUMPI PUSH2 0x18C4 PUSH2 0x2AAA JUMP JUMPDEST JUMPDEST DIV SWAP3 POP PUSH1 0x2 DUP2 ADD SWAP1 POP JUMPDEST PUSH1 0xA DUP4 LT PUSH2 0x18DE JUMPI PUSH1 0x1 DUP2 ADD SWAP1 POP JUMPDEST DUP1 SWAP2 POP POP SWAP2 SWAP1 POP JUMP JUMPDEST PUSH0 PUSH20 0xFFFFFFFFFFFFFFFFFFFFFFFFFFFFFFFFFFFFFFFF AND DUP3 PUSH20 0xFFFFFFFFFFFFFFFFFFFFFFFFFFFFFFFFFFFFFFFF AND SUB PUSH2 0x1955 JUMPI PUSH1 0x40 MLOAD PUSH32 0x8C379A000000000000000000000000000000000000000000000000000000000 DUP2 MSTORE PUSH1 0x4 ADD PUSH2 0x194C SWAP1 PUSH2 0x2C62 JUMP JUMPDEST PUSH1 0x40 MLOAD DUP1 SWAP2 SUB SWAP1 REVERT JUMPDEST PUSH2 0x195E DUP2 PUSH2 0x1456 JUMP JUMPDEST ISZERO PUSH2 0x199E JUMPI PUSH1 0x40 MLOAD PUSH32 0x8C379A000000000000000000000000000000000000000000000000000000000 DUP2 MSTORE PUSH1 0x4 ADD PUSH2 0x1995 SWAP1 PUSH2 0x2CCA JUMP JUMPDEST PUSH1 0x40 MLOAD DUP1 SWAP2 SUB SWAP1 REVERT JUMPDEST PUSH2 0x19AB PUSH0 DUP4 DUP4 PUSH1 0x1 PUSH2 0x1496 JUMP JUMPDEST PUSH2 0x19B4 DUP2 PUSH2 0x1456 JUMP JUMPDEST ISZERO PUSH2 0x19F4 JUMPI PUSH1 0x40 MLOAD PUSH32 0x8C379A000000000000000000000000000000000000000000000000000000000 DUP2 MSTORE PUSH1 0x4 ADD PUSH2 0x19EB SWAP1 PUSH2 0x2CCA JUMP JUMPDEST PUSH1 0x40 MLOAD DUP1 SWAP2 SUB SWAP1 REVERT JUMPDEST PUSH1 0x1 PUSH1 0x3 PUSH0 DUP5 PUSH20 0xFFFFFFFFFFFFFFFFFFFFFFFFFFFFFFFFFFFFFFFF AND PUSH20 0xFFFFFFFFFFFFFFFFFFFFFFFFFFFFFFFFFFFFFFFF AND DUP2 MSTORE PUSH1 0x20 ADD SWAP1 DUP2 MSTORE PUSH1 0x20 ADD PUSH0 KECCAK256 PUSH0 DUP3 DUP3 SLOAD ADD SWAP3 POP POP DUP2 SWAP1 SSTORE POP DUP2 PUSH1 0x2 PUSH0 DUP4 DUP2 MSTORE PUSH1 0x20 ADD SWAP1 DUP2 MSTORE PUSH1 0x20 ADD PUSH0 KECCAK256 PUSH0 PUSH2 0x100 EXP DUP2 SLOAD DUP2 PUSH20 0xFFFFFFFFFFFFFFFFFFFFFFFFFFFFFFFFFFFFFFFF MUL NOT AND SWAP1 DUP4 PUSH20 0xFFFFFFFFFFFFFFFFFFFFFFFFFFFFFFFFFFFFFFFF AND MUL OR SWAP1 SSTORE POP DUP1 DUP3 PUSH20 0xFFFFFFFFFFFFFFFFFFFFFFFFFFFFFFFFFFFFFFFF AND PUSH0 PUSH20 0xFFFFFFFFFFFFFFFFFFFFFFFFFFFFFFFFFFFFFFFF AND PUSH32 0xDDF252AD1BE2C89B69C2B068FC378DAA952BA7F163C4A11628F55A4DF523B3EF PUSH1 0x40 MLOAD PUSH1 0x40 MLOAD DUP1 SWAP2 SUB SWAP1 LOG4 PUSH2 0x1AF6 PUSH0 DUP4 DUP4 PUSH1 0x1 PUSH2 0x15B4 JUMP JUMPDEST POP POP JUMP JUMPDEST PUSH0 DUP1 DUP3 PUSH20 0xFFFFFFFFFFFFFFFFFFFFFFFFFFFFFFFFFFFFFFFF AND EXTCODESIZE GT SWAP1 POP SWAP2 SWAP1 POP JUMP JUMPDEST PUSH0 PUSH1 0x40 MLOAD SWAP1 POP SWAP1 JUMP JUMPDEST PUSH0 DUP1 REVERT JUMPDEST PUSH0 DUP1 REVERT JUMPDEST PUSH0 PUSH32 0xFFFFFFFF00000000000000000000000000000000000000000000000000000000 DUP3 AND SWAP1 POP SWAP2 SWAP1 POP JUMP JUMPDEST PUSH2 0x1B61 DUP2 PUSH2 0x1B2D JUMP JUMPDEST DUP2 EQ PUSH2 0x1B6B JUMPI PUSH0 DUP1 REVERT JUMPDEST POP JUMP JUMPDEST PUSH0 DUP2 CALLDATALOAD SWAP1 POP PUSH2 0x1B7C DUP2 PUSH2 0x1B58 JUMP JUMPDEST SWAP3 SWAP2 POP POP JUMP JUMPDEST PUSH0 PUSH1 0x20 DUP3 DUP5 SUB SLT ISZERO PUSH2 0x1B97 JUMPI PUSH2 0x1B96 PUSH2 0x1B25 JUMP JUMPDEST JUMPDEST PUSH0 PUSH2 0x1BA4 DUP5 DUP3 DUP6 ADD PUSH2 0x1B6E JUMP JUMPDEST SWAP2 POP POP SWAP3 SWAP2 POP POP JUMP JUMPDEST PUSH0 DUP2 ISZERO ISZERO SWAP1 POP SWAP2 SWAP1 POP JUMP JUMPDEST PUSH2 0x1BC1 DUP2 PUSH2 0x1BAD JUMP JUMPDEST DUP3 MSTORE POP POP JUMP JUMPDEST PUSH0 PUSH1 0x20 DUP3 ADD SWAP1 POP PUSH2 0x1BDA PUSH0 DUP4 ADD DUP5 PUSH2 0x1BB8 JUMP JUMPDEST SWAP3 SWAP2 POP POP JUMP JUMPDEST PUSH0 DUP2 MLOAD SWAP1 POP SWAP2 SWAP1 POP JUMP JUMPDEST PUSH0 DUP3 DUP3 MSTORE PUSH1 0x20 DUP3 ADD SWAP1 POP SWAP3 SWAP2 POP POP JUMP JUMPDEST DUP3 DUP2 DUP4 MCOPY PUSH0 DUP4 DUP4 ADD MSTORE POP POP POP JUMP JUMPDEST PUSH0 PUSH1 0x1F NOT PUSH1 0x1F DUP4 ADD AND SWAP1 POP SWAP2 SWAP1 POP JUMP JUMPDEST PUSH0 PUSH2 0x1C22 DUP3 PUSH2 0x1BE0 JUMP JUMPDEST PUSH2 0x1C2C DUP2 DUP6 PUSH2 0x1BEA JUMP JUMPDEST SWAP4 POP PUSH2 0x1C3C DUP2 DUP6 PUSH1 0x20 DUP7 ADD PUSH2 0x1BFA JUMP JUMPDEST PUSH2 0x1C45 DUP2 PUSH2 0x1C08 JUMP JUMPDEST DUP5 ADD SWAP2 POP POP SWAP3 SWAP2 POP POP JUMP JUMPDEST PUSH0 PUSH1 0x20 DUP3 ADD SWAP1 POP DUP2 DUP2 SUB PUSH0 DUP4 ADD MSTORE PUSH2 0x1C68 DUP2 DUP5 PUSH2 0x1C18 JUMP JUMPDEST SWAP1 POP SWAP3 SWAP2 POP POP JUMP JUMPDEST PUSH0 DUP2 SWAP1 POP SWAP2 SWAP1 POP JUMP JUMPDEST PUSH2 0x1C82 DUP2 PUSH2 0x1C70 JUMP JUMPDEST DUP2 EQ PUSH2 0x1C8C JUMPI PUSH0 DUP1 REVERT JUMPDEST POP JUMP JUMPDEST PUSH0 DUP2 CALLDATALOAD SWAP1 POP PUSH2 0x1C9D DUP2 PUSH2 0x1C79 JUMP JUMPDEST SWAP3 SWAP2 POP POP JUMP JUMPDEST PUSH0 PUSH1 0x20 DUP3 DUP5 SUB SLT ISZERO PUSH2 0x1CB8 JUMPI PUSH2 0x1CB7 PUSH2 0x1B25 JUMP JUMPDEST JUMPDEST PUSH0 PUSH2 0x1CC5 DUP5 DUP3 DUP6 ADD PUSH2 0x1C8F JUMP JUMPDEST SWAP2 POP POP SWAP3 SWAP2 POP POP JUMP JUMPDEST PUSH0 PUSH20 0xFFFFFFFFFFFFFFFFFFFFFFFFFFFFFFFFFFFFFFFF DUP3 AND SWAP1 POP SWAP2 SWAP1 POP JUMP JUMPDEST PUSH0 PUSH2 0x1CF7 DUP3 PUSH2 0x1CCE JUMP JUMPDEST SWAP1 POP SWAP2 SWAP1 POP JUMP JUMPDEST PUSH2 0x1D07 DUP2 PUSH2 0x1CED JUMP JUMPDEST DUP3 MSTORE POP POP JUMP JUMPDEST PUSH0 PUSH1 0x20 DUP3 ADD SWAP1 POP PUSH2 0x1D20 PUSH0 DUP4 ADD DUP5 PUSH2 0x1CFE JUMP JUMPDEST SWAP3 SWAP2 POP POP JUMP JUMPDEST PUSH2 0x1D2F DUP2 PUSH2 0x1CED JUMP JUMPDEST DUP2 EQ PUSH2 0x1D39 JUMPI PUSH0 DUP1 REVERT JUMPDEST POP JUMP JUMPDEST PUSH0 DUP2 CALLDATALOAD SWAP1 POP PUSH2 0x1D4A DUP2 PUSH2 0x1D26 JUMP JUMPDEST SWAP3 SWAP2 POP POP JUMP JUMPDEST PUSH0 DUP1 PUSH1 0x40 DUP4 DUP6 SUB SLT ISZERO PUSH2 0x1D66 JUMPI PUSH2 0x1D65 PUSH2 0x1B25 JUMP JUMPDEST JUMPDEST PUSH0 PUSH2 0x1D73 DUP6 DUP3 DUP7 ADD PUSH2 0x1D3C JUMP JUMPDEST SWAP3 POP POP PUSH1 0x20 PUSH2 0x1D84 DUP6 DUP3 DUP7 ADD PUSH2 0x1C8F JUMP JUMPDEST SWAP2 POP POP SWAP3 POP SWAP3 SWAP1 POP JUMP JUMPDEST PUSH0 DUP1 PUSH0 PUSH1 0x60 DUP5 DUP7 SUB SLT ISZERO PUSH2 0x1DA5 JUMPI PUSH2 0x1DA4 PUSH2 0x1B25 JUMP JUMPDEST JUMPDEST PUSH0 PUSH2 0x1DB2 DUP7 DUP3 DUP8 ADD PUSH2 0x1D3C JUMP JUMPDEST SWAP4 POP POP PUSH1 0x20 PUSH2 0x1DC3 DUP7 DUP3 DUP8 ADD PUSH2 0x1D3C JUMP JUMPDEST SWAP3 POP POP PUSH1 0x40 PUSH2 0x1DD4 DUP7 DUP3 DUP8 ADD PUSH2 0x1C8F JUMP JUMPDEST SWAP2 POP POP SWAP3 POP SWAP3 POP SWAP3 JUMP JUMPDEST PUSH0 DUP1 REVERT JUMPDEST PUSH0 DUP1 REVERT JUMPDEST PUSH32 0x4E487B7100000000000000000000000000000000000000000000000000000000 PUSH0 MSTORE PUSH1 0x41 PUSH1 0x4 MSTORE PUSH1 0x24 PUSH0 REVERT JUMPDEST PUSH2 0x1E1C DUP3 PUSH2 0x1C08 JUMP JUMPDEST DUP2 ADD DUP2 DUP2 LT PUSH8 0xFFFFFFFFFFFFFFFF DUP3 GT OR ISZERO PUSH2 0x1E3B JUMPI PUSH2 0x1E3A PUSH2 0x1DE6 JUMP JUMPDEST JUMPDEST DUP1 PUSH1 0x40 MSTORE POP POP POP JUMP JUMPDEST PUSH0 PUSH2 0x1E4D PUSH2 0x1B1C JUMP JUMPDEST SWAP1 POP PUSH2 0x1E59 DUP3 DUP3 PUSH2 0x1E13 JUMP JUMPDEST SWAP2 SWAP1 POP JUMP JUMPDEST PUSH0 PUSH8 0xFFFFFFFFFFFFFFFF DUP3 GT ISZERO PUSH2 0x1E78 JUMPI PUSH2 0x1E77 PUSH2 0x1DE6 JUMP JUMPDEST JUMPDEST PUSH2 0x1E81 DUP3 PUSH2 0x1C08 JUMP JUMPDEST SWAP1 POP PUSH1 0x20 DUP2 ADD SWAP1 POP SWAP2 SWAP1 POP JUMP JUMPDEST DUP3 DUP2 DUP4 CALLDATACOPY PUSH0 DUP4 DUP4 ADD MSTORE POP POP POP JUMP JUMPDEST PUSH0 PUSH2 0x1EAE PUSH2 0x1EA9 DUP5 PUSH2 0x1E5E JUMP JUMPDEST PUSH2 0x1E44 JUMP JUMPDEST SWAP1 POP DUP3 DUP2 MSTORE PUSH1 0x20 DUP2 ADD DUP5 DUP5 DUP5 ADD GT ISZERO PUSH2 0x1ECA JUMPI PUSH2 0x1EC9 PUSH2 0x1DE2 JUMP JUMPDEST JUMPDEST PUSH2 0x1ED5 DUP5 DUP3 DUP6 PUSH2 0x1E8E JUMP JUMPDEST POP SWAP4 SWAP3 POP POP POP JUMP JUMPDEST PUSH0 DUP3 PUSH1 0x1F DUP4 ADD SLT PUSH2 0x1EF1 JUMPI PUSH2 0x1EF0 PUSH2 0x1DDE JUMP JUMPDEST JUMPDEST DUP2 CALLDATALOAD PUSH2 0x1F01 DUP5 DUP3 PUSH1 0x20 DUP7 ADD PUSH2 0x1E9C JUMP JUMPDEST SWAP2 POP POP SWAP3 SWAP2 POP POP JUMP JUMPDEST PUSH0 PUSH1 0x20 DUP3 DUP5 SUB SLT ISZERO PUSH2 0x1F1F JUMPI PUSH2 0x1F1E PUSH2 0x1B25 JUMP JUMPDEST JUMPDEST PUSH0 DUP3 ADD CALLDATALOAD PUSH8 0xFFFFFFFFFFFFFFFF DUP2 GT ISZERO PUSH2 0x1F3C JUMPI PUSH2 0x1F3B PUSH2 0x1B29 JUMP JUMPDEST JUMPDEST PUSH2 0x1F48 DUP5 DUP3 DUP6 ADD PUSH2 0x1EDD JUMP JUMPDEST SWAP2 POP POP SWAP3 SWAP2 POP POP JUMP JUMPDEST PUSH0 PUSH1 0x20 DUP3 DUP5 SUB SLT ISZERO PUSH2 0x1F66 JUMPI PUSH2 0x1F65 PUSH2 0x1B25 JUMP JUMPDEST JUMPDEST PUSH0 PUSH2 0x1F73 DUP5 DUP3 DUP6 ADD PUSH2 0x1D3C JUMP JUMPDEST SWAP2 POP POP SWAP3 SWAP2 POP POP JUMP JUMPDEST PUSH2 0x1F85 DUP2 PUSH2 0x1C70 JUMP JUMPDEST DUP3 MSTORE POP POP JUMP JUMPDEST PUSH0 PUSH1 0x20 DUP3 ADD SWAP1 POP PUSH2 0x1F9E PUSH0 DUP4 ADD DUP5 PUSH2 0x1F7C JUMP JUMPDEST SWAP3 SWAP2 POP POP JUMP JUMPDEST PUSH2 0x1FAD DUP2 PUSH2 0x1BAD JUMP JUMPDEST DUP2 EQ PUSH2 0x1FB7 JUMPI PUSH0 DUP1 REVERT JUMPDEST POP JUMP JUMPDEST PUSH0 DUP2 CALLDATALOAD SWAP1 POP PUSH2 0x1FC8 DUP2 PUSH2 0x1FA4 JUMP JUMPDEST SWAP3 SWAP2 POP POP JUMP JUMPDEST PUSH0 DUP1 PUSH1 0x40 DUP4 DUP6 SUB SLT ISZERO PUSH2 0x1FE4 JUMPI PUSH2 0x1FE3 PUSH2 0x1B25 JUMP JUMPDEST JUMPDEST PUSH0 PUSH2 0x1FF1 DUP6 DUP3 DUP7 ADD PUSH2 0x1D3C JUMP JUMPDEST SWAP3 POP POP PUSH1 0x20 PUSH2 0x2002 DUP6 DUP3 DUP7 ADD PUSH2 0x1FBA JUMP JUMPDEST SWAP2 POP POP SWAP3 POP SWAP3 SWAP1 POP JUMP JUMPDEST PUSH0 PUSH8 0xFFFFFFFFFFFFFFFF DUP3 GT ISZERO PUSH2 0x2026 JUMPI PUSH2 0x2025 PUSH2 0x1DE6 JUMP JUMPDEST JUMPDEST PUSH2 0x202F DUP3 PUSH2 0x1C08 JUMP JUMPDEST SWAP1 POP PUSH1 0x20 DUP2 ADD SWAP1 POP SWAP2 SWAP1 POP JUMP JUMPDEST PUSH0 PUSH2 0x204E PUSH2 0x2049 DUP5 PUSH2 0x200C JUMP JUMPDEST PUSH2 0x1E44 JUMP JUMPDEST SWAP1 POP DUP3 DUP2 MSTORE PUSH1 0x20 DUP2 ADD DUP5 DUP5 DUP5 ADD GT ISZERO PUSH2 0x206A JUMPI PUSH2 0x2069 PUSH2 0x1DE2 JUMP JUMPDEST JUMPDEST PUSH2 0x2075 DUP5 DUP3 DUP6 PUSH2 0x1E8E JUMP JUMPDEST POP SWAP4 SWAP3 POP POP POP JUMP JUMPDEST PUSH0 DUP3 PUSH1 0x1F DUP4 ADD SLT PUSH2 0x2091 JUMPI PUSH2 0x2090 PUSH2 0x1DDE JUMP JUMPDEST JUMPDEST DUP2 CALLDATALOAD PUSH2 0x20A1 DUP5 DUP3 PUSH1 0x20 DUP7 ADD PUSH2 0x203C JUMP JUMPDEST SWAP2 POP POP SWAP3 SWAP2 POP POP JUMP JUMPDEST PUSH0 DUP1 PUSH0 DUP1 PUSH1 0x80 DUP6 DUP8 SUB SLT ISZERO PUSH2 0x20C2 JUMPI PUSH2 0x20C1 PUSH2 0x1B25 JUMP JUMPDEST JUMPDEST PUSH0 PUSH2 0x20CF DUP8 DUP3 DUP9 ADD PUSH2 0x1D3C JUMP JUMPDEST SWAP5 POP POP PUSH1 0x20 PUSH2 0x20E0 DUP8 DUP3 DUP9 ADD PUSH2 0x1D3C JUMP JUMPDEST SWAP4 POP POP PUSH1 0x40 PUSH2 0x20F1 DUP8 DUP3 DUP9 ADD PUSH2 0x1C8F JUMP JUMPDEST SWAP3 POP POP PUSH1 0x60 DUP6 ADD CALLDATALOAD PUSH8 0xFFFFFFFFFFFFFFFF DUP2 GT ISZERO PUSH2 0x2112 JUMPI PUSH2 0x2111 PUSH2 0x1B29 JUMP JUMPDEST JUMPDEST PUSH2 0x211E DUP8 DUP3 DUP9 ADD PUSH2 0x207D JUMP JUMPDEST SWAP2 POP POP SWAP3 SWAP6 SWAP2 SWAP5 POP SWAP3 POP JUMP JUMPDEST PUSH0 DUP1 PUSH1 0x40 DUP4 DUP6 SUB SLT ISZERO PUSH2 0x2140 JUMPI PUSH2 0x213F PUSH2 0x1B25 JUMP JUMPDEST JUMPDEST PUSH0 PUSH2 0x214D DUP6 DUP3 DUP7 ADD PUSH2 0x1D3C JUMP JUMPDEST SWAP3 POP POP PUSH1 0x20 PUSH2 0x215E DUP6 DUP3 DUP7 ADD PUSH2 0x1D3C JUMP JUMPDEST SWAP2 POP POP SWAP3 POP SWAP3 SWAP1 POP JUMP JUMPDEST PUSH32 0x4E487B7100000000000000000000000000000000000000000000000000000000 PUSH0 MSTORE PUSH1 0x22 PUSH1 0x4 MSTORE PUSH1 0x24 PUSH0 REVERT JUMPDEST PUSH0 PUSH1 0x2 DUP3 DIV SWAP1 POP PUSH1 0x1 DUP3 AND DUP1 PUSH2 0x21AC JUMPI PUSH1 0x7F DUP3 AND SWAP2 POP JUMPDEST PUSH1 0x20 DUP3 LT DUP2 SUB PUSH2 0x21BF JUMPI PUSH2 0x21BE PUSH2 0x2168 JUMP JUMPDEST JUMPDEST POP SWAP2 SWAP1 POP JUMP JUMPDEST PUSH32 0x4552433732313A20617070726F76616C20746F2063757272656E74206F776E65 PUSH0 DUP3 ADD MSTORE PUSH32 0x7200000000000000000000000000000000000000000000000000000000000000 PUSH1 0x20 DUP3 ADD MSTORE POP JUMP JUMPDEST PUSH0 PUSH2 0x221F PUSH1 0x21 DUP4 PUSH2 0x1BEA JUMP JUMPDEST SWAP2 POP PUSH2 0x222A DUP3 PUSH2 0x21C5 JUMP JUMPDEST PUSH1 0x40 DUP3 ADD SWAP1 POP SWAP2 SWAP1 POP JUMP JUMPDEST PUSH0 PUSH1 0x20 DUP3 ADD SWAP1 POP DUP2 DUP2 SUB PUSH0 DUP4 ADD MSTORE PUSH2 0x224C DUP2 PUSH2 0x2213 JUMP JUMPDEST SWAP1 POP SWAP2 SWAP1 POP JUMP JUMPDEST PUSH32 0x4552433732313A20617070726F76652063616C6C6572206973206E6F7420746F PUSH0 DUP3 ADD MSTORE PUSH32 0x6B656E206F776E6572206F7220617070726F76656420666F7220616C6C000000 PUSH1 0x20 DUP3 ADD MSTORE POP JUMP JUMPDEST PUSH0 PUSH2 0x22AD PUSH1 0x3D DUP4 PUSH2 0x1BEA JUMP JUMPDEST SWAP2 POP PUSH2 0x22B8 DUP3 PUSH2 0x2253 JUMP JUMPDEST PUSH1 0x40 DUP3 ADD SWAP1 POP SWAP2 SWAP1 POP JUMP JUMPDEST PUSH0 PUSH1 0x20 DUP3 ADD SWAP1 POP DUP2 DUP2 SUB PUSH0 DUP4 ADD MSTORE PUSH2 0x22DA DUP2 PUSH2 0x22A1 JUMP JUMPDEST SWAP1 POP SWAP2 SWAP1 POP JUMP JUMPDEST PUSH32 0x4552433732313A2063616C6C6572206973206E6F7420746F6B656E206F776E65 PUSH0 DUP3 ADD MSTORE PUSH32 0x72206F7220617070726F76656400000000000000000000000000000000000000 PUSH1 0x20 DUP3 ADD MSTORE POP JUMP JUMPDEST PUSH0 PUSH2 0x233B PUSH1 0x2D DUP4 PUSH2 0x1BEA JUMP JUMPDEST SWAP2 POP PUSH2 0x2346 DUP3 PUSH2 0x22E1 JUMP JUMPDEST PUSH1 0x40 DUP3 ADD SWAP1 POP SWAP2 SWAP1 POP JUMP JUMPDEST PUSH0 PUSH1 0x20 DUP3 ADD SWAP1 POP DUP2 DUP2 SUB PUSH0 DUP4 ADD MSTORE PUSH2 0x2368 DUP2 PUSH2 0x232F JUMP JUMPDEST SWAP1 POP SWAP2 SWAP1 POP JUMP JUMPDEST PUSH0 DUP2 SWAP1 POP DUP2 PUSH0 MSTORE PUSH1 0x20 PUSH0 KECCAK256 SWAP1 POP SWAP2 SWAP1 POP JUMP JUMPDEST PUSH0 PUSH1 0x20 PUSH1 0x1F DUP4 ADD DIV SWAP1 POP SWAP2 SWAP1 POP JUMP JUMPDEST PUSH0 DUP3 DUP3 SHL SWAP1 POP SWAP3 SWAP2 POP POP JUMP JUMPDEST PUSH0 PUSH1 0x8 DUP4 MUL PUSH2 0x23CB PUSH32 0xFFFFFFFFFFFFFFFFFFFFFFFFFFFFFFFFFFFFFFFFFFFFFFFFFFFFFFFFFFFFFFFF DUP3 PUSH2 0x2390 JUMP JUMPDEST PUSH2 0x23D5 DUP7 DUP4 PUSH2 0x2390 JUMP JUMPDEST SWAP6 POP DUP1 NOT DUP5 AND SWAP4 POP DUP1 DUP7 AND DUP5 OR SWAP3 POP POP POP SWAP4 SWAP3 POP POP POP JUMP JUMPDEST PUSH0 DUP2 SWAP1 POP SWAP2 SWAP1 POP JUMP JUMPDEST PUSH0 PUSH2 0x2410 PUSH2 0x240B PUSH2 0x2406 DUP5 PUSH2 0x1C70 JUMP JUMPDEST PUSH2 0x23ED JUMP JUMPDEST PUSH2 0x1C70 JUMP JUMPDEST SWAP1 POP SWAP2 SWAP1 POP JUMP JUMPDEST PUSH0 DUP2 SWAP1 POP SWAP2 SWAP1 POP JUMP JUMPDEST PUSH2 0x2429 DUP4 PUSH2 0x23F6 JUMP JUMPDEST PUSH2 0x243D PUSH2 0x2435 DUP3 PUSH2 0x2417 JUMP JUMPDEST DUP5 DUP5 SLOAD PUSH2 0x239C JUMP JUMPDEST DUP3 SSTORE POP POP POP POP JUMP JUMPDEST PUSH0 SWAP1 JUMP JUMPDEST PUSH2 0x2451 PUSH2 0x2445 JUMP JUMPDEST PUSH2 0x245C DUP2 DUP5 DUP5 PUSH2 0x2420 JUMP JUMPDEST POP POP POP JUMP JUMPDEST JUMPDEST DUP2 DUP2 LT ISZERO PUSH2 0x247F JUMPI PUSH2 0x2474 PUSH0 DUP3 PUSH2 0x2449 JUMP JUMPDEST PUSH1 0x1 DUP2 ADD SWAP1 POP PUSH2 0x2462 JUMP JUMPDEST POP POP JUMP JUMPDEST PUSH1 0x1F DUP3 GT ISZERO PUSH2 0x24C4 JUMPI PUSH2 0x2495 DUP2 PUSH2 0x236F JUMP JUMPDEST PUSH2 0x249E DUP5 PUSH2 0x2381 JUMP JUMPDEST DUP2 ADD PUSH1 0x20 DUP6 LT ISZERO PUSH2 0x24AD JUMPI DUP2 SWAP1 POP JUMPDEST PUSH2 0x24C1 PUSH2 0x24B9 DUP6 PUSH2 0x2381 JUMP JUMPDEST DUP4 ADD DUP3 PUSH2 0x2461 JUMP JUMPDEST POP POP JUMPDEST POP POP POP JUMP JUMPDEST PUSH0 DUP3 DUP3 SHR SWAP1 POP SWAP3 SWAP2 POP POP JUMP JUMPDEST PUSH0 PUSH2 0x24E4 PUSH0 NOT DUP5 PUSH1 0x8 MUL PUSH2 0x24C9 JUMP JUMPDEST NOT DUP1 DUP4 AND SWAP2 POP POP SWAP3 SWAP2 POP POP JUMP JUMPDEST PUSH0 PUSH2 0x24FC DUP4 DUP4 PUSH2 0x24D5 JUMP JUMPDEST SWAP2 POP DUP3 PUSH1 0x2 MUL DUP3 OR SWAP1 POP SWAP3 SWAP2 POP POP JUMP JUMPDEST PUSH2 0x2515 DUP3 PUSH2 0x1BE0 JUMP JUMPDEST PUSH8 0xFFFFFFFFFFFFFFFF DUP2 GT ISZERO PUSH2 0x252E JUMPI PUSH2 0x252D PUSH2 0x1DE6 JUMP JUMPDEST JUMPDEST PUSH2 0x2538 DUP3 SLOAD PUSH2 0x2195 JUMP JUMPDEST PUSH2 0x2543 DUP3 DUP3 DUP6 PUSH2 0x2483 JUMP JUMPDEST PUSH0 PUSH1 0x20 SWAP1 POP PUSH1 0x1F DUP4 GT PUSH1 0x1 DUP2 EQ PUSH2 0x2574 JUMPI PUSH0 DUP5 ISZERO PUSH2 0x2562 JUMPI DUP3 DUP8 ADD MLOAD SWAP1 POP JUMPDEST PUSH2 0x256C DUP6 DUP3 PUSH2 0x24F1 JUMP JUMPDEST DUP7 SSTORE POP PUSH2 0x25D3 JUMP JUMPDEST PUSH1 0x1F NOT DUP5 AND PUSH2 0x2582 DUP7 PUSH2 0x236F JUMP JUMPDEST PUSH0 JUMPDEST DUP3 DUP2 LT ISZERO PUSH2 0x25A9 JUMPI DUP5 DUP10 ADD MLOAD DUP3 SSTORE PUSH1 0x1 DUP3 ADD SWAP2 POP PUSH1 0x20 DUP6 ADD SWAP5 POP PUSH1 0x20 DUP2 ADD SWAP1 POP PUSH2 0x2584 JUMP JUMPDEST DUP7 DUP4 LT ISZERO PUSH2 0x25C6 JUMPI DUP5 DUP10 ADD MLOAD PUSH2 0x25C2 PUSH1 0x1F DUP10 AND DUP3 PUSH2 0x24D5 JUMP JUMPDEST DUP4 SSTORE POP JUMPDEST PUSH1 0x1 PUSH1 0x2 DUP9 MUL ADD DUP9 SSTORE POP POP POP JUMPDEST POP POP POP POP POP POP JUMP JUMPDEST PUSH32 0x4552433732313A20696E76616C696420746F6B656E2049440000000000000000 PUSH0 DUP3 ADD MSTORE POP JUMP JUMPDEST PUSH0 PUSH2 0x260F PUSH1 0x18 DUP4 PUSH2 0x1BEA JUMP JUMPDEST SWAP2 POP PUSH2 0x261A DUP3 PUSH2 0x25DB JUMP JUMPDEST PUSH1 0x20 DUP3 ADD SWAP1 POP SWAP2 SWAP1 POP JUMP JUMPDEST PUSH0 PUSH1 0x20 DUP3 ADD SWAP1 POP DUP2 DUP2 SUB PUSH0 DUP4 ADD MSTORE PUSH2 0x263C DUP2 PUSH2 0x2603 JUMP JUMPDEST SWAP1 POP SWAP2 SWAP1 POP JUMP JUMPDEST PUSH32 0x4E487B7100000000000000000000000000000000000000000000000000000000 PUSH0 MSTORE PUSH1 0x11 PUSH1 0x4 MSTORE PUSH1 0x24 PUSH0 REVERT JUMPDEST PUSH0 PUSH2 0x267A DUP3 PUSH2 0x1C70 JUMP JUMPDEST SWAP2 POP PUSH32 0xFFFFFFFFFFFFFFFFFFFFFFFFFFFFFFFFFFFFFFFFFFFFFFFFFFFFFFFFFFFFFFFF DUP3 SUB PUSH2 0x26AC JUMPI PUSH2 0x26AB PUSH2 0x2643 JUMP JUMPDEST JUMPDEST PUSH1 0x1 DUP3 ADD SWAP1 POP SWAP2 SWAP1 POP JUMP JUMPDEST PUSH32 0x4552433732313A2061646472657373207A65726F206973206E6F742061207661 PUSH0 DUP3 ADD MSTORE PUSH32 0x6C6964206F776E65720000000000000000000000000000000000000000000000 PUSH1 0x20 DUP3 ADD MSTORE POP JUMP JUMPDEST PUSH0 PUSH2 0x2711 PUSH1 0x29 DUP4 PUSH2 0x1BEA JUMP JUMPDEST SWAP2 POP PUSH2 0x271C DUP3 PUSH2 0x26B7 JUMP JUMPDEST PUSH1 0x40 DUP3 ADD SWAP1 POP SWAP2 SWAP1 POP JUMP JUMPDEST PUSH0 PUSH1 0x20 DUP3 ADD SWAP1 POP DUP2 DUP2 SUB PUSH0 DUP4 ADD MSTORE PUSH2 0x273E DUP2 PUSH2 0x2705 JUMP JUMPDEST SWAP1 POP SWAP2 SWAP1 POP JUMP JUMPDEST PUSH0 DUP2 SWAP1 POP SWAP3 SWAP2 POP POP JUMP JUMPDEST PUSH0 PUSH2 0x2759 DUP3 PUSH2 0x1BE0 JUMP JUMPDEST PUSH2 0x2763 DUP2 DUP6 PUSH2 0x2745 JUMP JUMPDEST SWAP4 POP PUSH2 0x2773 DUP2 DUP6 PUSH1 0x20 DUP7 ADD PUSH2 0x1BFA JUMP JUMPDEST DUP1 DUP5 ADD SWAP2 POP POP SWAP3 SWAP2 POP POP JUMP JUMPDEST PUSH0 PUSH2 0x278A DUP3 DUP6 PUSH2 0x274F JUMP JUMPDEST SWAP2 POP PUSH2 0x2796 DUP3 DUP5 PUSH2 0x274F JUMP JUMPDEST SWAP2 POP DUP2 SWAP1 POP SWAP4 SWAP3 POP POP POP JUMP JUMPDEST PUSH32 0x4F776E61626C653A206E6577206F776E657220697320746865207A65726F2061 PUSH0 DUP3 ADD MSTORE PUSH32 0x6464726573730000000000000000000000000000000000000000000000000000 PUSH1 0x20 DUP3 ADD MSTORE POP JUMP JUMPDEST PUSH0 PUSH2 0x27FC PUSH1 0x26 DUP4 PUSH2 0x1BEA JUMP JUMPDEST SWAP2 POP PUSH2 0x2807 DUP3 PUSH2 0x27A2 JUMP JUMPDEST PUSH1 0x40 DUP3 ADD SWAP1 POP SWAP2 SWAP1 POP JUMP JUMPDEST PUSH0 PUSH1 0x20 DUP3 ADD SWAP1 POP DUP2 DUP2 SUB PUSH0 DUP4 ADD MSTORE PUSH2 0x2829 DUP2 PUSH2 0x27F0 JUMP JUMPDEST SWAP1 POP SWAP2 SWAP1 POP JUMP JUMPDEST PUSH32 0x4552433732313A207472616E736665722066726F6D20696E636F727265637420 PUSH0 DUP3 ADD MSTORE PUSH32 0x6F776E6572000000000000000000000000000000000000000000000000000000 PUSH1 0x20 DUP3 ADD MSTORE POP JUMP JUMPDEST PUSH0 PUSH2 0x288A PUSH1 0x25 DUP4 PUSH2 0x1BEA JUMP JUMPDEST SWAP2 POP PUSH2 0x2895 DUP3 PUSH2 0x2830 JUMP JUMPDEST PUSH1 0x40 DUP3 ADD SWAP1 POP SWAP2 SWAP1 POP JUMP JUMPDEST PUSH0 PUSH1 0x20 DUP3 ADD SWAP1 POP DUP2 DUP2 SUB PUSH0 DUP4 ADD MSTORE PUSH2 0x28B7 DUP2 PUSH2 0x287E JUMP JUMPDEST SWAP1 POP SWAP2 SWAP1 POP JUMP JUMPDEST PUSH32 0x4552433732313A207472616E7366657220746F20746865207A65726F20616464 PUSH0 DUP3 ADD MSTORE PUSH32 0x7265737300000000000000000000000000000000000000000000000000000000 PUSH1 0x20 DUP3 ADD MSTORE POP JUMP JUMPDEST PUSH0 PUSH2 0x2918 PUSH1 0x24 DUP4 PUSH2 0x1BEA JUMP JUMPDEST SWAP2 POP PUSH2 0x2923 DUP3 PUSH2 0x28BE JUMP JUMPDEST PUSH1 0x40 DUP3 ADD SWAP1 POP SWAP2 SWAP1 POP JUMP JUMPDEST PUSH0 PUSH1 0x20 DUP3 ADD SWAP1 POP DUP2 DUP2 SUB PUSH0 DUP4 ADD MSTORE PUSH2 0x2945 DUP2 PUSH2 0x290C JUMP JUMPDEST SWAP1 POP SWAP2 SWAP1 POP JUMP JUMPDEST PUSH32 0x4F776E61626C653A2063616C6C6572206973206E6F7420746865206F776E6572 PUSH0 DUP3 ADD MSTORE POP JUMP JUMPDEST PUSH0 PUSH2 0x2980 PUSH1 0x20 DUP4 PUSH2 0x1BEA JUMP JUMPDEST SWAP2 POP PUSH2 0x298B DUP3 PUSH2 0x294C JUMP JUMPDEST PUSH1 0x20 DUP3 ADD SWAP1 POP SWAP2 SWAP1 POP JUMP JUMPDEST PUSH0 PUSH1 0x20 DUP3 ADD SWAP1 POP DUP2 DUP2 SUB PUSH0 DUP4 ADD MSTORE PUSH2 0x29AD DUP2 PUSH2 0x2974 JUMP JUMPDEST SWAP1 POP SWAP2 SWAP1 POP JUMP JUMPDEST PUSH32 0x4552433732313A20617070726F766520746F2063616C6C657200000000000000 PUSH0 DUP3 ADD MSTORE POP JUMP JUMPDEST PUSH0 PUSH2 0x29E8 PUSH1 0x19 DUP4 PUSH2 0x1BEA JUMP JUMPDEST SWAP2 POP PUSH2 0x29F3 DUP3 PUSH2 0x29B4 JUMP JUMPDEST PUSH1 0x20 DUP3 ADD SWAP1 POP SWAP2 SWAP1 POP JUMP JUMPDEST PUSH0 PUSH1 0x20 DUP3 ADD SWAP1 POP DUP2 DUP2 SUB PUSH0 DUP4 ADD MSTORE PUSH2 0x2A15 DUP2 PUSH2 0x29DC JUMP JUMPDEST SWAP1 POP SWAP2 SWAP1 POP JUMP JUMPDEST PUSH32 0x4552433732313A207472616E7366657220746F206E6F6E204552433732315265 PUSH0 DUP3 ADD MSTORE PUSH32 0x63656976657220696D706C656D656E7465720000000000000000000000000000 PUSH1 0x20 DUP3 ADD MSTORE POP JUMP JUMPDEST PUSH0 PUSH2 0x2A76 PUSH1 0x32 DUP4 PUSH2 0x1BEA JUMP JUMPDEST SWAP2 POP PUSH2 0x2A81 DUP3 PUSH2 0x2A1C JUMP JUMPDEST PUSH1 0x40 DUP3 ADD SWAP1 POP SWAP2 SWAP1 POP JUMP JUMPDEST PUSH0 PUSH1 0x20 DUP3 ADD SWAP1 POP DUP2 DUP2 SUB PUSH0 DUP4 ADD MSTORE PUSH2 0x2AA3 DUP2 PUSH2 0x2A6A JUMP JUMPDEST SWAP1 POP SWAP2 SWAP1 POP JUMP JUMPDEST PUSH32 0x4E487B7100000000000000000000000000000000000000000000000000000000 PUSH0 MSTORE PUSH1 0x12 PUSH1 0x4 MSTORE PUSH1 0x24 PUSH0 REVERT JUMPDEST PUSH0 PUSH2 0x2AE1 DUP3 PUSH2 0x1C70 JUMP JUMPDEST SWAP2 POP PUSH2 0x2AEC DUP4 PUSH2 0x1C70 JUMP JUMPDEST SWAP3 POP DUP3 DUP3 SUB SWAP1 POP DUP2 DUP2 GT ISZERO PUSH2 0x2B04 JUMPI PUSH2 0x2B03 PUSH2 0x2643 JUMP JUMPDEST JUMPDEST SWAP3 SWAP2 POP POP JUMP JUMPDEST PUSH0 PUSH2 0x2B14 DUP3 PUSH2 0x1C70 JUMP JUMPDEST SWAP2 POP PUSH2 0x2B1F DUP4 PUSH2 0x1C70 JUMP JUMPDEST SWAP3 POP DUP3 DUP3 ADD SWAP1 POP DUP1 DUP3 GT ISZERO PUSH2 0x2B37 JUMPI PUSH2 0x2B36 PUSH2 0x2643 JUMP JUMPDEST JUMPDEST SWAP3 SWAP2 POP POP JUMP JUMPDEST PUSH0 DUP2 MLOAD SWAP1 POP SWAP2 SWAP1 POP JUMP JUMPDEST PUSH0 DUP3 DUP3 MSTORE PUSH1 0x20 DUP3 ADD SWAP1 POP SWAP3 SWAP2 POP POP JUMP JUMPDEST PUSH0 PUSH2 0x2B61 DUP3 PUSH2 0x2B3D JUMP JUMPDEST PUSH2 0x2B6B DUP2 DUP6 PUSH2 0x2B47 JUMP JUMPDEST SWAP4 POP PUSH2 0x2B7B DUP2 DUP6 PUSH1 0x20 DUP7 ADD PUSH2 0x1BFA JUMP JUMPDEST PUSH2 0x2B84 DUP2 PUSH2 0x1C08 JUMP JUMPDEST DUP5 ADD SWAP2 POP POP SWAP3 SWAP2 POP POP JUMP JUMPDEST PUSH0 PUSH1 0x80 DUP3 ADD SWAP1 POP PUSH2 0x2BA2 PUSH0 DUP4 ADD DUP8 PUSH2 0x1CFE JUMP JUMPDEST PUSH2 0x2BAF PUSH1 0x20 DUP4 ADD DUP7 PUSH2 0x1CFE JUMP JUMPDEST PUSH2 0x2BBC PUSH1 0x40 DUP4 ADD DUP6 PUSH2 0x1F7C JUMP JUMPDEST DUP2 DUP2 SUB PUSH1 0x60 DUP4 ADD MSTORE PUSH2 0x2BCE DUP2 DUP5 PUSH2 0x2B57 JUMP JUMPDEST SWAP1 POP SWAP6 SWAP5 POP POP POP POP POP JUMP JUMPDEST PUSH0 DUP2 MLOAD SWAP1 POP PUSH2 0x2BE7 DUP2 PUSH2 0x1B58 JUMP JUMPDEST SWAP3 SWAP2 POP POP JUMP JUMPDEST PUSH0 PUSH1 0x20 DUP3 DUP5 SUB SLT ISZERO PUSH2 0x2C02 JUMPI PUSH2 0x2C01 PUSH2 0x1B25 JUMP JUMPDEST JUMPDEST PUSH0 PUSH2 0x2C0F DUP5 DUP3 DUP6 ADD PUSH2 0x2BD9 JUMP JUMPDEST SWAP2 POP POP SWAP3 SWAP2 POP POP JUMP JUMPDEST PUSH32 0x4552433732313A206D696E7420746F20746865207A65726F2061646472657373 PUSH0 DUP3 ADD MSTORE POP JUMP JUMPDEST PUSH0 PUSH2 0x2C4C PUSH1 0x20 DUP4 PUSH2 0x1BEA JUMP JUMPDEST SWAP2 POP PUSH2 0x2C57 DUP3 PUSH2 0x2C18 JUMP JUMPDEST PUSH1 0x20 DUP3 ADD SWAP1 POP SWAP2 SWAP1 POP JUMP JUMPDEST PUSH0 PUSH1 0x20 DUP3 ADD SWAP1 POP DUP2 DUP2 SUB PUSH0 DUP4 ADD MSTORE PUSH2 0x2C79 DUP2 PUSH2 0x2C40 JUMP JUMPDEST SWAP1 POP SWAP2 SWAP1 POP JUMP JUMPDEST PUSH32 0x4552433732313A20746F6B656E20616C7265616479206D696E74656400000000 PUSH0 DUP3 ADD MSTORE POP JUMP JUMPDEST PUSH0 PUSH2 0x2CB4 PUSH1 0x1C DUP4 PUSH2 0x1BEA JUMP JUMPDEST SWAP2 POP PUSH2 0x2CBF DUP3 PUSH2 0x2C80 JUMP JUMPDEST PUSH1 0x20 DUP3 ADD SWAP1 POP SWAP2 SWAP1 POP JUMP JUMPDEST PUSH0 PUSH1 0x20 DUP3 ADD SWAP1 POP DUP2 DUP2 SUB PUSH0 DUP4 ADD MSTORE PUSH2 0x2CE1 DUP2 PUSH2 0x2CA8 JUMP JUMPDEST SWAP1 POP SWAP2 SWAP1 POP JUMP INVALID LOG2 PUSH5 0x6970667358 0x22 SLT KECCAK256 0x25 GASPRICE AND SLT 0x24 0xB1 BALANCE SSTORE 0xB3 0x28 0xE2 AND DUP14 0xED PUSH7 0x5E5F7860C82C88 JUMP 0xC4 0xC4 0xB0 0x21 CREATE 0xC1 GASPRICE RETURNDATACOPY RETURN PUSH5 0x736F6C6343 STOP ADDMOD BYTE STOP CALLER "
		},
		"gasEstimates": {
			"creation": {
				"codeDepositCost": "2310000",
				"executionCost": "infinite",
				"totalCost": "infinite"
			},
			"external": {
				"TokenId()": "2536",
				"approve(address,uint256)": "infinite",
				"balanceOf(address)": "2887",
				"getApproved(uint256)": "5282",
				"isApprovedForAll(address,address)": "infinite",
				"mint(address)": "infinite",
				"name()": "infinite",
				"owner()": "2582",
				"ownerOf(uint256)": "3072",
				"renounceOwnership()": "30435",
				"safeTransferFrom(address,address,uint256)": "infinite",
				"safeTransferFrom(address,address,uint256,bytes)": "infinite",
				"setApprovalForAll(address,bool)": "infinite",
				"setBaseURI(string)": "infinite",
				"supportsInterface(bytes4)": "787",
				"symbol()": "infinite",
				"tokenURI(uint256)": "infinite",
				"transferFrom(address,address,uint256)": "infinite",
				"transferOwnership(address)": "30841"
			}
		},
		"methodIdentifiers": {
			"TokenId()": "9ffb8b49",
			"approve(address,uint256)": "095ea7b3",
			"balanceOf(address)": "70a08231",
			"getApproved(uint256)": "081812fc",
			"isApprovedForAll(address,address)": "e985e9c5",
			"mint(address)": "6a627842",
			"name()": "06fdde03",
			"owner()": "8da5cb5b",
			"ownerOf(uint256)": "6352211e",
			"renounceOwnership()": "715018a6",
			"safeTransferFrom(address,address,uint256)": "42842e0e",
			"safeTransferFrom(address,address,uint256,bytes)": "b88d4fde",
			"setApprovalForAll(address,bool)": "a22cb465",
			"setBaseURI(string)": "55f804b3",
			"supportsInterface(bytes4)": "01ffc9a7",
			"symbol()": "95d89b41",
			"tokenURI(uint256)": "c87b56dd",
			"transferFrom(address,address,uint256)": "23b872dd",
			"transferOwnership(address)": "f2fde38b"
		}
	},
	"abi": [
		{
			"inputs": [],
			"stateMutability": "nonpayable",
			"type": "constructor"
		},
		{
			"anonymous": false,
			"inputs": [
				{
					"indexed": true,
					"internalType": "address",
					"name": "owner",
					"type": "address"
				},
				{
					"indexed": true,
					"internalType": "address",
					"name": "approved",
					"type": "address"
				},
				{
					"indexed": true,
					"internalType": "uint256",
					"name": "tokenId",
					"type": "uint256"
				}
			],
			"name": "Approval",
			"type": "event"
		},
		{
			"anonymous": false,
			"inputs": [
				{
					"indexed": true,
					"internalType": "address",
					"name": "owner",
					"type": "address"
				},
				{
					"indexed": true,
					"internalType": "address",
					"name": "operator",
					"type": "address"
				},
				{
					"indexed": false,
					"internalType": "bool",
					"name": "approved",
					"type": "bool"
				}
			],
			"name": "ApprovalForAll",
			"type": "event"
		},
		{
			"anonymous": false,
			"inputs": [
				{
					"indexed": true,
					"internalType": "address",
					"name": "previousOwner",
					"type": "address"
				},
				{
					"indexed": true,
					"internalType": "address",
					"name": "newOwner",
					"type": "address"
				}
			],
			"name": "OwnershipTransferred",
			"type": "event"
		},
		{
			"anonymous": false,
			"inputs": [
				{
					"indexed": true,
					"internalType": "address",
					"name": "from",
					"type": "address"
				},
				{
					"indexed": true,
					"internalType": "address",
					"name": "to",
					"type": "address"
				},
				{
					"indexed": true,
					"internalType": "uint256",
					"name": "tokenId",
					"type": "uint256"
				}
			],
			"name": "Transfer",
			"type": "event"
		},
		{
			"inputs": [],
			"name": "TokenId",
			"outputs": [
				{
					"internalType": "uint256",
					"name": "",
					"type": "uint256"
				}
			],
			"stateMutability": "view",
			"type": "function"
		},
		{
			"inputs": [
				{
					"internalType": "address",
					"name": "to",
					"type": "address"
				},
				{
					"internalType": "uint256",
					"name": "tokenId",
					"type": "uint256"
				}
			],
			"name": "approve",
			"outputs": [],
			"stateMutability": "nonpayable",
			"type": "function"
		},
		{
			"inputs": [
				{
					"internalType": "address",
					"name": "owner",
					"type": "address"
				}
			],
			"name": "balanceOf",
			"outputs": [
				{
					"internalType": "uint256",
					"name": "",
					"type": "uint256"
				}
			],
			"stateMutability": "view",
			"type": "function"
		},
		{
			"inputs": [
				{
					"internalType": "uint256",
					"name": "tokenId",
					"type": "uint256"
				}
			],
			"name": "getApproved",
			"outputs": [
				{
					"internalType": "address",
					"name": "",
					"type": "address"
				}
			],
			"stateMutability": "view",
			"type": "function"
		},
		{
			"inputs": [
				{
					"internalType": "address",
					"name": "owner",
					"type": "address"
				},
				{
					"internalType": "address",
					"name": "operator",
					"type": "address"
				}
			],
			"name": "isApprovedForAll",
			"outputs": [
				{
					"internalType": "bool",
					"name": "",
					"type": "bool"
				}
			],
			"stateMutability": "view",
			"type": "function"
		},
		{
			"inputs": [
				{
					"internalType": "address",
					"name": "to",
					"type": "address"
				}
			],
			"name": "mint",
			"outputs": [],
			"stateMutability": "nonpayable",
			"type": "function"
		},
		{
			"inputs": [],
			"name": "name",
			"outputs": [
				{
					"internalType": "string",
					"name": "",
					"type": "string"
				}
			],
			"stateMutability": "view",
			"type": "function"
		},
		{
			"inputs": [],
			"name": "owner",
			"outputs": [
				{
					"internalType": "address",
					"name": "",
					"type": "address"
				}
			],
			"stateMutability": "view",
			"type": "function"
		},
		{
			"inputs": [
				{
					"internalType": "uint256",
					"name": "tokenId",
					"type": "uint256"
				}
			],
			"name": "ownerOf",
			"outputs": [
				{
					"internalType": "address",
					"name": "",
					"type": "address"
				}
			],
			"stateMutability": "view",
			"type": "function"
		},
		{
			"inputs": [],
			"name": "renounceOwnership",
			"outputs": [],
			"stateMutability": "nonpayable",
			"type": "function"
		},
		{
			"inputs": [
				{
					"internalType": "address",
					"name": "from",
					"type": "address"
				},
				{
					"internalType": "address",
					"name": "to",
					"type": "address"
				},
				{
					"internalType": "uint256",
					"name": "tokenId",
					"type": "uint256"
				}
			],
			"name": "safeTransferFrom",
			"outputs": [],
			"stateMutability": "nonpayable",
			"type": "function"
		},
		{
			"inputs": [
				{
					"internalType": "address",
					"name": "from",
					"type": "address"
				},
				{
					"internalType": "address",
					"name": "to",
					"type": "address"
				},
				{
					"internalType": "uint256",
					"name": "tokenId",
					"type": "uint256"
				},
				{
					"internalType": "bytes",
					"name": "data",
					"type": "bytes"
				}
			],
			"name": "safeTransferFrom",
			"outputs": [],
			"stateMutability": "nonpayable",
			"type": "function"
		},
		{
			"inputs": [
				{
					"internalType": "address",
					"name": "operator",
					"type": "address"
				},
				{
					"internalType": "bool",
					"name": "approved",
					"type": "bool"
				}
			],
			"name": "setApprovalForAll",
			"outputs": [],
			"stateMutability": "nonpayable",
			"type": "function"
		},
		{
			"inputs": [
				{
					"internalType": "string",
					"name": "_baseURI",
					"type": "string"
				}
			],
			"name": "setBaseURI",
			"outputs": [],
			"stateMutability": "nonpayable",
			"type": "function"
		},
		{
			"inputs": [
				{
					"internalType": "bytes4",
					"name": "interfaceId",
					"type": "bytes4"
				}
			],
			"name": "supportsInterface",
			"outputs": [
				{
					"internalType": "bool",
					"name": "",
					"type": "bool"
				}
			],
			"stateMutability": "view",
			"type": "function"
		},
		{
			"inputs": [],
			"name": "symbol",
			"outputs": [
				{
					"internalType": "string",
					"name": "",
					"type": "string"
				}
			],
			"stateMutability": "view",
			"type": "function"
		},
		{
			"inputs": [
				{
					"internalType": "uint256",
					"name": "tokenId",
					"type": "uint256"
				}
			],
			"name": "tokenURI",
			"outputs": [
				{
					"internalType": "string",
					"name": "",
					"type": "string"
				}
			],
			"stateMutability": "view",
			"type": "function"
		},
		{
			"inputs": [
				{
					"internalType": "address",
					"name": "from",
					"type": "address"
				},
				{
					"internalType": "address",
					"name": "to",
					"type": "address"
				},
				{
					"internalType": "uint256",
					"name": "tokenId",
					"type": "uint256"
				}
			],
			"name": "transferFrom",
			"outputs": [],
			"stateMutability": "nonpayable",
			"type": "function"
		},
		{
			"inputs": [
				{
					"internalType": "address",
					"name": "newOwner",
					"type": "address"
				}
			],
			"name": "transferOwnership",
			"outputs": [],
			"stateMutability": "nonpayable",
			"type": "function"
		}
	]
}